{
	"etherUnits.sol": {
		"etherUnits": {
			"abi": [
				{
					"inputs": [],
					"name": "exercise",
					"outputs": [],
					"stateMutability": "nonpayable",
					"type": "function"
				},
				{
					"inputs": [],
					"name": "test",
					"outputs": [],
					"stateMutability": "nonpayable",
					"type": "function"
				}
			],
			"devdoc": {
				"kind": "dev",
				"methods": {},
				"version": 1
			},
			"evm": {
				"assembly": "    /* \"etherUnits.sol\":81:731  contract etherUnits {... */\n  mstore(0x40, 0x80)\n  callvalue\n  dup1\n  iszero\n  tag_1\n  jumpi\n  revert(0x00, 0x00)\ntag_1:\n  pop\n  dataSize(sub_0)\n  dup1\n  dataOffset(sub_0)\n  0x00\n  codecopy\n  0x00\n  return\nstop\n\nsub_0: assembly {\n        /* \"etherUnits.sol\":81:731  contract etherUnits {... */\n      mstore(0x40, 0x80)\n      callvalue\n      dup1\n      iszero\n      tag_1\n      jumpi\n      revert(0x00, 0x00)\n    tag_1:\n      pop\n      jumpi(tag_2, lt(calldatasize, 0x04))\n      shr(0xe0, calldataload(0x00))\n      dup1\n      0xd32cb0fe\n      eq\n      tag_3\n      jumpi\n      dup1\n      0xf8a8fd6d\n      eq\n      tag_4\n      jumpi\n    tag_2:\n      revert(0x00, 0x00)\n        /* \"etherUnits.sol\":516:725  function exercise() public {... */\n    tag_3:\n      tag_5\n      tag_6\n      jump\t// in\n    tag_5:\n      stop\n        /* \"etherUnits.sol\":107:510  function test() public {... */\n    tag_4:\n      tag_7\n      tag_8\n      jump\t// in\n    tag_7:\n      stop\n        /* \"etherUnits.sol\":516:725  function exercise() public {... */\n    tag_6:\n        /* \"etherUnits.sol\":577:587  60 seconds */\n      0x3c\n        /* \"etherUnits.sol\":564:573  1 minutes */\n      dup1\n        /* \"etherUnits.sol\":564:587  1 minutes == 60 seconds */\n      eq\n        /* \"etherUnits.sol\":557:588  assert(1 minutes == 60 seconds) */\n      tag_10\n      jumpi\n      tag_11\n      tag_12\n      jump\t// in\n    tag_11:\n    tag_10:\n        /* \"etherUnits.sol\":621:633  1440 minutes */\n      0x015180\n        /* \"etherUnits.sol\":609:617  24 hours */\n      dup1\n        /* \"etherUnits.sol\":609:633  24 hours == 1440 minutes */\n      eq\n        /* \"etherUnits.sol\":602:634  assert(24 hours == 1440 minutes) */\n      tag_13\n      jumpi\n      tag_14\n      tag_12\n      jump\t// in\n    tag_14:\n    tag_13:\n        /* \"etherUnits.sol\":665:673  24 hours */\n      0x015180\n        /* \"etherUnits.sol\":655:661  1 days */\n      dup1\n        /* \"etherUnits.sol\":655:673  1 days == 24 hours */\n      eq\n        /* \"etherUnits.sol\":648:674  assert(1 days == 24 hours) */\n      tag_15\n      jumpi\n      tag_16\n      tag_12\n      jump\t// in\n    tag_16:\n    tag_15:\n        /* \"etherUnits.sol\":706:712  7 days */\n      0x093a80\n        /* \"etherUnits.sol\":695:702  1 weeks */\n      dup1\n        /* \"etherUnits.sol\":695:712  1 weeks == 7 days */\n      eq\n        /* \"etherUnits.sol\":688:713  assert(1 weeks == 7 days) */\n      tag_17\n      jumpi\n      tag_18\n      tag_12\n      jump\t// in\n    tag_18:\n    tag_17:\n        /* \"etherUnits.sol\":516:725  function exercise() public {... */\n      jump\t// out\n        /* \"etherUnits.sol\":107:510  function test() public {... */\n    tag_8:\n        /* \"etherUnits.sol\":228:235  1 ether */\n      0x0de0b6b3a7640000\n        /* \"etherUnits.sol\":201:224  1000000000000000000 wei */\n      dup1\n        /* \"etherUnits.sol\":201:235  1000000000000000000 wei == 1 ether */\n      eq\n        /* \"etherUnits.sol\":194:236  assert(1000000000000000000 wei == 1 ether) */\n      tag_20\n      jumpi\n      tag_21\n      tag_12\n      jump\t// in\n    tag_21:\n    tag_20:\n        /* \"etherUnits.sol\":283:284  1 */\n      0x01\n        /* \"etherUnits.sol\":274:279  1 wei */\n      dup1\n        /* \"etherUnits.sol\":274:284  1 wei == 1 */\n      eq\n        /* \"etherUnits.sol\":267:285  assert(1 wei == 1) */\n      tag_22\n      jumpi\n      tag_23\n      tag_12\n      jump\t// in\n    tag_23:\n    tag_22:\n        /* \"etherUnits.sol\":327:331  1e18 */\n      0x0de0b6b3a7640000\n        /* \"etherUnits.sol\":316:323  1 ether */\n      dup1\n        /* \"etherUnits.sol\":316:331  1 ether == 1e18 */\n      eq\n        /* \"etherUnits.sol\":309:332  assert(1 ether == 1e18) */\n      tag_24\n      jumpi\n      tag_25\n      tag_12\n      jump\t// in\n    tag_25:\n    tag_24:\n        /* \"etherUnits.sol\":479:502  2000000000000000000 wei */\n      0x1bc16d674ec80000\n        /* \"etherUnits.sol\":468:475  2 ether */\n      dup1\n        /* \"etherUnits.sol\":468:502  2 ether == 2000000000000000000 wei */\n      eq\n        /* \"etherUnits.sol\":461:503  assert(2 ether == 2000000000000000000 wei) */\n      tag_26\n      jumpi\n      tag_27\n      tag_12\n      jump\t// in\n    tag_27:\n    tag_26:\n        /* \"etherUnits.sol\":107:510  function test() public {... */\n      jump\t// out\n        /* \"#utility.yul\":7:187   */\n    tag_12:\n        /* \"#utility.yul\":55:132   */\n      0x4e487b7100000000000000000000000000000000000000000000000000000000\n        /* \"#utility.yul\":52:53   */\n      0x00\n        /* \"#utility.yul\":45:133   */\n      mstore\n        /* \"#utility.yul\":152:156   */\n      0x01\n        /* \"#utility.yul\":149:150   */\n      0x04\n        /* \"#utility.yul\":142:157   */\n      mstore\n        /* \"#utility.yul\":176:180   */\n      0x24\n        /* \"#utility.yul\":173:174   */\n      0x00\n        /* \"#utility.yul\":166:181   */\n      revert\n\n    auxdata: 0xa2646970667358221220e405829ce3a9cc6afd5d2188264d11ef65a119d6aaef9f545aae71f66714690b64736f6c634300081e0033\n}\n",
				"bytecode": {
					"linkReferences": {},
					"object": "6080604052348015600e575f5ffd5b506101568061001c5f395ff3fe608060405234801561000f575f5ffd5b5060043610610034575f3560e01c8063d32cb0fe14610038578063f8a8fd6d14610042575b5f5ffd5b61004061004c565b005b61004a610098565b005b603c801461005d5761005c6100f3565b5b6201518080146100705761006f6100f3565b5b620151808014610083576100826100f3565b5b62093a808014610096576100956100f3565b5b565b670de0b6b3a764000080146100b0576100af6100f3565b5b600180146100c1576100c06100f3565b5b670de0b6b3a764000080146100d9576100d86100f3565b5b671bc16d674ec8000080146100f1576100f06100f3565b5b565b7f4e487b71000000000000000000000000000000000000000000000000000000005f52600160045260245ffdfea2646970667358221220e405829ce3a9cc6afd5d2188264d11ef65a119d6aaef9f545aae71f66714690b64736f6c634300081e0033",
					"opcodes": "PUSH1 0x80 PUSH1 0x40 MSTORE CALLVALUE DUP1 ISZERO PUSH1 0xE JUMPI PUSH0 PUSH0 REVERT JUMPDEST POP PUSH2 0x156 DUP1 PUSH2 0x1C PUSH0 CODECOPY PUSH0 RETURN INVALID PUSH1 0x80 PUSH1 0x40 MSTORE CALLVALUE DUP1 ISZERO PUSH2 0xF JUMPI PUSH0 PUSH0 REVERT JUMPDEST POP PUSH1 0x4 CALLDATASIZE LT PUSH2 0x34 JUMPI PUSH0 CALLDATALOAD PUSH1 0xE0 SHR DUP1 PUSH4 0xD32CB0FE EQ PUSH2 0x38 JUMPI DUP1 PUSH4 0xF8A8FD6D EQ PUSH2 0x42 JUMPI JUMPDEST PUSH0 PUSH0 REVERT JUMPDEST PUSH2 0x40 PUSH2 0x4C JUMP JUMPDEST STOP JUMPDEST PUSH2 0x4A PUSH2 0x98 JUMP JUMPDEST STOP JUMPDEST PUSH1 0x3C DUP1 EQ PUSH2 0x5D JUMPI PUSH2 0x5C PUSH2 0xF3 JUMP JUMPDEST JUMPDEST PUSH3 0x15180 DUP1 EQ PUSH2 0x70 JUMPI PUSH2 0x6F PUSH2 0xF3 JUMP JUMPDEST JUMPDEST PUSH3 0x15180 DUP1 EQ PUSH2 0x83 JUMPI PUSH2 0x82 PUSH2 0xF3 JUMP JUMPDEST JUMPDEST PUSH3 0x93A80 DUP1 EQ PUSH2 0x96 JUMPI PUSH2 0x95 PUSH2 0xF3 JUMP JUMPDEST JUMPDEST JUMP JUMPDEST PUSH8 0xDE0B6B3A7640000 DUP1 EQ PUSH2 0xB0 JUMPI PUSH2 0xAF PUSH2 0xF3 JUMP JUMPDEST JUMPDEST PUSH1 0x1 DUP1 EQ PUSH2 0xC1 JUMPI PUSH2 0xC0 PUSH2 0xF3 JUMP JUMPDEST JUMPDEST PUSH8 0xDE0B6B3A7640000 DUP1 EQ PUSH2 0xD9 JUMPI PUSH2 0xD8 PUSH2 0xF3 JUMP JUMPDEST JUMPDEST PUSH8 0x1BC16D674EC80000 DUP1 EQ PUSH2 0xF1 JUMPI PUSH2 0xF0 PUSH2 0xF3 JUMP JUMPDEST JUMPDEST JUMP JUMPDEST PUSH32 0x4E487B7100000000000000000000000000000000000000000000000000000000 PUSH0 MSTORE PUSH1 0x1 PUSH1 0x4 MSTORE PUSH1 0x24 PUSH0 REVERT INVALID LOG2 PUSH5 0x6970667358 0x22 SLT KECCAK256 RETF SDIV DUP3 SWAP13 CALLF 0xA9CC PUSH11 0xFD5D2188264D11EF65A119 0xD6 0xAA 0xEF SWAP16 SLOAD GAS 0xAE PUSH18 0xF66714690B64736F6C634300081E00330000 "
				},
				"gasEstimates": {
					"creation": {
						"codeDepositCost": "68400",
						"executionCost": "115",
						"totalCost": "68515"
					},
					"external": {
						"exercise()": "213",
						"test()": "235"
					}
				},
				"methodIdentifiers": {
					"exercise()": "d32cb0fe",
					"test()": "f8a8fd6d"
				}
			},
			"storageLayout": {
				"storage": [],
				"types": null
			},
			"userdoc": {
				"kind": "user",
				"methods": {},
				"version": 1
			}
		}
	}
}