{
	"learningSolidity/advancedAssembly.sol": {
		"LearnAssembly": {
			"abi": [
				{
					"inputs": [],
					"name": "addToEVM",
					"outputs": [],
					"stateMutability": "nonpayable",
					"type": "function"
				}
			],
			"devdoc": {
				"kind": "dev",
				"methods": {},
				"version": 1
			},
			"evm": {
				"assembly": "    /* \"learningSolidity/advancedAssembly.sol\":395:1003  contract LearnAssembly {... */\n  mstore(0x40, 0x80)\n  callvalue\n  dup1\n  iszero\n  tag_1\n  jumpi\n  revert(0x00, 0x00)\ntag_1:\n  pop\n  dataSize(sub_0)\n  dup1\n  dataOffset(sub_0)\n  0x00\n  codecopy\n  0x00\n  return\nstop\n\nsub_0: assembly {\n        /* \"learningSolidity/advancedAssembly.sol\":395:1003  contract LearnAssembly {... */\n      mstore(0x40, 0x80)\n      callvalue\n      dup1\n      iszero\n      tag_1\n      jumpi\n      revert(0x00, 0x00)\n    tag_1:\n      pop\n      jumpi(tag_2, lt(calldatasize, 0x04))\n      shr(0xe0, calldataload(0x00))\n      dup1\n      0xdadf8fee\n      eq\n      tag_3\n      jumpi\n    tag_2:\n      revert(0x00, 0x00)\n        /* \"learningSolidity/advancedAssembly.sol\":424:1000  function addToEVM() external {... */\n    tag_3:\n      tag_4\n      tag_5\n      jump\t// in\n    tag_4:\n      stop\n    tag_5:\n        /* \"learningSolidity/advancedAssembly.sol\":463:469  uint x */\n      0x00\n        /* \"learningSolidity/advancedAssembly.sol\":479:485  uint y */\n      0x00\n        /* \"learningSolidity/advancedAssembly.sol\":726:727  y */\n      dup1\n        /* \"learningSolidity/advancedAssembly.sol\":724:725  x */\n      dup3\n        /* \"learningSolidity/advancedAssembly.sol\":720:728  add(x,y) */\n      add\n        /* \"learningSolidity/advancedAssembly.sol\":853:857  0x40 */\n      0x40\n        /* \"learningSolidity/advancedAssembly.sol\":847:858  mload(0x40) */\n      mload\n        /* \"learningSolidity/advancedAssembly.sol\":926:927  4 */\n      0x04\n        /* \"learningSolidity/advancedAssembly.sol\":924:925  a */\n      dup2\n        /* \"learningSolidity/advancedAssembly.sol\":917:928  mstore(a,4) */\n      mstore\n        /* \"learningSolidity/advancedAssembly.sol\":978:981  100 */\n      0x64\n        /* \"learningSolidity/advancedAssembly.sol\":976:977  a */\n      dup2\n        /* \"learningSolidity/advancedAssembly.sol\":969:982  sstore(a,100) */\n      sstore\n        /* \"learningSolidity/advancedAssembly.sol\":527:993  {... */\n      pop\n      pop\n      pop\n      pop\n        /* \"learningSolidity/advancedAssembly.sol\":424:1000  function addToEVM() external {... */\n      jump\t// out\n\n    auxdata: 0xa2646970667358221220a9b271ac6c42e659a65e55af7c872289d51c67e9aef56b4974f300e7999ac48c64736f6c634300081e0033\n}\n",
				"bytecode": {
					"linkReferences": {},
					"object": "6080604052348015600e575f5ffd5b50607e80601a5f395ff3fe6080604052348015600e575f5ffd5b50600436106026575f3560e01c8063dadf8fee14602a575b5f5ffd5b60306032565b005b5f5f80820160405160048152606481555050505056fea2646970667358221220a9b271ac6c42e659a65e55af7c872289d51c67e9aef56b4974f300e7999ac48c64736f6c634300081e0033",
					"opcodes": "PUSH1 0x80 PUSH1 0x40 MSTORE CALLVALUE DUP1 ISZERO PUSH1 0xE JUMPI PUSH0 PUSH0 REVERT JUMPDEST POP PUSH1 0x7E DUP1 PUSH1 0x1A PUSH0 CODECOPY PUSH0 RETURN INVALID PUSH1 0x80 PUSH1 0x40 MSTORE CALLVALUE DUP1 ISZERO PUSH1 0xE JUMPI PUSH0 PUSH0 REVERT JUMPDEST POP PUSH1 0x4 CALLDATASIZE LT PUSH1 0x26 JUMPI PUSH0 CALLDATALOAD PUSH1 0xE0 SHR DUP1 PUSH4 0xDADF8FEE EQ PUSH1 0x2A JUMPI JUMPDEST PUSH0 PUSH0 REVERT JUMPDEST PUSH1 0x30 PUSH1 0x32 JUMP JUMPDEST STOP JUMPDEST PUSH0 PUSH0 DUP1 DUP3 ADD PUSH1 0x40 MLOAD PUSH1 0x4 DUP2 MSTORE PUSH1 0x64 DUP2 SSTORE POP POP POP POP JUMP INVALID LOG2 PUSH5 0x6970667358 0x22 SLT KECCAK256 0xA9 0xB2 PUSH18 0xAC6C42E659A65E55AF7C872289D51C67E9AE CREATE2 PUSH12 0x4974F300E7999AC48C64736F PUSH13 0x634300081E0033000000000000 "
				},
				"gasEstimates": {
					"creation": {
						"codeDepositCost": "25200",
						"executionCost": "73",
						"totalCost": "25273"
					},
					"external": {
						"addToEVM()": "22269"
					}
				},
				"methodIdentifiers": {
					"addToEVM()": "dadf8fee"
				}
			},
			"storageLayout": {
				"storage": [],
				"types": null
			},
			"userdoc": {
				"kind": "user",
				"methods": {},
				"version": 1
			}
		}
	}
}