{
	"learningSolidity/withdrawalPattern.sol": {
		"Victim": {
			"abi": [
				{
					"inputs": [],
					"name": "isItAContract",
					"outputs": [
						{
							"internalType": "bool",
							"name": "",
							"type": "bool"
						}
					],
					"stateMutability": "view",
					"type": "function"
				}
			],
			"devdoc": {
				"kind": "dev",
				"methods": {},
				"version": 1
			},
			"evm": {
				"assembly": "    /* \"learningSolidity/withdrawalPattern.sol\":704:1044  contract Victim {... */\n  mstore(0x40, 0x80)\n  callvalue\n  dup1\n  iszero\n  tag_1\n  jumpi\n  revert(0x00, 0x00)\ntag_1:\n  pop\n  dataSize(sub_0)\n  dup1\n  dataOffset(sub_0)\n  0x00\n  codecopy\n  0x00\n  return\nstop\n\nsub_0: assembly {\n        /* \"learningSolidity/withdrawalPattern.sol\":704:1044  contract Victim {... */\n      mstore(0x40, 0x80)\n      callvalue\n      dup1\n      iszero\n      tag_1\n      jumpi\n      revert(0x00, 0x00)\n    tag_1:\n      pop\n      jumpi(tag_2, lt(calldatasize, 0x04))\n      shr(0xe0, calldataload(0x00))\n      dup1\n      0x63bae962\n      eq\n      tag_3\n      jumpi\n    tag_2:\n      revert(0x00, 0x00)\n        /* \"learningSolidity/withdrawalPattern.sol\":726:1041  function isItAContract() public view returns(bool) {... */\n    tag_3:\n      tag_4\n      tag_5\n      jump\t// in\n    tag_4:\n      mload(0x40)\n      tag_6\n      swap2\n      swap1\n      tag_7\n      jump\t// in\n    tag_6:\n      mload(0x40)\n      dup1\n      swap2\n      sub\n      swap1\n      return\n    tag_5:\n        /* \"learningSolidity/withdrawalPattern.sol\":771:775  bool */\n      0x00\n        /* \"learningSolidity/withdrawalPattern.sol\":787:798  uint32 size */\n      0x00\n        /* \"learningSolidity/withdrawalPattern.sol\":808:817  address a */\n      0x00\n        /* \"learningSolidity/withdrawalPattern.sol\":820:830  msg.sender */\n      caller\n        /* \"learningSolidity/withdrawalPattern.sol\":808:830  address a = msg.sender */\n      swap1\n      pop\n        /* \"learningSolidity/withdrawalPattern.sol\":997:998  a */\n      dup1\n        /* \"learningSolidity/withdrawalPattern.sol\":985:999  extcodesize(a) */\n      extcodesize\n        /* \"learningSolidity/withdrawalPattern.sol\":977:999  size := extcodesize(a) */\n      swap2\n      pop\n        /* \"learningSolidity/withdrawalPattern.sol\":1032:1033  0 */\n      0x00\n        /* \"learningSolidity/withdrawalPattern.sol\":1025:1029  size */\n      dup3\n        /* \"learningSolidity/withdrawalPattern.sol\":1025:1033  size > 0 */\n      0xffffffff\n      and\n      gt\n        /* \"learningSolidity/withdrawalPattern.sol\":1018:1034  return(size > 0) */\n      swap3\n      pop\n      pop\n      pop\n        /* \"learningSolidity/withdrawalPattern.sol\":726:1041  function isItAContract() public view returns(bool) {... */\n      swap1\n      jump\t// out\n        /* \"#utility.yul\":7:97   */\n    tag_9:\n        /* \"#utility.yul\":41:48   */\n      0x00\n        /* \"#utility.yul\":84:89   */\n      dup2\n        /* \"#utility.yul\":77:90   */\n      iszero\n        /* \"#utility.yul\":70:91   */\n      iszero\n        /* \"#utility.yul\":59:91   */\n      swap1\n      pop\n        /* \"#utility.yul\":7:97   */\n      swap2\n      swap1\n      pop\n      jump\t// out\n        /* \"#utility.yul\":103:212   */\n    tag_10:\n        /* \"#utility.yul\":184:205   */\n      tag_14\n        /* \"#utility.yul\":199:204   */\n      dup2\n        /* \"#utility.yul\":184:205   */\n      tag_9\n      jump\t// in\n    tag_14:\n        /* \"#utility.yul\":179:182   */\n      dup3\n        /* \"#utility.yul\":172:206   */\n      mstore\n        /* \"#utility.yul\":103:212   */\n      pop\n      pop\n      jump\t// out\n        /* \"#utility.yul\":218:428   */\n    tag_7:\n        /* \"#utility.yul\":305:309   */\n      0x00\n        /* \"#utility.yul\":343:345   */\n      0x20\n        /* \"#utility.yul\":332:341   */\n      dup3\n        /* \"#utility.yul\":328:346   */\n      add\n        /* \"#utility.yul\":320:346   */\n      swap1\n      pop\n        /* \"#utility.yul\":356:421   */\n      tag_16\n        /* \"#utility.yul\":418:419   */\n      0x00\n        /* \"#utility.yul\":407:416   */\n      dup4\n        /* \"#utility.yul\":403:420   */\n      add\n        /* \"#utility.yul\":394:400   */\n      dup5\n        /* \"#utility.yul\":356:421   */\n      tag_10\n      jump\t// in\n    tag_16:\n        /* \"#utility.yul\":218:428   */\n      swap3\n      swap2\n      pop\n      pop\n      jump\t// out\n\n    auxdata: 0xa264697066735822122025f0a8755284e76de5a517bb64cbf99b2257778b1fadba2e37e7dab41e35aaad64736f6c634300081e0033\n}\n",
				"bytecode": {
					"linkReferences": {},
					"object": "6080604052348015600e575f5ffd5b5060c380601a5f395ff3fe6080604052348015600e575f5ffd5b50600436106026575f3560e01c806363bae96214602a575b5f5ffd5b60306044565b604051603b91906076565b60405180910390f35b5f5f5f339050803b91505f8263ffffffff16119250505090565b5f8115159050919050565b607081605e565b82525050565b5f60208201905060875f8301846069565b9291505056fea264697066735822122025f0a8755284e76de5a517bb64cbf99b2257778b1fadba2e37e7dab41e35aaad64736f6c634300081e0033",
					"opcodes": "PUSH1 0x80 PUSH1 0x40 MSTORE CALLVALUE DUP1 ISZERO PUSH1 0xE JUMPI PUSH0 PUSH0 REVERT JUMPDEST POP PUSH1 0xC3 DUP1 PUSH1 0x1A PUSH0 CODECOPY PUSH0 RETURN INVALID PUSH1 0x80 PUSH1 0x40 MSTORE CALLVALUE DUP1 ISZERO PUSH1 0xE JUMPI PUSH0 PUSH0 REVERT JUMPDEST POP PUSH1 0x4 CALLDATASIZE LT PUSH1 0x26 JUMPI PUSH0 CALLDATALOAD PUSH1 0xE0 SHR DUP1 PUSH4 0x63BAE962 EQ PUSH1 0x2A JUMPI JUMPDEST PUSH0 PUSH0 REVERT JUMPDEST PUSH1 0x30 PUSH1 0x44 JUMP JUMPDEST PUSH1 0x40 MLOAD PUSH1 0x3B SWAP2 SWAP1 PUSH1 0x76 JUMP JUMPDEST PUSH1 0x40 MLOAD DUP1 SWAP2 SUB SWAP1 RETURN JUMPDEST PUSH0 PUSH0 PUSH0 CALLER SWAP1 POP DUP1 EXTCODESIZE SWAP2 POP PUSH0 DUP3 PUSH4 0xFFFFFFFF AND GT SWAP3 POP POP POP SWAP1 JUMP JUMPDEST PUSH0 DUP2 ISZERO ISZERO SWAP1 POP SWAP2 SWAP1 POP JUMP JUMPDEST PUSH1 0x70 DUP2 PUSH1 0x5E JUMP JUMPDEST DUP3 MSTORE POP POP JUMP JUMPDEST PUSH0 PUSH1 0x20 DUP3 ADD SWAP1 POP PUSH1 0x87 PUSH0 DUP4 ADD DUP5 PUSH1 0x69 JUMP JUMPDEST SWAP3 SWAP2 POP POP JUMP INVALID LOG2 PUSH5 0x6970667358 0x22 SLT KECCAK256 0x25 CREATE 0xA8 PUSH22 0x5284E76DE5A517BB64CBF99B2257778B1FADBA2E37E7 0xDA 0xB4 0x1E CALLDATALOAD 0xAA 0xAD PUSH5 0x736F6C6343 STOP ADDMOD 0x1E STOP CALLER "
				},
				"gasEstimates": {
					"creation": {
						"codeDepositCost": "39000",
						"executionCost": "91",
						"totalCost": "39091"
					},
					"external": {
						"isItAContract()": "2950"
					}
				},
				"methodIdentifiers": {
					"isItAContract()": "63bae962"
				}
			},
			"storageLayout": {
				"storage": [],
				"types": null
			},
			"userdoc": {
				"kind": "user",
				"methods": {},
				"version": 1
			}
		}
	}
}