{
	"learningSolidity/advancedErrorHandling.sol": {
		"LearnErrorHandling": {
			"abi": [
				{
					"inputs": [],
					"name": "solarCalc",
					"outputs": [],
					"stateMutability": "nonpayable",
					"type": "function"
				},
				{
					"inputs": [],
					"name": "sunny",
					"outputs": [
						{
							"internalType": "bool",
							"name": "",
							"type": "bool"
						}
					],
					"stateMutability": "view",
					"type": "function"
				},
				{
					"inputs": [],
					"name": "weatherChanger",
					"outputs": [],
					"stateMutability": "nonpayable",
					"type": "function"
				}
			],
			"devdoc": {
				"kind": "dev",
				"methods": {},
				"version": 1
			},
			"evm": {
				"assembly": "    /* \"learningSolidity/advancedErrorHandling.sol\":71:385  contract LearnErrorHandling {... */\n  mstore(0x40, 0x80)\n    /* \"learningSolidity/advancedErrorHandling.sol\":125:129  true */\n  0x01\n    /* \"learningSolidity/advancedErrorHandling.sol\":105:129  bool public sunny = true */\n  0x00\n  exp(0x0100, 0x00)\n  dup2\n  sload\n  dup2\n  0xff\n  mul\n  not\n  and\n  swap1\n  dup4\n  iszero\n  iszero\n  mul\n  or\n  swap1\n  sstore\n  pop\n    /* \"learningSolidity/advancedErrorHandling.sol\":152:153  0 */\n  0x00\n    /* \"learningSolidity/advancedErrorHandling.sol\":135:153  uint finalCalc = 0 */\n  0x01\n  sstore\n    /* \"learningSolidity/advancedErrorHandling.sol\":71:385  contract LearnErrorHandling {... */\n  callvalue\n  dup1\n  iszero\n  tag_1\n  jumpi\n  revert(0x00, 0x00)\ntag_1:\n  pop\n  dataSize(sub_0)\n  dup1\n  dataOffset(sub_0)\n  0x00\n  codecopy\n  0x00\n  return\nstop\n\nsub_0: assembly {\n        /* \"learningSolidity/advancedErrorHandling.sol\":71:385  contract LearnErrorHandling {... */\n      mstore(0x40, 0x80)\n      callvalue\n      dup1\n      iszero\n      tag_1\n      jumpi\n      revert(0x00, 0x00)\n    tag_1:\n      pop\n      jumpi(tag_2, lt(calldatasize, 0x04))\n      shr(0xe0, calldataload(0x00))\n      dup1\n      0xab02dd7b\n      eq\n      tag_3\n      jumpi\n      dup1\n      0xc000dcdb\n      eq\n      tag_4\n      jumpi\n      dup1\n      0xe472c67c\n      eq\n      tag_5\n      jumpi\n    tag_2:\n      revert(0x00, 0x00)\n        /* \"learningSolidity/advancedErrorHandling.sol\":105:129  bool public sunny = true */\n    tag_3:\n      tag_6\n      tag_7\n      jump\t// in\n    tag_6:\n      mload(0x40)\n      tag_8\n      swap2\n      swap1\n      tag_9\n      jump\t// in\n    tag_8:\n      mload(0x40)\n      dup1\n      swap2\n      sub\n      swap1\n      return\n        /* \"learningSolidity/advancedErrorHandling.sol\":318:382  function weatherChanger() public {... */\n    tag_4:\n      tag_10\n      tag_11\n      jump\t// in\n    tag_10:\n      stop\n        /* \"learningSolidity/advancedErrorHandling.sol\":160:269  function solarCalc() public {... */\n    tag_5:\n      tag_12\n      tag_13\n      jump\t// in\n    tag_12:\n      stop\n        /* \"learningSolidity/advancedErrorHandling.sol\":105:129  bool public sunny = true */\n    tag_7:\n      0x00\n      0x00\n      swap1\n      sload\n      swap1\n      0x0100\n      exp\n      swap1\n      div\n      0xff\n      and\n      dup2\n      jump\t// out\n        /* \"learningSolidity/advancedErrorHandling.sol\":318:382  function weatherChanger() public {... */\n    tag_11:\n        /* \"learningSolidity/advancedErrorHandling.sol\":370:375  sunny */\n      0x00\n      0x00\n      swap1\n      sload\n      swap1\n      0x0100\n      exp\n      swap1\n      div\n      0xff\n      and\n        /* \"learningSolidity/advancedErrorHandling.sol\":369:375  !sunny */\n      iszero\n        /* \"learningSolidity/advancedErrorHandling.sol\":361:366  sunny */\n      0x00\n      0x00\n        /* \"learningSolidity/advancedErrorHandling.sol\":361:375  sunny = !sunny */\n      0x0100\n      exp\n      dup2\n      sload\n      dup2\n      0xff\n      mul\n      not\n      and\n      swap1\n      dup4\n      iszero\n      iszero\n      mul\n      or\n      swap1\n      sstore\n      pop\n        /* \"learningSolidity/advancedErrorHandling.sol\":318:382  function weatherChanger() public {... */\n      jump\t// out\n        /* \"learningSolidity/advancedErrorHandling.sol\":160:269  function solarCalc() public {... */\n    tag_13:\n        /* \"learningSolidity/advancedErrorHandling.sol\":206:211  sunny */\n      0x00\n      0x00\n      swap1\n      sload\n      swap1\n      0x0100\n      exp\n      swap1\n      div\n      0xff\n      and\n        /* \"learningSolidity/advancedErrorHandling.sol\":198:238  require(sunny, 'It is not sunny today!') */\n      tag_16\n      jumpi\n      mload(0x40)\n      0x08c379a000000000000000000000000000000000000000000000000000000000\n      dup2\n      mstore\n      0x04\n      add\n      tag_17\n      swap1\n      tag_18\n      jump\t// in\n    tag_17:\n      mload(0x40)\n      dup1\n      swap2\n      sub\n      swap1\n      revert\n    tag_16:\n        /* \"learningSolidity/advancedErrorHandling.sol\":261:262  3 */\n      0x03\n        /* \"learningSolidity/advancedErrorHandling.sol\":248:257  finalCalc */\n      0x01\n      0x00\n        /* \"learningSolidity/advancedErrorHandling.sol\":248:262  finalCalc += 3 */\n      dup3\n      dup3\n      sload\n      tag_19\n      swap2\n      swap1\n      tag_20\n      jump\t// in\n    tag_19:\n      swap3\n      pop\n      pop\n      dup2\n      swap1\n      sstore\n      pop\n        /* \"learningSolidity/advancedErrorHandling.sol\":160:269  function solarCalc() public {... */\n      jump\t// out\n        /* \"#utility.yul\":7:97   */\n    tag_21:\n        /* \"#utility.yul\":41:48   */\n      0x00\n        /* \"#utility.yul\":84:89   */\n      dup2\n        /* \"#utility.yul\":77:90   */\n      iszero\n        /* \"#utility.yul\":70:91   */\n      iszero\n        /* \"#utility.yul\":59:91   */\n      swap1\n      pop\n        /* \"#utility.yul\":7:97   */\n      swap2\n      swap1\n      pop\n      jump\t// out\n        /* \"#utility.yul\":103:212   */\n    tag_22:\n        /* \"#utility.yul\":184:205   */\n      tag_31\n        /* \"#utility.yul\":199:204   */\n      dup2\n        /* \"#utility.yul\":184:205   */\n      tag_21\n      jump\t// in\n    tag_31:\n        /* \"#utility.yul\":179:182   */\n      dup3\n        /* \"#utility.yul\":172:206   */\n      mstore\n        /* \"#utility.yul\":103:212   */\n      pop\n      pop\n      jump\t// out\n        /* \"#utility.yul\":218:428   */\n    tag_9:\n        /* \"#utility.yul\":305:309   */\n      0x00\n        /* \"#utility.yul\":343:345   */\n      0x20\n        /* \"#utility.yul\":332:341   */\n      dup3\n        /* \"#utility.yul\":328:346   */\n      add\n        /* \"#utility.yul\":320:346   */\n      swap1\n      pop\n        /* \"#utility.yul\":356:421   */\n      tag_33\n        /* \"#utility.yul\":418:419   */\n      0x00\n        /* \"#utility.yul\":407:416   */\n      dup4\n        /* \"#utility.yul\":403:420   */\n      add\n        /* \"#utility.yul\":394:400   */\n      dup5\n        /* \"#utility.yul\":356:421   */\n      tag_22\n      jump\t// in\n    tag_33:\n        /* \"#utility.yul\":218:428   */\n      swap3\n      swap2\n      pop\n      pop\n      jump\t// out\n        /* \"#utility.yul\":434:603   */\n    tag_23:\n        /* \"#utility.yul\":518:529   */\n      0x00\n        /* \"#utility.yul\":552:558   */\n      dup3\n        /* \"#utility.yul\":547:550   */\n      dup3\n        /* \"#utility.yul\":540:559   */\n      mstore\n        /* \"#utility.yul\":592:596   */\n      0x20\n        /* \"#utility.yul\":587:590   */\n      dup3\n        /* \"#utility.yul\":583:597   */\n      add\n        /* \"#utility.yul\":568:597   */\n      swap1\n      pop\n        /* \"#utility.yul\":434:603   */\n      swap3\n      swap2\n      pop\n      pop\n      jump\t// out\n        /* \"#utility.yul\":609:781   */\n    tag_24:\n        /* \"#utility.yul\":749:773   */\n      0x4974206973206e6f742073756e6e7920746f6461792100000000000000000000\n        /* \"#utility.yul\":745:746   */\n      0x00\n        /* \"#utility.yul\":737:743   */\n      dup3\n        /* \"#utility.yul\":733:747   */\n      add\n        /* \"#utility.yul\":726:774   */\n      mstore\n        /* \"#utility.yul\":609:781   */\n      pop\n      jump\t// out\n        /* \"#utility.yul\":787:1153   */\n    tag_25:\n        /* \"#utility.yul\":929:932   */\n      0x00\n        /* \"#utility.yul\":950:1017   */\n      tag_37\n        /* \"#utility.yul\":1014:1016   */\n      0x16\n        /* \"#utility.yul\":1009:1012   */\n      dup4\n        /* \"#utility.yul\":950:1017   */\n      tag_23\n      jump\t// in\n    tag_37:\n        /* \"#utility.yul\":943:1017   */\n      swap2\n      pop\n        /* \"#utility.yul\":1026:1119   */\n      tag_38\n        /* \"#utility.yul\":1115:1118   */\n      dup3\n        /* \"#utility.yul\":1026:1119   */\n      tag_24\n      jump\t// in\n    tag_38:\n        /* \"#utility.yul\":1144:1146   */\n      0x20\n        /* \"#utility.yul\":1139:1142   */\n      dup3\n        /* \"#utility.yul\":1135:1147   */\n      add\n        /* \"#utility.yul\":1128:1147   */\n      swap1\n      pop\n        /* \"#utility.yul\":787:1153   */\n      swap2\n      swap1\n      pop\n      jump\t// out\n        /* \"#utility.yul\":1159:1578   */\n    tag_18:\n        /* \"#utility.yul\":1325:1329   */\n      0x00\n        /* \"#utility.yul\":1363:1365   */\n      0x20\n        /* \"#utility.yul\":1352:1361   */\n      dup3\n        /* \"#utility.yul\":1348:1366   */\n      add\n        /* \"#utility.yul\":1340:1366   */\n      swap1\n      pop\n        /* \"#utility.yul\":1412:1421   */\n      dup2\n        /* \"#utility.yul\":1406:1410   */\n      dup2\n        /* \"#utility.yul\":1402:1422   */\n      sub\n        /* \"#utility.yul\":1398:1399   */\n      0x00\n        /* \"#utility.yul\":1387:1396   */\n      dup4\n        /* \"#utility.yul\":1383:1400   */\n      add\n        /* \"#utility.yul\":1376:1423   */\n      mstore\n        /* \"#utility.yul\":1440:1571   */\n      tag_40\n        /* \"#utility.yul\":1566:1570   */\n      dup2\n        /* \"#utility.yul\":1440:1571   */\n      tag_25\n      jump\t// in\n    tag_40:\n        /* \"#utility.yul\":1432:1571   */\n      swap1\n      pop\n        /* \"#utility.yul\":1159:1578   */\n      swap2\n      swap1\n      pop\n      jump\t// out\n        /* \"#utility.yul\":1584:1661   */\n    tag_26:\n        /* \"#utility.yul\":1621:1628   */\n      0x00\n        /* \"#utility.yul\":1650:1655   */\n      dup2\n        /* \"#utility.yul\":1639:1655   */\n      swap1\n      pop\n        /* \"#utility.yul\":1584:1661   */\n      swap2\n      swap1\n      pop\n      jump\t// out\n        /* \"#utility.yul\":1667:1847   */\n    tag_27:\n        /* \"#utility.yul\":1715:1792   */\n      0x4e487b7100000000000000000000000000000000000000000000000000000000\n        /* \"#utility.yul\":1712:1713   */\n      0x00\n        /* \"#utility.yul\":1705:1793   */\n      mstore\n        /* \"#utility.yul\":1812:1816   */\n      0x11\n        /* \"#utility.yul\":1809:1810   */\n      0x04\n        /* \"#utility.yul\":1802:1817   */\n      mstore\n        /* \"#utility.yul\":1836:1840   */\n      0x24\n        /* \"#utility.yul\":1833:1834   */\n      0x00\n        /* \"#utility.yul\":1826:1841   */\n      revert\n        /* \"#utility.yul\":1853:2044   */\n    tag_20:\n        /* \"#utility.yul\":1893:1896   */\n      0x00\n        /* \"#utility.yul\":1912:1932   */\n      tag_44\n        /* \"#utility.yul\":1930:1931   */\n      dup3\n        /* \"#utility.yul\":1912:1932   */\n      tag_26\n      jump\t// in\n    tag_44:\n        /* \"#utility.yul\":1907:1932   */\n      swap2\n      pop\n        /* \"#utility.yul\":1946:1966   */\n      tag_45\n        /* \"#utility.yul\":1964:1965   */\n      dup4\n        /* \"#utility.yul\":1946:1966   */\n      tag_26\n      jump\t// in\n    tag_45:\n        /* \"#utility.yul\":1941:1966   */\n      swap3\n      pop\n        /* \"#utility.yul\":1989:1990   */\n      dup3\n        /* \"#utility.yul\":1986:1987   */\n      dup3\n        /* \"#utility.yul\":1982:1991   */\n      add\n        /* \"#utility.yul\":1975:1991   */\n      swap1\n      pop\n        /* \"#utility.yul\":2010:2013   */\n      dup1\n        /* \"#utility.yul\":2007:2008   */\n      dup3\n        /* \"#utility.yul\":2004:2014   */\n      gt\n        /* \"#utility.yul\":2001:2037   */\n      iszero\n      tag_46\n      jumpi\n        /* \"#utility.yul\":2017:2035   */\n      tag_47\n      tag_27\n      jump\t// in\n    tag_47:\n        /* \"#utility.yul\":2001:2037   */\n    tag_46:\n        /* \"#utility.yul\":1853:2044   */\n      swap3\n      swap2\n      pop\n      pop\n      jump\t// out\n\n    auxdata: 0xa26469706673582212206a12a4eca07fda296af9db565fc73178436f4a6c9189fd8d7ad3762dfa2629b664736f6c634300081e0033\n}\n",
				"bytecode": {
					"linkReferences": {},
					"object": "608060405260015f5f6101000a81548160ff0219169083151502179055505f600155348015602b575f5ffd5b50610260806100395f395ff3fe608060405234801561000f575f5ffd5b506004361061003f575f3560e01c8063ab02dd7b14610043578063c000dcdb14610061578063e472c67c1461006b575b5f5ffd5b61004b610075565b6040516100589190610130565b60405180910390f35b610069610086565b005b6100736100ae565b005b5f5f9054906101000a900460ff1681565b5f5f9054906101000a900460ff16155f5f6101000a81548160ff021916908315150217905550565b5f5f9054906101000a900460ff166100fb576040517f08c379a00000000000000000000000000000000000000000000000000000000081526004016100f2906101a3565b60405180910390fd5b600360015f82825461010d91906101f7565b92505081905550565b5f8115159050919050565b61012a81610116565b82525050565b5f6020820190506101435f830184610121565b92915050565b5f82825260208201905092915050565b7f4974206973206e6f742073756e6e7920746f64617921000000000000000000005f82015250565b5f61018d601683610149565b915061019882610159565b602082019050919050565b5f6020820190508181035f8301526101ba81610181565b9050919050565b5f819050919050565b7f4e487b71000000000000000000000000000000000000000000000000000000005f52601160045260245ffd5b5f610201826101c1565b915061020c836101c1565b9250828201905080821115610224576102236101ca565b5b9291505056fea26469706673582212206a12a4eca07fda296af9db565fc73178436f4a6c9189fd8d7ad3762dfa2629b664736f6c634300081e0033",
					"opcodes": "PUSH1 0x80 PUSH1 0x40 MSTORE PUSH1 0x1 PUSH0 PUSH0 PUSH2 0x100 EXP DUP2 SLOAD DUP2 PUSH1 0xFF MUL NOT AND SWAP1 DUP4 ISZERO ISZERO MUL OR SWAP1 SSTORE POP PUSH0 PUSH1 0x1 SSTORE CALLVALUE DUP1 ISZERO PUSH1 0x2B JUMPI PUSH0 PUSH0 REVERT JUMPDEST POP PUSH2 0x260 DUP1 PUSH2 0x39 PUSH0 CODECOPY PUSH0 RETURN INVALID PUSH1 0x80 PUSH1 0x40 MSTORE CALLVALUE DUP1 ISZERO PUSH2 0xF JUMPI PUSH0 PUSH0 REVERT JUMPDEST POP PUSH1 0x4 CALLDATASIZE LT PUSH2 0x3F JUMPI PUSH0 CALLDATALOAD PUSH1 0xE0 SHR DUP1 PUSH4 0xAB02DD7B EQ PUSH2 0x43 JUMPI DUP1 PUSH4 0xC000DCDB EQ PUSH2 0x61 JUMPI DUP1 PUSH4 0xE472C67C EQ PUSH2 0x6B JUMPI JUMPDEST PUSH0 PUSH0 REVERT JUMPDEST PUSH2 0x4B PUSH2 0x75 JUMP JUMPDEST PUSH1 0x40 MLOAD PUSH2 0x58 SWAP2 SWAP1 PUSH2 0x130 JUMP JUMPDEST PUSH1 0x40 MLOAD DUP1 SWAP2 SUB SWAP1 RETURN JUMPDEST PUSH2 0x69 PUSH2 0x86 JUMP JUMPDEST STOP JUMPDEST PUSH2 0x73 PUSH2 0xAE JUMP JUMPDEST STOP JUMPDEST PUSH0 PUSH0 SWAP1 SLOAD SWAP1 PUSH2 0x100 EXP SWAP1 DIV PUSH1 0xFF AND DUP2 JUMP JUMPDEST PUSH0 PUSH0 SWAP1 SLOAD SWAP1 PUSH2 0x100 EXP SWAP1 DIV PUSH1 0xFF AND ISZERO PUSH0 PUSH0 PUSH2 0x100 EXP DUP2 SLOAD DUP2 PUSH1 0xFF MUL NOT AND SWAP1 DUP4 ISZERO ISZERO MUL OR SWAP1 SSTORE POP JUMP JUMPDEST PUSH0 PUSH0 SWAP1 SLOAD SWAP1 PUSH2 0x100 EXP SWAP1 DIV PUSH1 0xFF AND PUSH2 0xFB JUMPI PUSH1 0x40 MLOAD PUSH32 0x8C379A000000000000000000000000000000000000000000000000000000000 DUP2 MSTORE PUSH1 0x4 ADD PUSH2 0xF2 SWAP1 PUSH2 0x1A3 JUMP JUMPDEST PUSH1 0x40 MLOAD DUP1 SWAP2 SUB SWAP1 REVERT JUMPDEST PUSH1 0x3 PUSH1 0x1 PUSH0 DUP3 DUP3 SLOAD PUSH2 0x10D SWAP2 SWAP1 PUSH2 0x1F7 JUMP JUMPDEST SWAP3 POP POP DUP2 SWAP1 SSTORE POP JUMP JUMPDEST PUSH0 DUP2 ISZERO ISZERO SWAP1 POP SWAP2 SWAP1 POP JUMP JUMPDEST PUSH2 0x12A DUP2 PUSH2 0x116 JUMP JUMPDEST DUP3 MSTORE POP POP JUMP JUMPDEST PUSH0 PUSH1 0x20 DUP3 ADD SWAP1 POP PUSH2 0x143 PUSH0 DUP4 ADD DUP5 PUSH2 0x121 JUMP JUMPDEST SWAP3 SWAP2 POP POP JUMP JUMPDEST PUSH0 DUP3 DUP3 MSTORE PUSH1 0x20 DUP3 ADD SWAP1 POP SWAP3 SWAP2 POP POP JUMP JUMPDEST PUSH32 0x4974206973206E6F742073756E6E7920746F6461792100000000000000000000 PUSH0 DUP3 ADD MSTORE POP JUMP JUMPDEST PUSH0 PUSH2 0x18D PUSH1 0x16 DUP4 PUSH2 0x149 JUMP JUMPDEST SWAP2 POP PUSH2 0x198 DUP3 PUSH2 0x159 JUMP JUMPDEST PUSH1 0x20 DUP3 ADD SWAP1 POP SWAP2 SWAP1 POP JUMP JUMPDEST PUSH0 PUSH1 0x20 DUP3 ADD SWAP1 POP DUP2 DUP2 SUB PUSH0 DUP4 ADD MSTORE PUSH2 0x1BA DUP2 PUSH2 0x181 JUMP JUMPDEST SWAP1 POP SWAP2 SWAP1 POP JUMP JUMPDEST PUSH0 DUP2 SWAP1 POP SWAP2 SWAP1 POP JUMP JUMPDEST PUSH32 0x4E487B7100000000000000000000000000000000000000000000000000000000 PUSH0 MSTORE PUSH1 0x11 PUSH1 0x4 MSTORE PUSH1 0x24 PUSH0 REVERT JUMPDEST PUSH0 PUSH2 0x201 DUP3 PUSH2 0x1C1 JUMP JUMPDEST SWAP2 POP PUSH2 0x20C DUP4 PUSH2 0x1C1 JUMP JUMPDEST SWAP3 POP DUP3 DUP3 ADD SWAP1 POP DUP1 DUP3 GT ISZERO PUSH2 0x224 JUMPI PUSH2 0x223 PUSH2 0x1CA JUMP JUMPDEST JUMPDEST SWAP3 SWAP2 POP POP JUMP INVALID LOG2 PUSH5 0x6970667358 0x22 SLT KECCAK256 PUSH11 0x12A4ECA07FDA296AF9DB56 PUSH0 0xC7 BALANCE PUSH25 0x436F4A6C9189FD8D7AD3762DFA2629B664736F6C634300081E STOP CALLER "
				},
				"gasEstimates": {
					"creation": {
						"codeDepositCost": "121600",
						"executionCost": "29433",
						"totalCost": "151033"
					},
					"external": {
						"solarCalc()": "infinite",
						"sunny()": "2443",
						"weatherChanger()": "26545"
					}
				},
				"methodIdentifiers": {
					"solarCalc()": "e472c67c",
					"sunny()": "ab02dd7b",
					"weatherChanger()": "c000dcdb"
				}
			},
			"storageLayout": {
				"storage": [
					{
						"astId": 4,
						"contract": "learningSolidity/advancedErrorHandling.sol:LearnErrorHandling",
						"label": "sunny",
						"offset": 0,
						"slot": "0",
						"type": "t_bool"
					},
					{
						"astId": 7,
						"contract": "learningSolidity/advancedErrorHandling.sol:LearnErrorHandling",
						"label": "finalCalc",
						"offset": 0,
						"slot": "1",
						"type": "t_uint256"
					}
				],
				"types": {
					"t_bool": {
						"encoding": "inplace",
						"label": "bool",
						"numberOfBytes": "1"
					},
					"t_uint256": {
						"encoding": "inplace",
						"label": "uint256",
						"numberOfBytes": "32"
					}
				}
			},
			"userdoc": {
				"kind": "user",
				"methods": {},
				"version": 1
			}
		}
	}
}