{
	"learningSolidity/advancedErrorHandling.sol": {
		"LearnErrorHandling": {
			"abi": [
				{
					"inputs": [],
					"name": "bringUmbrella",
					"outputs": [],
					"stateMutability": "nonpayable",
					"type": "function"
				},
				{
					"inputs": [],
					"name": "getCalc",
					"outputs": [
						{
							"internalType": "uint256",
							"name": "",
							"type": "uint256"
						}
					],
					"stateMutability": "view",
					"type": "function"
				},
				{
					"inputs": [],
					"name": "solarCalc",
					"outputs": [],
					"stateMutability": "nonpayable",
					"type": "function"
				},
				{
					"inputs": [],
					"name": "sunny",
					"outputs": [
						{
							"internalType": "bool",
							"name": "",
							"type": "bool"
						}
					],
					"stateMutability": "view",
					"type": "function"
				},
				{
					"inputs": [],
					"name": "umbrella",
					"outputs": [
						{
							"internalType": "bool",
							"name": "",
							"type": "bool"
						}
					],
					"stateMutability": "view",
					"type": "function"
				},
				{
					"inputs": [],
					"name": "weatherChanger",
					"outputs": [],
					"stateMutability": "nonpayable",
					"type": "function"
				}
			],
			"devdoc": {
				"kind": "dev",
				"methods": {},
				"version": 1
			},
			"evm": {
				"assembly": "    /* \"learningSolidity/advancedErrorHandling.sol\":71:680  contract LearnErrorHandling {... */\n  mstore(0x40, 0x80)\n    /* \"learningSolidity/advancedErrorHandling.sol\":125:129  true */\n  0x01\n    /* \"learningSolidity/advancedErrorHandling.sol\":105:129  bool public sunny = true */\n  0x00\n  exp(0x0100, 0x00)\n  dup2\n  sload\n  dup2\n  0xff\n  mul\n  not\n  and\n  swap1\n  dup4\n  iszero\n  iszero\n  mul\n  or\n  swap1\n  sstore\n  pop\n    /* \"learningSolidity/advancedErrorHandling.sol\":158:163  false */\n  0x00\n    /* \"learningSolidity/advancedErrorHandling.sol\":135:163  bool public umbrella = false */\n  0x00\n  exp(0x0100, 0x01)\n  dup2\n  sload\n  dup2\n  0xff\n  mul\n  not\n  and\n  swap1\n  dup4\n  iszero\n  iszero\n  mul\n  or\n  swap1\n  sstore\n  pop\n    /* \"learningSolidity/advancedErrorHandling.sol\":186:187  0 */\n  0x00\n    /* \"learningSolidity/advancedErrorHandling.sol\":169:187  uint finalCalc = 0 */\n  0x01\n  sstore\n    /* \"learningSolidity/advancedErrorHandling.sol\":71:680  contract LearnErrorHandling {... */\n  callvalue\n  dup1\n  iszero\n  tag_1\n  jumpi\n  revert(0x00, 0x00)\ntag_1:\n  pop\n  dataSize(sub_0)\n  dup1\n  dataOffset(sub_0)\n  0x00\n  codecopy\n  0x00\n  return\nstop\n\nsub_0: assembly {\n        /* \"learningSolidity/advancedErrorHandling.sol\":71:680  contract LearnErrorHandling {... */\n      mstore(0x40, 0x80)\n      callvalue\n      dup1\n      iszero\n      tag_1\n      jumpi\n      revert(0x00, 0x00)\n    tag_1:\n      pop\n      jumpi(tag_2, lt(calldatasize, 0x04))\n      shr(0xe0, calldataload(0x00))\n      dup1\n      0x66e811c6\n      eq\n      tag_3\n      jumpi\n      dup1\n      0x84914262\n      eq\n      tag_4\n      jumpi\n      dup1\n      0xab02dd7b\n      eq\n      tag_5\n      jumpi\n      dup1\n      0xc000dcdb\n      eq\n      tag_6\n      jumpi\n      dup1\n      0xe472c67c\n      eq\n      tag_7\n      jumpi\n      dup1\n      0xebaf0dca\n      eq\n      tag_8\n      jumpi\n    tag_2:\n      revert(0x00, 0x00)\n        /* \"learningSolidity/advancedErrorHandling.sol\":506:677  function bringUmbrella() public {... */\n    tag_3:\n      tag_9\n      tag_10\n      jump\t// in\n    tag_9:\n      stop\n        /* \"learningSolidity/advancedErrorHandling.sol\":135:163  bool public umbrella = false */\n    tag_4:\n      tag_11\n      tag_12\n      jump\t// in\n    tag_11:\n      mload(0x40)\n      tag_13\n      swap2\n      swap1\n      tag_14\n      jump\t// in\n    tag_13:\n      mload(0x40)\n      dup1\n      swap2\n      sub\n      swap1\n      return\n        /* \"learningSolidity/advancedErrorHandling.sol\":105:129  bool public sunny = true */\n    tag_5:\n      tag_15\n      tag_16\n      jump\t// in\n    tag_15:\n      mload(0x40)\n      tag_17\n      swap2\n      swap1\n      tag_14\n      jump\t// in\n    tag_17:\n      mload(0x40)\n      dup1\n      swap2\n      sub\n      swap1\n      return\n        /* \"learningSolidity/advancedErrorHandling.sol\":352:416  function weatherChanger() public {... */\n    tag_6:\n      tag_18\n      tag_19\n      jump\t// in\n    tag_18:\n      stop\n        /* \"learningSolidity/advancedErrorHandling.sol\":194:303  function solarCalc() public {... */\n    tag_7:\n      tag_20\n      tag_21\n      jump\t// in\n    tag_20:\n      stop\n        /* \"learningSolidity/advancedErrorHandling.sol\":422:500  function getCalc() public view returns(uint) {... */\n    tag_8:\n      tag_22\n      tag_23\n      jump\t// in\n    tag_22:\n      mload(0x40)\n      tag_24\n      swap2\n      swap1\n      tag_25\n      jump\t// in\n    tag_24:\n      mload(0x40)\n      dup1\n      swap2\n      sub\n      swap1\n      return\n        /* \"learningSolidity/advancedErrorHandling.sol\":506:677  function bringUmbrella() public {... */\n    tag_10:\n        /* \"learningSolidity/advancedErrorHandling.sol\":552:557  sunny */\n      0x00\n      0x00\n      swap1\n      sload\n      swap1\n      0x0100\n      exp\n      swap1\n      div\n      0xff\n      and\n        /* \"learningSolidity/advancedErrorHandling.sol\":548:671  if(!sunny) {... */\n      tag_27\n      jumpi\n        /* \"learningSolidity/advancedErrorHandling.sol\":584:588  true */\n      0x01\n        /* \"learningSolidity/advancedErrorHandling.sol\":573:581  umbrella */\n      0x00\n      0x01\n        /* \"learningSolidity/advancedErrorHandling.sol\":573:588  umbrella = true */\n      0x0100\n      exp\n      dup2\n      sload\n      dup2\n      0xff\n      mul\n      not\n      and\n      swap1\n      dup4\n      iszero\n      iszero\n      mul\n      or\n      swap1\n      sstore\n      pop\n        /* \"learningSolidity/advancedErrorHandling.sol\":548:671  if(!sunny) {... */\n      jump(tag_28)\n    tag_27:\n        /* \"learningSolidity/advancedErrorHandling.sol\":615:660  revert('No need to bring an umbrella today!') */\n      mload(0x40)\n      0x08c379a000000000000000000000000000000000000000000000000000000000\n      dup2\n      mstore\n      0x04\n      add\n      tag_29\n      swap1\n      tag_30\n      jump\t// in\n    tag_29:\n      mload(0x40)\n      dup1\n      swap2\n      sub\n      swap1\n      revert\n        /* \"learningSolidity/advancedErrorHandling.sol\":548:671  if(!sunny) {... */\n    tag_28:\n        /* \"learningSolidity/advancedErrorHandling.sol\":506:677  function bringUmbrella() public {... */\n      jump\t// out\n        /* \"learningSolidity/advancedErrorHandling.sol\":135:163  bool public umbrella = false */\n    tag_12:\n      0x00\n      0x01\n      swap1\n      sload\n      swap1\n      0x0100\n      exp\n      swap1\n      div\n      0xff\n      and\n      dup2\n      jump\t// out\n        /* \"learningSolidity/advancedErrorHandling.sol\":105:129  bool public sunny = true */\n    tag_16:\n      0x00\n      0x00\n      swap1\n      sload\n      swap1\n      0x0100\n      exp\n      swap1\n      div\n      0xff\n      and\n      dup2\n      jump\t// out\n        /* \"learningSolidity/advancedErrorHandling.sol\":352:416  function weatherChanger() public {... */\n    tag_19:\n        /* \"learningSolidity/advancedErrorHandling.sol\":404:409  sunny */\n      0x00\n      0x00\n      swap1\n      sload\n      swap1\n      0x0100\n      exp\n      swap1\n      div\n      0xff\n      and\n        /* \"learningSolidity/advancedErrorHandling.sol\":403:409  !sunny */\n      iszero\n        /* \"learningSolidity/advancedErrorHandling.sol\":395:400  sunny */\n      0x00\n      0x00\n        /* \"learningSolidity/advancedErrorHandling.sol\":395:409  sunny = !sunny */\n      0x0100\n      exp\n      dup2\n      sload\n      dup2\n      0xff\n      mul\n      not\n      and\n      swap1\n      dup4\n      iszero\n      iszero\n      mul\n      or\n      swap1\n      sstore\n      pop\n        /* \"learningSolidity/advancedErrorHandling.sol\":352:416  function weatherChanger() public {... */\n      jump\t// out\n        /* \"learningSolidity/advancedErrorHandling.sol\":194:303  function solarCalc() public {... */\n    tag_21:\n        /* \"learningSolidity/advancedErrorHandling.sol\":240:245  sunny */\n      0x00\n      0x00\n      swap1\n      sload\n      swap1\n      0x0100\n      exp\n      swap1\n      div\n      0xff\n      and\n        /* \"learningSolidity/advancedErrorHandling.sol\":232:272  require(sunny, 'It is not sunny today!') */\n      tag_33\n      jumpi\n      mload(0x40)\n      0x08c379a000000000000000000000000000000000000000000000000000000000\n      dup2\n      mstore\n      0x04\n      add\n      tag_34\n      swap1\n      tag_35\n      jump\t// in\n    tag_34:\n      mload(0x40)\n      dup1\n      swap2\n      sub\n      swap1\n      revert\n    tag_33:\n        /* \"learningSolidity/advancedErrorHandling.sol\":295:296  3 */\n      0x03\n        /* \"learningSolidity/advancedErrorHandling.sol\":282:291  finalCalc */\n      0x01\n      0x00\n        /* \"learningSolidity/advancedErrorHandling.sol\":282:296  finalCalc += 3 */\n      dup3\n      dup3\n      sload\n      tag_36\n      swap2\n      swap1\n      tag_37\n      jump\t// in\n    tag_36:\n      swap3\n      pop\n      pop\n      dup2\n      swap1\n      sstore\n      pop\n        /* \"learningSolidity/advancedErrorHandling.sol\":194:303  function solarCalc() public {... */\n      jump\t// out\n        /* \"learningSolidity/advancedErrorHandling.sol\":422:500  function getCalc() public view returns(uint) {... */\n    tag_23:\n        /* \"learningSolidity/advancedErrorHandling.sol\":461:465  uint */\n      0x00\n        /* \"learningSolidity/advancedErrorHandling.sol\":484:493  finalCalc */\n      sload(0x01)\n        /* \"learningSolidity/advancedErrorHandling.sol\":477:493  return finalCalc */\n      swap1\n      pop\n        /* \"learningSolidity/advancedErrorHandling.sol\":422:500  function getCalc() public view returns(uint) {... */\n      swap1\n      jump\t// out\n        /* \"#utility.yul\":7:97   */\n    tag_39:\n        /* \"#utility.yul\":41:48   */\n      0x00\n        /* \"#utility.yul\":84:89   */\n      dup2\n        /* \"#utility.yul\":77:90   */\n      iszero\n        /* \"#utility.yul\":70:91   */\n      iszero\n        /* \"#utility.yul\":59:91   */\n      swap1\n      pop\n        /* \"#utility.yul\":7:97   */\n      swap2\n      swap1\n      pop\n      jump\t// out\n        /* \"#utility.yul\":103:212   */\n    tag_40:\n        /* \"#utility.yul\":184:205   */\n      tag_52\n        /* \"#utility.yul\":199:204   */\n      dup2\n        /* \"#utility.yul\":184:205   */\n      tag_39\n      jump\t// in\n    tag_52:\n        /* \"#utility.yul\":179:182   */\n      dup3\n        /* \"#utility.yul\":172:206   */\n      mstore\n        /* \"#utility.yul\":103:212   */\n      pop\n      pop\n      jump\t// out\n        /* \"#utility.yul\":218:428   */\n    tag_14:\n        /* \"#utility.yul\":305:309   */\n      0x00\n        /* \"#utility.yul\":343:345   */\n      0x20\n        /* \"#utility.yul\":332:341   */\n      dup3\n        /* \"#utility.yul\":328:346   */\n      add\n        /* \"#utility.yul\":320:346   */\n      swap1\n      pop\n        /* \"#utility.yul\":356:421   */\n      tag_54\n        /* \"#utility.yul\":418:419   */\n      0x00\n        /* \"#utility.yul\":407:416   */\n      dup4\n        /* \"#utility.yul\":403:420   */\n      add\n        /* \"#utility.yul\":394:400   */\n      dup5\n        /* \"#utility.yul\":356:421   */\n      tag_40\n      jump\t// in\n    tag_54:\n        /* \"#utility.yul\":218:428   */\n      swap3\n      swap2\n      pop\n      pop\n      jump\t// out\n        /* \"#utility.yul\":434:511   */\n    tag_41:\n        /* \"#utility.yul\":471:478   */\n      0x00\n        /* \"#utility.yul\":500:505   */\n      dup2\n        /* \"#utility.yul\":489:505   */\n      swap1\n      pop\n        /* \"#utility.yul\":434:511   */\n      swap2\n      swap1\n      pop\n      jump\t// out\n        /* \"#utility.yul\":517:635   */\n    tag_42:\n        /* \"#utility.yul\":604:628   */\n      tag_57\n        /* \"#utility.yul\":622:627   */\n      dup2\n        /* \"#utility.yul\":604:628   */\n      tag_41\n      jump\t// in\n    tag_57:\n        /* \"#utility.yul\":599:602   */\n      dup3\n        /* \"#utility.yul\":592:629   */\n      mstore\n        /* \"#utility.yul\":517:635   */\n      pop\n      pop\n      jump\t// out\n        /* \"#utility.yul\":641:863   */\n    tag_25:\n        /* \"#utility.yul\":734:738   */\n      0x00\n        /* \"#utility.yul\":772:774   */\n      0x20\n        /* \"#utility.yul\":761:770   */\n      dup3\n        /* \"#utility.yul\":757:775   */\n      add\n        /* \"#utility.yul\":749:775   */\n      swap1\n      pop\n        /* \"#utility.yul\":785:856   */\n      tag_59\n        /* \"#utility.yul\":853:854   */\n      0x00\n        /* \"#utility.yul\":842:851   */\n      dup4\n        /* \"#utility.yul\":838:855   */\n      add\n        /* \"#utility.yul\":829:835   */\n      dup5\n        /* \"#utility.yul\":785:856   */\n      tag_42\n      jump\t// in\n    tag_59:\n        /* \"#utility.yul\":641:863   */\n      swap3\n      swap2\n      pop\n      pop\n      jump\t// out\n        /* \"#utility.yul\":869:1038   */\n    tag_43:\n        /* \"#utility.yul\":953:964   */\n      0x00\n        /* \"#utility.yul\":987:993   */\n      dup3\n        /* \"#utility.yul\":982:985   */\n      dup3\n        /* \"#utility.yul\":975:994   */\n      mstore\n        /* \"#utility.yul\":1027:1031   */\n      0x20\n        /* \"#utility.yul\":1022:1025   */\n      dup3\n        /* \"#utility.yul\":1018:1032   */\n      add\n        /* \"#utility.yul\":1003:1032   */\n      swap1\n      pop\n        /* \"#utility.yul\":869:1038   */\n      swap3\n      swap2\n      pop\n      pop\n      jump\t// out\n        /* \"#utility.yul\":1044:1266   */\n    tag_44:\n        /* \"#utility.yul\":1184:1218   */\n      0x4e6f206e65656420746f206272696e6720616e20756d6272656c6c6120746f64\n        /* \"#utility.yul\":1180:1181   */\n      0x00\n        /* \"#utility.yul\":1172:1178   */\n      dup3\n        /* \"#utility.yul\":1168:1182   */\n      add\n        /* \"#utility.yul\":1161:1219   */\n      mstore\n        /* \"#utility.yul\":1253:1258   */\n      0x6179210000000000000000000000000000000000000000000000000000000000\n        /* \"#utility.yul\":1248:1250   */\n      0x20\n        /* \"#utility.yul\":1240:1246   */\n      dup3\n        /* \"#utility.yul\":1236:1251   */\n      add\n        /* \"#utility.yul\":1229:1259   */\n      mstore\n        /* \"#utility.yul\":1044:1266   */\n      pop\n      jump\t// out\n        /* \"#utility.yul\":1272:1638   */\n    tag_45:\n        /* \"#utility.yul\":1414:1417   */\n      0x00\n        /* \"#utility.yul\":1435:1502   */\n      tag_63\n        /* \"#utility.yul\":1499:1501   */\n      0x23\n        /* \"#utility.yul\":1494:1497   */\n      dup4\n        /* \"#utility.yul\":1435:1502   */\n      tag_43\n      jump\t// in\n    tag_63:\n        /* \"#utility.yul\":1428:1502   */\n      swap2\n      pop\n        /* \"#utility.yul\":1511:1604   */\n      tag_64\n        /* \"#utility.yul\":1600:1603   */\n      dup3\n        /* \"#utility.yul\":1511:1604   */\n      tag_44\n      jump\t// in\n    tag_64:\n        /* \"#utility.yul\":1629:1631   */\n      0x40\n        /* \"#utility.yul\":1624:1627   */\n      dup3\n        /* \"#utility.yul\":1620:1632   */\n      add\n        /* \"#utility.yul\":1613:1632   */\n      swap1\n      pop\n        /* \"#utility.yul\":1272:1638   */\n      swap2\n      swap1\n      pop\n      jump\t// out\n        /* \"#utility.yul\":1644:2063   */\n    tag_30:\n        /* \"#utility.yul\":1810:1814   */\n      0x00\n        /* \"#utility.yul\":1848:1850   */\n      0x20\n        /* \"#utility.yul\":1837:1846   */\n      dup3\n        /* \"#utility.yul\":1833:1851   */\n      add\n        /* \"#utility.yul\":1825:1851   */\n      swap1\n      pop\n        /* \"#utility.yul\":1897:1906   */\n      dup2\n        /* \"#utility.yul\":1891:1895   */\n      dup2\n        /* \"#utility.yul\":1887:1907   */\n      sub\n        /* \"#utility.yul\":1883:1884   */\n      0x00\n        /* \"#utility.yul\":1872:1881   */\n      dup4\n        /* \"#utility.yul\":1868:1885   */\n      add\n        /* \"#utility.yul\":1861:1908   */\n      mstore\n        /* \"#utility.yul\":1925:2056   */\n      tag_66\n        /* \"#utility.yul\":2051:2055   */\n      dup2\n        /* \"#utility.yul\":1925:2056   */\n      tag_45\n      jump\t// in\n    tag_66:\n        /* \"#utility.yul\":1917:2056   */\n      swap1\n      pop\n        /* \"#utility.yul\":1644:2063   */\n      swap2\n      swap1\n      pop\n      jump\t// out\n        /* \"#utility.yul\":2069:2241   */\n    tag_46:\n        /* \"#utility.yul\":2209:2233   */\n      0x4974206973206e6f742073756e6e7920746f6461792100000000000000000000\n        /* \"#utility.yul\":2205:2206   */\n      0x00\n        /* \"#utility.yul\":2197:2203   */\n      dup3\n        /* \"#utility.yul\":2193:2207   */\n      add\n        /* \"#utility.yul\":2186:2234   */\n      mstore\n        /* \"#utility.yul\":2069:2241   */\n      pop\n      jump\t// out\n        /* \"#utility.yul\":2247:2613   */\n    tag_47:\n        /* \"#utility.yul\":2389:2392   */\n      0x00\n        /* \"#utility.yul\":2410:2477   */\n      tag_69\n        /* \"#utility.yul\":2474:2476   */\n      0x16\n        /* \"#utility.yul\":2469:2472   */\n      dup4\n        /* \"#utility.yul\":2410:2477   */\n      tag_43\n      jump\t// in\n    tag_69:\n        /* \"#utility.yul\":2403:2477   */\n      swap2\n      pop\n        /* \"#utility.yul\":2486:2579   */\n      tag_70\n        /* \"#utility.yul\":2575:2578   */\n      dup3\n        /* \"#utility.yul\":2486:2579   */\n      tag_46\n      jump\t// in\n    tag_70:\n        /* \"#utility.yul\":2604:2606   */\n      0x20\n        /* \"#utility.yul\":2599:2602   */\n      dup3\n        /* \"#utility.yul\":2595:2607   */\n      add\n        /* \"#utility.yul\":2588:2607   */\n      swap1\n      pop\n        /* \"#utility.yul\":2247:2613   */\n      swap2\n      swap1\n      pop\n      jump\t// out\n        /* \"#utility.yul\":2619:3038   */\n    tag_35:\n        /* \"#utility.yul\":2785:2789   */\n      0x00\n        /* \"#utility.yul\":2823:2825   */\n      0x20\n        /* \"#utility.yul\":2812:2821   */\n      dup3\n        /* \"#utility.yul\":2808:2826   */\n      add\n        /* \"#utility.yul\":2800:2826   */\n      swap1\n      pop\n        /* \"#utility.yul\":2872:2881   */\n      dup2\n        /* \"#utility.yul\":2866:2870   */\n      dup2\n        /* \"#utility.yul\":2862:2882   */\n      sub\n        /* \"#utility.yul\":2858:2859   */\n      0x00\n        /* \"#utility.yul\":2847:2856   */\n      dup4\n        /* \"#utility.yul\":2843:2860   */\n      add\n        /* \"#utility.yul\":2836:2883   */\n      mstore\n        /* \"#utility.yul\":2900:3031   */\n      tag_72\n        /* \"#utility.yul\":3026:3030   */\n      dup2\n        /* \"#utility.yul\":2900:3031   */\n      tag_47\n      jump\t// in\n    tag_72:\n        /* \"#utility.yul\":2892:3031   */\n      swap1\n      pop\n        /* \"#utility.yul\":2619:3038   */\n      swap2\n      swap1\n      pop\n      jump\t// out\n        /* \"#utility.yul\":3044:3224   */\n    tag_48:\n        /* \"#utility.yul\":3092:3169   */\n      0x4e487b7100000000000000000000000000000000000000000000000000000000\n        /* \"#utility.yul\":3089:3090   */\n      0x00\n        /* \"#utility.yul\":3082:3170   */\n      mstore\n        /* \"#utility.yul\":3189:3193   */\n      0x11\n        /* \"#utility.yul\":3186:3187   */\n      0x04\n        /* \"#utility.yul\":3179:3194   */\n      mstore\n        /* \"#utility.yul\":3213:3217   */\n      0x24\n        /* \"#utility.yul\":3210:3211   */\n      0x00\n        /* \"#utility.yul\":3203:3218   */\n      revert\n        /* \"#utility.yul\":3230:3421   */\n    tag_37:\n        /* \"#utility.yul\":3270:3273   */\n      0x00\n        /* \"#utility.yul\":3289:3309   */\n      tag_75\n        /* \"#utility.yul\":3307:3308   */\n      dup3\n        /* \"#utility.yul\":3289:3309   */\n      tag_41\n      jump\t// in\n    tag_75:\n        /* \"#utility.yul\":3284:3309   */\n      swap2\n      pop\n        /* \"#utility.yul\":3323:3343   */\n      tag_76\n        /* \"#utility.yul\":3341:3342   */\n      dup4\n        /* \"#utility.yul\":3323:3343   */\n      tag_41\n      jump\t// in\n    tag_76:\n        /* \"#utility.yul\":3318:3343   */\n      swap3\n      pop\n        /* \"#utility.yul\":3366:3367   */\n      dup3\n        /* \"#utility.yul\":3363:3364   */\n      dup3\n        /* \"#utility.yul\":3359:3368   */\n      add\n        /* \"#utility.yul\":3352:3368   */\n      swap1\n      pop\n        /* \"#utility.yul\":3387:3390   */\n      dup1\n        /* \"#utility.yul\":3384:3385   */\n      dup3\n        /* \"#utility.yul\":3381:3391   */\n      gt\n        /* \"#utility.yul\":3378:3414   */\n      iszero\n      tag_77\n      jumpi\n        /* \"#utility.yul\":3394:3412   */\n      tag_78\n      tag_48\n      jump\t// in\n    tag_78:\n        /* \"#utility.yul\":3378:3414   */\n    tag_77:\n        /* \"#utility.yul\":3230:3421   */\n      swap3\n      swap2\n      pop\n      pop\n      jump\t// out\n\n    auxdata: 0xa264697066735822122016acaa75cab2b98781f7aca3a0c920bfdc5c498d7c19bc7db19fb8e2765d4c3764736f6c634300081e0033\n}\n",
				"bytecode": {
					"linkReferences": {},
					"object": "608060405260015f5f6101000a81548160ff0219169083151502179055505f5f60016101000a81548160ff0219169083151502179055505f6001553480156044575f5ffd5b50610406806100525f395ff3fe608060405234801561000f575f5ffd5b5060043610610060575f3560e01c806366e811c614610064578063849142621461006e578063ab02dd7b1461008c578063c000dcdb146100aa578063e472c67c146100b4578063ebaf0dca146100be575b5f5ffd5b61006c6100dc565b005b61007661014a565b6040516100839190610220565b60405180910390f35b61009461015c565b6040516100a19190610220565b60405180910390f35b6100b261016d565b005b6100bc610195565b005b6100c66101fd565b6040516100d39190610251565b60405180910390f35b5f5f9054906101000a900460ff1661010d5760015f60016101000a81548160ff021916908315150217905550610148565b6040517f08c379a000000000000000000000000000000000000000000000000000000000815260040161013f906102ea565b60405180910390fd5b565b5f60019054906101000a900460ff1681565b5f5f9054906101000a900460ff1681565b5f5f9054906101000a900460ff16155f5f6101000a81548160ff021916908315150217905550565b5f5f9054906101000a900460ff166101e2576040517f08c379a00000000000000000000000000000000000000000000000000000000081526004016101d990610352565b60405180910390fd5b600360015f8282546101f4919061039d565b92505081905550565b5f600154905090565b5f8115159050919050565b61021a81610206565b82525050565b5f6020820190506102335f830184610211565b92915050565b5f819050919050565b61024b81610239565b82525050565b5f6020820190506102645f830184610242565b92915050565b5f82825260208201905092915050565b7f4e6f206e65656420746f206272696e6720616e20756d6272656c6c6120746f645f8201527f6179210000000000000000000000000000000000000000000000000000000000602082015250565b5f6102d460238361026a565b91506102df8261027a565b604082019050919050565b5f6020820190508181035f830152610301816102c8565b9050919050565b7f4974206973206e6f742073756e6e7920746f64617921000000000000000000005f82015250565b5f61033c60168361026a565b915061034782610308565b602082019050919050565b5f6020820190508181035f83015261036981610330565b9050919050565b7f4e487b71000000000000000000000000000000000000000000000000000000005f52601160045260245ffd5b5f6103a782610239565b91506103b283610239565b92508282019050808211156103ca576103c9610370565b5b9291505056fea264697066735822122016acaa75cab2b98781f7aca3a0c920bfdc5c498d7c19bc7db19fb8e2765d4c3764736f6c634300081e0033",
					"opcodes": "PUSH1 0x80 PUSH1 0x40 MSTORE PUSH1 0x1 PUSH0 PUSH0 PUSH2 0x100 EXP DUP2 SLOAD DUP2 PUSH1 0xFF MUL NOT AND SWAP1 DUP4 ISZERO ISZERO MUL OR SWAP1 SSTORE POP PUSH0 PUSH0 PUSH1 0x1 PUSH2 0x100 EXP DUP2 SLOAD DUP2 PUSH1 0xFF MUL NOT AND SWAP1 DUP4 ISZERO ISZERO MUL OR SWAP1 SSTORE POP PUSH0 PUSH1 0x1 SSTORE CALLVALUE DUP1 ISZERO PUSH1 0x44 JUMPI PUSH0 PUSH0 REVERT JUMPDEST POP PUSH2 0x406 DUP1 PUSH2 0x52 PUSH0 CODECOPY PUSH0 RETURN INVALID PUSH1 0x80 PUSH1 0x40 MSTORE CALLVALUE DUP1 ISZERO PUSH2 0xF JUMPI PUSH0 PUSH0 REVERT JUMPDEST POP PUSH1 0x4 CALLDATASIZE LT PUSH2 0x60 JUMPI PUSH0 CALLDATALOAD PUSH1 0xE0 SHR DUP1 PUSH4 0x66E811C6 EQ PUSH2 0x64 JUMPI DUP1 PUSH4 0x84914262 EQ PUSH2 0x6E JUMPI DUP1 PUSH4 0xAB02DD7B EQ PUSH2 0x8C JUMPI DUP1 PUSH4 0xC000DCDB EQ PUSH2 0xAA JUMPI DUP1 PUSH4 0xE472C67C EQ PUSH2 0xB4 JUMPI DUP1 PUSH4 0xEBAF0DCA EQ PUSH2 0xBE JUMPI JUMPDEST PUSH0 PUSH0 REVERT JUMPDEST PUSH2 0x6C PUSH2 0xDC JUMP JUMPDEST STOP JUMPDEST PUSH2 0x76 PUSH2 0x14A JUMP JUMPDEST PUSH1 0x40 MLOAD PUSH2 0x83 SWAP2 SWAP1 PUSH2 0x220 JUMP JUMPDEST PUSH1 0x40 MLOAD DUP1 SWAP2 SUB SWAP1 RETURN JUMPDEST PUSH2 0x94 PUSH2 0x15C JUMP JUMPDEST PUSH1 0x40 MLOAD PUSH2 0xA1 SWAP2 SWAP1 PUSH2 0x220 JUMP JUMPDEST PUSH1 0x40 MLOAD DUP1 SWAP2 SUB SWAP1 RETURN JUMPDEST PUSH2 0xB2 PUSH2 0x16D JUMP JUMPDEST STOP JUMPDEST PUSH2 0xBC PUSH2 0x195 JUMP JUMPDEST STOP JUMPDEST PUSH2 0xC6 PUSH2 0x1FD JUMP JUMPDEST PUSH1 0x40 MLOAD PUSH2 0xD3 SWAP2 SWAP1 PUSH2 0x251 JUMP JUMPDEST PUSH1 0x40 MLOAD DUP1 SWAP2 SUB SWAP1 RETURN JUMPDEST PUSH0 PUSH0 SWAP1 SLOAD SWAP1 PUSH2 0x100 EXP SWAP1 DIV PUSH1 0xFF AND PUSH2 0x10D JUMPI PUSH1 0x1 PUSH0 PUSH1 0x1 PUSH2 0x100 EXP DUP2 SLOAD DUP2 PUSH1 0xFF MUL NOT AND SWAP1 DUP4 ISZERO ISZERO MUL OR SWAP1 SSTORE POP PUSH2 0x148 JUMP JUMPDEST PUSH1 0x40 MLOAD PUSH32 0x8C379A000000000000000000000000000000000000000000000000000000000 DUP2 MSTORE PUSH1 0x4 ADD PUSH2 0x13F SWAP1 PUSH2 0x2EA JUMP JUMPDEST PUSH1 0x40 MLOAD DUP1 SWAP2 SUB SWAP1 REVERT JUMPDEST JUMP JUMPDEST PUSH0 PUSH1 0x1 SWAP1 SLOAD SWAP1 PUSH2 0x100 EXP SWAP1 DIV PUSH1 0xFF AND DUP2 JUMP JUMPDEST PUSH0 PUSH0 SWAP1 SLOAD SWAP1 PUSH2 0x100 EXP SWAP1 DIV PUSH1 0xFF AND DUP2 JUMP JUMPDEST PUSH0 PUSH0 SWAP1 SLOAD SWAP1 PUSH2 0x100 EXP SWAP1 DIV PUSH1 0xFF AND ISZERO PUSH0 PUSH0 PUSH2 0x100 EXP DUP2 SLOAD DUP2 PUSH1 0xFF MUL NOT AND SWAP1 DUP4 ISZERO ISZERO MUL OR SWAP1 SSTORE POP JUMP JUMPDEST PUSH0 PUSH0 SWAP1 SLOAD SWAP1 PUSH2 0x100 EXP SWAP1 DIV PUSH1 0xFF AND PUSH2 0x1E2 JUMPI PUSH1 0x40 MLOAD PUSH32 0x8C379A000000000000000000000000000000000000000000000000000000000 DUP2 MSTORE PUSH1 0x4 ADD PUSH2 0x1D9 SWAP1 PUSH2 0x352 JUMP JUMPDEST PUSH1 0x40 MLOAD DUP1 SWAP2 SUB SWAP1 REVERT JUMPDEST PUSH1 0x3 PUSH1 0x1 PUSH0 DUP3 DUP3 SLOAD PUSH2 0x1F4 SWAP2 SWAP1 PUSH2 0x39D JUMP JUMPDEST SWAP3 POP POP DUP2 SWAP1 SSTORE POP JUMP JUMPDEST PUSH0 PUSH1 0x1 SLOAD SWAP1 POP SWAP1 JUMP JUMPDEST PUSH0 DUP2 ISZERO ISZERO SWAP1 POP SWAP2 SWAP1 POP JUMP JUMPDEST PUSH2 0x21A DUP2 PUSH2 0x206 JUMP JUMPDEST DUP3 MSTORE POP POP JUMP JUMPDEST PUSH0 PUSH1 0x20 DUP3 ADD SWAP1 POP PUSH2 0x233 PUSH0 DUP4 ADD DUP5 PUSH2 0x211 JUMP JUMPDEST SWAP3 SWAP2 POP POP JUMP JUMPDEST PUSH0 DUP2 SWAP1 POP SWAP2 SWAP1 POP JUMP JUMPDEST PUSH2 0x24B DUP2 PUSH2 0x239 JUMP JUMPDEST DUP3 MSTORE POP POP JUMP JUMPDEST PUSH0 PUSH1 0x20 DUP3 ADD SWAP1 POP PUSH2 0x264 PUSH0 DUP4 ADD DUP5 PUSH2 0x242 JUMP JUMPDEST SWAP3 SWAP2 POP POP JUMP JUMPDEST PUSH0 DUP3 DUP3 MSTORE PUSH1 0x20 DUP3 ADD SWAP1 POP SWAP3 SWAP2 POP POP JUMP JUMPDEST PUSH32 0x4E6F206E65656420746F206272696E6720616E20756D6272656C6C6120746F64 PUSH0 DUP3 ADD MSTORE PUSH32 0x6179210000000000000000000000000000000000000000000000000000000000 PUSH1 0x20 DUP3 ADD MSTORE POP JUMP JUMPDEST PUSH0 PUSH2 0x2D4 PUSH1 0x23 DUP4 PUSH2 0x26A JUMP JUMPDEST SWAP2 POP PUSH2 0x2DF DUP3 PUSH2 0x27A JUMP JUMPDEST PUSH1 0x40 DUP3 ADD SWAP1 POP SWAP2 SWAP1 POP JUMP JUMPDEST PUSH0 PUSH1 0x20 DUP3 ADD SWAP1 POP DUP2 DUP2 SUB PUSH0 DUP4 ADD MSTORE PUSH2 0x301 DUP2 PUSH2 0x2C8 JUMP JUMPDEST SWAP1 POP SWAP2 SWAP1 POP JUMP JUMPDEST PUSH32 0x4974206973206E6F742073756E6E7920746F6461792100000000000000000000 PUSH0 DUP3 ADD MSTORE POP JUMP JUMPDEST PUSH0 PUSH2 0x33C PUSH1 0x16 DUP4 PUSH2 0x26A JUMP JUMPDEST SWAP2 POP PUSH2 0x347 DUP3 PUSH2 0x308 JUMP JUMPDEST PUSH1 0x20 DUP3 ADD SWAP1 POP SWAP2 SWAP1 POP JUMP JUMPDEST PUSH0 PUSH1 0x20 DUP3 ADD SWAP1 POP DUP2 DUP2 SUB PUSH0 DUP4 ADD MSTORE PUSH2 0x369 DUP2 PUSH2 0x330 JUMP JUMPDEST SWAP1 POP SWAP2 SWAP1 POP JUMP JUMPDEST PUSH32 0x4E487B7100000000000000000000000000000000000000000000000000000000 PUSH0 MSTORE PUSH1 0x11 PUSH1 0x4 MSTORE PUSH1 0x24 PUSH0 REVERT JUMPDEST PUSH0 PUSH2 0x3A7 DUP3 PUSH2 0x239 JUMP JUMPDEST SWAP2 POP PUSH2 0x3B2 DUP4 PUSH2 0x239 JUMP JUMPDEST SWAP3 POP DUP3 DUP3 ADD SWAP1 POP DUP1 DUP3 GT ISZERO PUSH2 0x3CA JUMPI PUSH2 0x3C9 PUSH2 0x370 JUMP JUMPDEST JUMPDEST SWAP3 SWAP2 POP POP JUMP INVALID LOG2 PUSH5 0x6970667358 0x22 SLT KECCAK256 AND 0xAC 0xAA PUSH22 0xCAB2B98781F7ACA3A0C920BFDC5C498D7C19BC7DB19F 0xB8 0xE2 PUSH23 0x5D4C3764736F6C634300081E0033000000000000000000 "
				},
				"gasEstimates": {
					"creation": {
						"codeDepositCost": "206000",
						"executionCost": "53834",
						"totalCost": "259834"
					},
					"external": {
						"bringUmbrella()": "26599",
						"getCalc()": "2520",
						"solarCalc()": "infinite",
						"sunny()": "2487",
						"umbrella()": "2516",
						"weatherChanger()": "26589"
					}
				},
				"methodIdentifiers": {
					"bringUmbrella()": "66e811c6",
					"getCalc()": "ebaf0dca",
					"solarCalc()": "e472c67c",
					"sunny()": "ab02dd7b",
					"umbrella()": "84914262",
					"weatherChanger()": "c000dcdb"
				}
			},
			"storageLayout": {
				"storage": [
					{
						"astId": 4,
						"contract": "learningSolidity/advancedErrorHandling.sol:LearnErrorHandling",
						"label": "sunny",
						"offset": 0,
						"slot": "0",
						"type": "t_bool"
					},
					{
						"astId": 7,
						"contract": "learningSolidity/advancedErrorHandling.sol:LearnErrorHandling",
						"label": "umbrella",
						"offset": 1,
						"slot": "0",
						"type": "t_bool"
					},
					{
						"astId": 10,
						"contract": "learningSolidity/advancedErrorHandling.sol:LearnErrorHandling",
						"label": "finalCalc",
						"offset": 0,
						"slot": "1",
						"type": "t_uint256"
					}
				],
				"types": {
					"t_bool": {
						"encoding": "inplace",
						"label": "bool",
						"numberOfBytes": "1"
					},
					"t_uint256": {
						"encoding": "inplace",
						"label": "uint256",
						"numberOfBytes": "32"
					}
				}
			},
			"userdoc": {
				"kind": "user",
				"methods": {},
				"version": 1
			}
		}
	}
}