{
	"learningSolidity/contractVisibility.sol": {
		"E": {
			"abi": [
				{
					"inputs": [],
					"stateMutability": "nonpayable",
					"type": "constructor"
				},
				{
					"inputs": [],
					"name": "getComputedResult",
					"outputs": [],
					"stateMutability": "nonpayable",
					"type": "function"
				},
				{
					"inputs": [],
					"name": "getData",
					"outputs": [
						{
							"internalType": "uint256",
							"name": "",
							"type": "uint256"
						}
					],
					"stateMutability": "view",
					"type": "function"
				},
				{
					"inputs": [],
					"name": "getNewInfo",
					"outputs": [
						{
							"internalType": "uint256",
							"name": "",
							"type": "uint256"
						}
					],
					"stateMutability": "view",
					"type": "function"
				},
				{
					"inputs": [],
					"name": "getResult",
					"outputs": [
						{
							"internalType": "uint256",
							"name": "",
							"type": "uint256"
						}
					],
					"stateMutability": "view",
					"type": "function"
				},
				{
					"inputs": [],
					"name": "info",
					"outputs": [
						{
							"internalType": "uint256",
							"name": "",
							"type": "uint256"
						}
					],
					"stateMutability": "view",
					"type": "function"
				},
				{
					"inputs": [
						{
							"internalType": "uint256",
							"name": "a",
							"type": "uint256"
						}
					],
					"name": "updateData",
					"outputs": [],
					"stateMutability": "nonpayable",
					"type": "function"
				}
			],
			"devdoc": {
				"kind": "dev",
				"methods": {},
				"version": 1
			},
			"evm": {
				"assembly": "    /* \"learningSolidity/contractVisibility.sol\":1624:1985  contract E is C {... */\n  mstore(0x40, 0x80)\n    /* \"learningSolidity/contractVisibility.sol\":1690:1732  constructor() {... */\n  callvalue\n  dup1\n  iszero\n  tag_1\n  jumpi\n  revert(0x00, 0x00)\ntag_1:\n  pop\n    /* \"learningSolidity/contractVisibility.sol\":1220:1222  10 */\n  0x0a\n    /* \"learningSolidity/contractVisibility.sol\":1213:1217  info */\n  0x01\n    /* \"learningSolidity/contractVisibility.sol\":1213:1222  info = 10 */\n  dup2\n  swap1\n  sstore\n  pop\n    /* \"learningSolidity/contractVisibility.sol\":1718:1725  new C() */\n  mload(0x40)\n  tag_6\n  swap1\n  tag_7\n  jump\t// in\ntag_6:\n  mload(0x40)\n  dup1\n  swap2\n  sub\n  swap1\n  0x00\n  create\n  dup1\n  iszero\n  dup1\n  iszero\n  tag_8\n  jumpi\n  returndatacopy(0x00, 0x00, returndatasize)\n  revert(0x00, returndatasize)\ntag_8:\n  pop\n    /* \"learningSolidity/contractVisibility.sol\":1714:1715  c */\n  0x03\n  0x00\n    /* \"learningSolidity/contractVisibility.sol\":1714:1725  c = new C() */\n  0x0100\n  exp\n  dup2\n  sload\n  dup2\n  0xffffffffffffffffffffffffffffffffffffffff\n  mul\n  not\n  and\n  swap1\n  dup4\n  0xffffffffffffffffffffffffffffffffffffffff\n  and\n  mul\n  or\n  swap1\n  sstore\n  pop\n    /* \"learningSolidity/contractVisibility.sol\":1624:1985  contract E is C {... */\n  jump(tag_9)\ntag_7:\n  dataSize(sub_1)\n  dup1\n  dataOffset(sub_1)\n  dup4\n  codecopy\n  add\n  swap1\n  jump\t// out\ntag_9:\n  dataSize(sub_0)\n  dup1\n  dataOffset(sub_0)\n  0x00\n  codecopy\n  0x00\n  return\nstop\n\nsub_0: assembly {\n        /* \"learningSolidity/contractVisibility.sol\":1624:1985  contract E is C {... */\n      mstore(0x40, 0x80)\n      callvalue\n      dup1\n      iszero\n      tag_1\n      jumpi\n      revert(0x00, 0x00)\n    tag_1:\n      pop\n      jumpi(tag_2, lt(calldatasize, 0x04))\n      shr(0xe0, calldataload(0x00))\n      dup1\n      0x09e96008\n      eq\n      tag_3\n      jumpi\n      dup1\n      0x370158ea\n      eq\n      tag_4\n      jumpi\n      dup1\n      0x3bc5de30\n      eq\n      tag_5\n      jumpi\n      dup1\n      0x43eea6e9\n      eq\n      tag_6\n      jumpi\n      dup1\n      0x632f644d\n      eq\n      tag_7\n      jumpi\n      dup1\n      0xde292789\n      eq\n      tag_8\n      jumpi\n    tag_2:\n      revert(0x00, 0x00)\n        /* \"learningSolidity/contractVisibility.sol\":1311:1357  function updateData(uint a) public {data = a;} */\n    tag_3:\n      tag_9\n      0x04\n      dup1\n      calldatasize\n      sub\n      dup2\n      add\n      swap1\n      tag_10\n      swap2\n      swap1\n      tag_11\n      jump\t// in\n    tag_10:\n      tag_12\n      jump\t// in\n    tag_9:\n      stop\n        /* \"learningSolidity/contractVisibility.sol\":1166:1182  uint public info */\n    tag_4:\n      tag_13\n      tag_14\n      jump\t// in\n    tag_13:\n      mload(0x40)\n      tag_15\n      swap2\n      swap1\n      tag_16\n      jump\t// in\n    tag_15:\n      mload(0x40)\n      dup1\n      swap2\n      sub\n      swap1\n      return\n        /* \"learningSolidity/contractVisibility.sol\":1362:1421  function getData() view public returns(uint) {return data;} */\n    tag_5:\n      tag_17\n      tag_18\n      jump\t// in\n    tag_17:\n      mload(0x40)\n      tag_19\n      swap2\n      swap1\n      tag_16\n      jump\t// in\n    tag_19:\n      mload(0x40)\n      dup1\n      swap2\n      sub\n      swap1\n      return\n        /* \"learningSolidity/contractVisibility.sol\":1738:1814  function getComputedResult() public {... */\n    tag_6:\n      tag_20\n      tag_21\n      jump\t// in\n    tag_20:\n      stop\n        /* \"learningSolidity/contractVisibility.sol\":1903:1982  function getNewInfo() public view returns(uint){... */\n    tag_7:\n      tag_22\n      tag_23\n      jump\t// in\n    tag_22:\n      mload(0x40)\n      tag_24\n      swap2\n      swap1\n      tag_16\n      jump\t// in\n    tag_24:\n      mload(0x40)\n      dup1\n      swap2\n      sub\n      swap1\n      return\n        /* \"learningSolidity/contractVisibility.sol\":1820:1897  function getResult() public view returns(uint) {... */\n    tag_8:\n      tag_25\n      tag_26\n      jump\t// in\n    tag_25:\n      mload(0x40)\n      tag_27\n      swap2\n      swap1\n      tag_16\n      jump\t// in\n    tag_27:\n      mload(0x40)\n      dup1\n      swap2\n      sub\n      swap1\n      return\n        /* \"learningSolidity/contractVisibility.sol\":1311:1357  function updateData(uint a) public {data = a;} */\n    tag_12:\n        /* \"learningSolidity/contractVisibility.sol\":1354:1355  a */\n      dup1\n        /* \"learningSolidity/contractVisibility.sol\":1347:1351  data */\n      0x00\n        /* \"learningSolidity/contractVisibility.sol\":1347:1355  data = a */\n      dup2\n      swap1\n      sstore\n      pop\n        /* \"learningSolidity/contractVisibility.sol\":1311:1357  function updateData(uint a) public {data = a;} */\n      pop\n      jump\t// out\n        /* \"learningSolidity/contractVisibility.sol\":1166:1182  uint public info */\n    tag_14:\n      sload(0x01)\n      dup2\n      jump\t// out\n        /* \"learningSolidity/contractVisibility.sol\":1362:1421  function getData() view public returns(uint) {return data;} */\n    tag_18:\n        /* \"learningSolidity/contractVisibility.sol\":1401:1405  uint */\n      0x00\n        /* \"learningSolidity/contractVisibility.sol\":1415:1419  data */\n      sload(0x00)\n        /* \"learningSolidity/contractVisibility.sol\":1408:1419  return data */\n      swap1\n      pop\n        /* \"learningSolidity/contractVisibility.sol\":1362:1421  function getData() view public returns(uint) {return data;} */\n      swap1\n      jump\t// out\n        /* \"learningSolidity/contractVisibility.sol\":1738:1814  function getComputedResult() public {... */\n    tag_21:\n        /* \"learningSolidity/contractVisibility.sol\":1793:1807  compute(23, 5) */\n      tag_31\n        /* \"learningSolidity/contractVisibility.sol\":1801:1803  23 */\n      0x17\n        /* \"learningSolidity/contractVisibility.sol\":1805:1806  5 */\n      0x05\n        /* \"learningSolidity/contractVisibility.sol\":1793:1800  compute */\n      tag_32\n        /* \"learningSolidity/contractVisibility.sol\":1793:1807  compute(23, 5) */\n      jump\t// in\n    tag_31:\n        /* \"learningSolidity/contractVisibility.sol\":1784:1790  result */\n      0x02\n        /* \"learningSolidity/contractVisibility.sol\":1784:1807  result = compute(23, 5) */\n      dup2\n      swap1\n      sstore\n      pop\n        /* \"learningSolidity/contractVisibility.sol\":1738:1814  function getComputedResult() public {... */\n      jump\t// out\n        /* \"learningSolidity/contractVisibility.sol\":1903:1982  function getNewInfo() public view returns(uint){... */\n    tag_23:\n        /* \"learningSolidity/contractVisibility.sol\":1945:1949  uint */\n      0x00\n        /* \"learningSolidity/contractVisibility.sol\":1967:1968  c */\n      0x03\n      0x00\n      swap1\n      sload\n      swap1\n      0x0100\n      exp\n      swap1\n      div\n      0xffffffffffffffffffffffffffffffffffffffff\n      and\n        /* \"learningSolidity/contractVisibility.sol\":1967:1973  c.info */\n      0xffffffffffffffffffffffffffffffffffffffff\n      and\n      0x370158ea\n        /* \"learningSolidity/contractVisibility.sol\":1967:1975  c.info() */\n      mload(0x40)\n      dup2\n      0xffffffff\n      and\n      0xe0\n      shl\n      dup2\n      mstore\n      0x04\n      add\n      0x20\n      mload(0x40)\n      dup1\n      dup4\n      sub\n      dup2\n      dup7\n      gas\n      staticcall\n      iszero\n      dup1\n      iszero\n      tag_35\n      jumpi\n      returndatacopy(0x00, 0x00, returndatasize)\n      revert(0x00, returndatasize)\n    tag_35:\n      pop\n      pop\n      pop\n      pop\n      mload(0x40)\n      returndatasize\n      not(0x1f)\n      0x1f\n      dup3\n      add\n      and\n      dup3\n      add\n      dup1\n      0x40\n      mstore\n      pop\n      dup2\n      add\n      swap1\n      tag_36\n      swap2\n      swap1\n      tag_37\n      jump\t// in\n    tag_36:\n        /* \"learningSolidity/contractVisibility.sol\":1960:1975  return c.info() */\n      swap1\n      pop\n        /* \"learningSolidity/contractVisibility.sol\":1903:1982  function getNewInfo() public view returns(uint){... */\n      swap1\n      jump\t// out\n        /* \"learningSolidity/contractVisibility.sol\":1820:1897  function getResult() public view returns(uint) {... */\n    tag_26:\n        /* \"learningSolidity/contractVisibility.sol\":1861:1865  uint */\n      0x00\n        /* \"learningSolidity/contractVisibility.sol\":1884:1890  result */\n      sload(0x02)\n        /* \"learningSolidity/contractVisibility.sol\":1877:1890  return result */\n      swap1\n      pop\n        /* \"learningSolidity/contractVisibility.sol\":1820:1897  function getResult() public view returns(uint) {... */\n      swap1\n      jump\t// out\n        /* \"learningSolidity/contractVisibility.sol\":1426:1502  function compute(uint a, uint b) pure internal returns(uint) {return a + b;} */\n    tag_32:\n        /* \"learningSolidity/contractVisibility.sol\":1481:1485  uint */\n      0x00\n        /* \"learningSolidity/contractVisibility.sol\":1499:1500  b */\n      dup2\n        /* \"learningSolidity/contractVisibility.sol\":1495:1496  a */\n      dup4\n        /* \"learningSolidity/contractVisibility.sol\":1495:1500  a + b */\n      tag_40\n      swap2\n      swap1\n      tag_41\n      jump\t// in\n    tag_40:\n        /* \"learningSolidity/contractVisibility.sol\":1488:1500  return a + b */\n      swap1\n      pop\n        /* \"learningSolidity/contractVisibility.sol\":1426:1502  function compute(uint a, uint b) pure internal returns(uint) {return a + b;} */\n      swap3\n      swap2\n      pop\n      pop\n      jump\t// out\n        /* \"#utility.yul\":88:205   */\n    tag_43:\n        /* \"#utility.yul\":197:198   */\n      0x00\n        /* \"#utility.yul\":194:195   */\n      0x00\n        /* \"#utility.yul\":187:199   */\n      revert\n        /* \"#utility.yul\":334:411   */\n    tag_45:\n        /* \"#utility.yul\":371:378   */\n      0x00\n        /* \"#utility.yul\":400:405   */\n      dup2\n        /* \"#utility.yul\":389:405   */\n      swap1\n      pop\n        /* \"#utility.yul\":334:411   */\n      swap2\n      swap1\n      pop\n      jump\t// out\n        /* \"#utility.yul\":417:539   */\n    tag_46:\n        /* \"#utility.yul\":490:514   */\n      tag_57\n        /* \"#utility.yul\":508:513   */\n      dup2\n        /* \"#utility.yul\":490:514   */\n      tag_45\n      jump\t// in\n    tag_57:\n        /* \"#utility.yul\":483:488   */\n      dup2\n        /* \"#utility.yul\":480:515   */\n      eq\n        /* \"#utility.yul\":470:533   */\n      tag_58\n      jumpi\n        /* \"#utility.yul\":529:530   */\n      0x00\n        /* \"#utility.yul\":526:527   */\n      0x00\n        /* \"#utility.yul\":519:531   */\n      revert\n        /* \"#utility.yul\":470:533   */\n    tag_58:\n        /* \"#utility.yul\":417:539   */\n      pop\n      jump\t// out\n        /* \"#utility.yul\":545:684   */\n    tag_47:\n        /* \"#utility.yul\":591:596   */\n      0x00\n        /* \"#utility.yul\":629:635   */\n      dup2\n        /* \"#utility.yul\":616:636   */\n      calldataload\n        /* \"#utility.yul\":607:636   */\n      swap1\n      pop\n        /* \"#utility.yul\":645:678   */\n      tag_60\n        /* \"#utility.yul\":672:677   */\n      dup2\n        /* \"#utility.yul\":645:678   */\n      tag_46\n      jump\t// in\n    tag_60:\n        /* \"#utility.yul\":545:684   */\n      swap3\n      swap2\n      pop\n      pop\n      jump\t// out\n        /* \"#utility.yul\":690:1019   */\n    tag_11:\n        /* \"#utility.yul\":749:755   */\n      0x00\n        /* \"#utility.yul\":798:800   */\n      0x20\n        /* \"#utility.yul\":786:795   */\n      dup3\n        /* \"#utility.yul\":777:784   */\n      dup5\n        /* \"#utility.yul\":773:796   */\n      sub\n        /* \"#utility.yul\":769:801   */\n      slt\n        /* \"#utility.yul\":766:885   */\n      iszero\n      tag_62\n      jumpi\n        /* \"#utility.yul\":804:883   */\n      tag_63\n      tag_43\n      jump\t// in\n    tag_63:\n        /* \"#utility.yul\":766:885   */\n    tag_62:\n        /* \"#utility.yul\":924:925   */\n      0x00\n        /* \"#utility.yul\":949:1002   */\n      tag_64\n        /* \"#utility.yul\":994:1001   */\n      dup5\n        /* \"#utility.yul\":985:991   */\n      dup3\n        /* \"#utility.yul\":974:983   */\n      dup6\n        /* \"#utility.yul\":970:992   */\n      add\n        /* \"#utility.yul\":949:1002   */\n      tag_47\n      jump\t// in\n    tag_64:\n        /* \"#utility.yul\":939:1002   */\n      swap2\n      pop\n        /* \"#utility.yul\":895:1012   */\n      pop\n        /* \"#utility.yul\":690:1019   */\n      swap3\n      swap2\n      pop\n      pop\n      jump\t// out\n        /* \"#utility.yul\":1025:1143   */\n    tag_48:\n        /* \"#utility.yul\":1112:1136   */\n      tag_66\n        /* \"#utility.yul\":1130:1135   */\n      dup2\n        /* \"#utility.yul\":1112:1136   */\n      tag_45\n      jump\t// in\n    tag_66:\n        /* \"#utility.yul\":1107:1110   */\n      dup3\n        /* \"#utility.yul\":1100:1137   */\n      mstore\n        /* \"#utility.yul\":1025:1143   */\n      pop\n      pop\n      jump\t// out\n        /* \"#utility.yul\":1149:1371   */\n    tag_16:\n        /* \"#utility.yul\":1242:1246   */\n      0x00\n        /* \"#utility.yul\":1280:1282   */\n      0x20\n        /* \"#utility.yul\":1269:1278   */\n      dup3\n        /* \"#utility.yul\":1265:1283   */\n      add\n        /* \"#utility.yul\":1257:1283   */\n      swap1\n      pop\n        /* \"#utility.yul\":1293:1364   */\n      tag_68\n        /* \"#utility.yul\":1361:1362   */\n      0x00\n        /* \"#utility.yul\":1350:1359   */\n      dup4\n        /* \"#utility.yul\":1346:1363   */\n      add\n        /* \"#utility.yul\":1337:1343   */\n      dup5\n        /* \"#utility.yul\":1293:1364   */\n      tag_48\n      jump\t// in\n    tag_68:\n        /* \"#utility.yul\":1149:1371   */\n      swap3\n      swap2\n      pop\n      pop\n      jump\t// out\n        /* \"#utility.yul\":1377:1520   */\n    tag_49:\n        /* \"#utility.yul\":1434:1439   */\n      0x00\n        /* \"#utility.yul\":1465:1471   */\n      dup2\n        /* \"#utility.yul\":1459:1472   */\n      mload\n        /* \"#utility.yul\":1450:1472   */\n      swap1\n      pop\n        /* \"#utility.yul\":1481:1514   */\n      tag_70\n        /* \"#utility.yul\":1508:1513   */\n      dup2\n        /* \"#utility.yul\":1481:1514   */\n      tag_46\n      jump\t// in\n    tag_70:\n        /* \"#utility.yul\":1377:1520   */\n      swap3\n      swap2\n      pop\n      pop\n      jump\t// out\n        /* \"#utility.yul\":1526:1877   */\n    tag_37:\n        /* \"#utility.yul\":1596:1602   */\n      0x00\n        /* \"#utility.yul\":1645:1647   */\n      0x20\n        /* \"#utility.yul\":1633:1642   */\n      dup3\n        /* \"#utility.yul\":1624:1631   */\n      dup5\n        /* \"#utility.yul\":1620:1643   */\n      sub\n        /* \"#utility.yul\":1616:1648   */\n      slt\n        /* \"#utility.yul\":1613:1732   */\n      iszero\n      tag_72\n      jumpi\n        /* \"#utility.yul\":1651:1730   */\n      tag_73\n      tag_43\n      jump\t// in\n    tag_73:\n        /* \"#utility.yul\":1613:1732   */\n    tag_72:\n        /* \"#utility.yul\":1771:1772   */\n      0x00\n        /* \"#utility.yul\":1796:1860   */\n      tag_74\n        /* \"#utility.yul\":1852:1859   */\n      dup5\n        /* \"#utility.yul\":1843:1849   */\n      dup3\n        /* \"#utility.yul\":1832:1841   */\n      dup6\n        /* \"#utility.yul\":1828:1850   */\n      add\n        /* \"#utility.yul\":1796:1860   */\n      tag_49\n      jump\t// in\n    tag_74:\n        /* \"#utility.yul\":1786:1860   */\n      swap2\n      pop\n        /* \"#utility.yul\":1742:1870   */\n      pop\n        /* \"#utility.yul\":1526:1877   */\n      swap3\n      swap2\n      pop\n      pop\n      jump\t// out\n        /* \"#utility.yul\":1883:2063   */\n    tag_50:\n        /* \"#utility.yul\":1931:2008   */\n      0x4e487b7100000000000000000000000000000000000000000000000000000000\n        /* \"#utility.yul\":1928:1929   */\n      0x00\n        /* \"#utility.yul\":1921:2009   */\n      mstore\n        /* \"#utility.yul\":2028:2032   */\n      0x11\n        /* \"#utility.yul\":2025:2026   */\n      0x04\n        /* \"#utility.yul\":2018:2033   */\n      mstore\n        /* \"#utility.yul\":2052:2056   */\n      0x24\n        /* \"#utility.yul\":2049:2050   */\n      0x00\n        /* \"#utility.yul\":2042:2057   */\n      revert\n        /* \"#utility.yul\":2069:2260   */\n    tag_41:\n        /* \"#utility.yul\":2109:2112   */\n      0x00\n        /* \"#utility.yul\":2128:2148   */\n      tag_77\n        /* \"#utility.yul\":2146:2147   */\n      dup3\n        /* \"#utility.yul\":2128:2148   */\n      tag_45\n      jump\t// in\n    tag_77:\n        /* \"#utility.yul\":2123:2148   */\n      swap2\n      pop\n        /* \"#utility.yul\":2162:2182   */\n      tag_78\n        /* \"#utility.yul\":2180:2181   */\n      dup4\n        /* \"#utility.yul\":2162:2182   */\n      tag_45\n      jump\t// in\n    tag_78:\n        /* \"#utility.yul\":2157:2182   */\n      swap3\n      pop\n        /* \"#utility.yul\":2205:2206   */\n      dup3\n        /* \"#utility.yul\":2202:2203   */\n      dup3\n        /* \"#utility.yul\":2198:2207   */\n      add\n        /* \"#utility.yul\":2191:2207   */\n      swap1\n      pop\n        /* \"#utility.yul\":2226:2229   */\n      dup1\n        /* \"#utility.yul\":2223:2224   */\n      dup3\n        /* \"#utility.yul\":2220:2230   */\n      gt\n        /* \"#utility.yul\":2217:2253   */\n      iszero\n      tag_79\n      jumpi\n        /* \"#utility.yul\":2233:2251   */\n      tag_80\n      tag_50\n      jump\t// in\n    tag_80:\n        /* \"#utility.yul\":2217:2253   */\n    tag_79:\n        /* \"#utility.yul\":2069:2260   */\n      swap3\n      swap2\n      pop\n      pop\n      jump\t// out\n\n    auxdata: 0xa2646970667358221220dd3d98e1142431625f7d2952532c4eccc8a758d0547e2d3cd9679e78d3e23c0b64736f6c634300081e0033\n}\n\nsub_1: assembly {\n        /* \"learningSolidity/contractVisibility.sol\":1126:1504  contract C {... */\n      mstore(0x40, 0x80)\n        /* \"learningSolidity/contractVisibility.sol\":1189:1229  constructor() {... */\n      callvalue\n      dup1\n      iszero\n      tag_1\n      jumpi\n      revert(0x00, 0x00)\n    tag_1:\n      pop\n        /* \"learningSolidity/contractVisibility.sol\":1220:1222  10 */\n      0x0a\n        /* \"learningSolidity/contractVisibility.sol\":1213:1217  info */\n      0x01\n        /* \"learningSolidity/contractVisibility.sol\":1213:1222  info = 10 */\n      dup2\n      swap1\n      sstore\n      pop\n        /* \"learningSolidity/contractVisibility.sol\":1126:1504  contract C {... */\n      dataSize(sub_0)\n      dup1\n      dataOffset(sub_0)\n      0x00\n      codecopy\n      0x00\n      return\n    stop\n\n    sub_0: assembly {\n            /* \"learningSolidity/contractVisibility.sol\":1126:1504  contract C {... */\n          mstore(0x40, 0x80)\n          callvalue\n          dup1\n          iszero\n          tag_1\n          jumpi\n          revert(0x00, 0x00)\n        tag_1:\n          pop\n          jumpi(tag_2, lt(calldatasize, 0x04))\n          shr(0xe0, calldataload(0x00))\n          dup1\n          0x09e96008\n          eq\n          tag_3\n          jumpi\n          dup1\n          0x370158ea\n          eq\n          tag_4\n          jumpi\n          dup1\n          0x3bc5de30\n          eq\n          tag_5\n          jumpi\n        tag_2:\n          revert(0x00, 0x00)\n            /* \"learningSolidity/contractVisibility.sol\":1311:1357  function updateData(uint a) public {data = a;} */\n        tag_3:\n          tag_6\n          0x04\n          dup1\n          calldatasize\n          sub\n          dup2\n          add\n          swap1\n          tag_7\n          swap2\n          swap1\n          tag_8\n          jump\t// in\n        tag_7:\n          tag_9\n          jump\t// in\n        tag_6:\n          stop\n            /* \"learningSolidity/contractVisibility.sol\":1166:1182  uint public info */\n        tag_4:\n          tag_10\n          tag_11\n          jump\t// in\n        tag_10:\n          mload(0x40)\n          tag_12\n          swap2\n          swap1\n          tag_13\n          jump\t// in\n        tag_12:\n          mload(0x40)\n          dup1\n          swap2\n          sub\n          swap1\n          return\n            /* \"learningSolidity/contractVisibility.sol\":1362:1421  function getData() view public returns(uint) {return data;} */\n        tag_5:\n          tag_14\n          tag_15\n          jump\t// in\n        tag_14:\n          mload(0x40)\n          tag_16\n          swap2\n          swap1\n          tag_13\n          jump\t// in\n        tag_16:\n          mload(0x40)\n          dup1\n          swap2\n          sub\n          swap1\n          return\n            /* \"learningSolidity/contractVisibility.sol\":1311:1357  function updateData(uint a) public {data = a;} */\n        tag_9:\n            /* \"learningSolidity/contractVisibility.sol\":1354:1355  a */\n          dup1\n            /* \"learningSolidity/contractVisibility.sol\":1347:1351  data */\n          0x00\n            /* \"learningSolidity/contractVisibility.sol\":1347:1355  data = a */\n          dup2\n          swap1\n          sstore\n          pop\n            /* \"learningSolidity/contractVisibility.sol\":1311:1357  function updateData(uint a) public {data = a;} */\n          pop\n          jump\t// out\n            /* \"learningSolidity/contractVisibility.sol\":1166:1182  uint public info */\n        tag_11:\n          sload(0x01)\n          dup2\n          jump\t// out\n            /* \"learningSolidity/contractVisibility.sol\":1362:1421  function getData() view public returns(uint) {return data;} */\n        tag_15:\n            /* \"learningSolidity/contractVisibility.sol\":1401:1405  uint */\n          0x00\n            /* \"learningSolidity/contractVisibility.sol\":1415:1419  data */\n          sload(0x00)\n            /* \"learningSolidity/contractVisibility.sol\":1408:1419  return data */\n          swap1\n          pop\n            /* \"learningSolidity/contractVisibility.sol\":1362:1421  function getData() view public returns(uint) {return data;} */\n          swap1\n          jump\t// out\n            /* \"#utility.yul\":88:205   */\n        tag_20:\n            /* \"#utility.yul\":197:198   */\n          0x00\n            /* \"#utility.yul\":194:195   */\n          0x00\n            /* \"#utility.yul\":187:199   */\n          revert\n            /* \"#utility.yul\":334:411   */\n        tag_22:\n            /* \"#utility.yul\":371:378   */\n          0x00\n            /* \"#utility.yul\":400:405   */\n          dup2\n            /* \"#utility.yul\":389:405   */\n          swap1\n          pop\n            /* \"#utility.yul\":334:411   */\n          swap2\n          swap1\n          pop\n          jump\t// out\n            /* \"#utility.yul\":417:539   */\n        tag_23:\n            /* \"#utility.yul\":490:514   */\n          tag_32\n            /* \"#utility.yul\":508:513   */\n          dup2\n            /* \"#utility.yul\":490:514   */\n          tag_22\n          jump\t// in\n        tag_32:\n            /* \"#utility.yul\":483:488   */\n          dup2\n            /* \"#utility.yul\":480:515   */\n          eq\n            /* \"#utility.yul\":470:533   */\n          tag_33\n          jumpi\n            /* \"#utility.yul\":529:530   */\n          0x00\n            /* \"#utility.yul\":526:527   */\n          0x00\n            /* \"#utility.yul\":519:531   */\n          revert\n            /* \"#utility.yul\":470:533   */\n        tag_33:\n            /* \"#utility.yul\":417:539   */\n          pop\n          jump\t// out\n            /* \"#utility.yul\":545:684   */\n        tag_24:\n            /* \"#utility.yul\":591:596   */\n          0x00\n            /* \"#utility.yul\":629:635   */\n          dup2\n            /* \"#utility.yul\":616:636   */\n          calldataload\n            /* \"#utility.yul\":607:636   */\n          swap1\n          pop\n            /* \"#utility.yul\":645:678   */\n          tag_35\n            /* \"#utility.yul\":672:677   */\n          dup2\n            /* \"#utility.yul\":645:678   */\n          tag_23\n          jump\t// in\n        tag_35:\n            /* \"#utility.yul\":545:684   */\n          swap3\n          swap2\n          pop\n          pop\n          jump\t// out\n            /* \"#utility.yul\":690:1019   */\n        tag_8:\n            /* \"#utility.yul\":749:755   */\n          0x00\n            /* \"#utility.yul\":798:800   */\n          0x20\n            /* \"#utility.yul\":786:795   */\n          dup3\n            /* \"#utility.yul\":777:784   */\n          dup5\n            /* \"#utility.yul\":773:796   */\n          sub\n            /* \"#utility.yul\":769:801   */\n          slt\n            /* \"#utility.yul\":766:885   */\n          iszero\n          tag_37\n          jumpi\n            /* \"#utility.yul\":804:883   */\n          tag_38\n          tag_20\n          jump\t// in\n        tag_38:\n            /* \"#utility.yul\":766:885   */\n        tag_37:\n            /* \"#utility.yul\":924:925   */\n          0x00\n            /* \"#utility.yul\":949:1002   */\n          tag_39\n            /* \"#utility.yul\":994:1001   */\n          dup5\n            /* \"#utility.yul\":985:991   */\n          dup3\n            /* \"#utility.yul\":974:983   */\n          dup6\n            /* \"#utility.yul\":970:992   */\n          add\n            /* \"#utility.yul\":949:1002   */\n          tag_24\n          jump\t// in\n        tag_39:\n            /* \"#utility.yul\":939:1002   */\n          swap2\n          pop\n            /* \"#utility.yul\":895:1012   */\n          pop\n            /* \"#utility.yul\":690:1019   */\n          swap3\n          swap2\n          pop\n          pop\n          jump\t// out\n            /* \"#utility.yul\":1025:1143   */\n        tag_25:\n            /* \"#utility.yul\":1112:1136   */\n          tag_41\n            /* \"#utility.yul\":1130:1135   */\n          dup2\n            /* \"#utility.yul\":1112:1136   */\n          tag_22\n          jump\t// in\n        tag_41:\n            /* \"#utility.yul\":1107:1110   */\n          dup3\n            /* \"#utility.yul\":1100:1137   */\n          mstore\n            /* \"#utility.yul\":1025:1143   */\n          pop\n          pop\n          jump\t// out\n            /* \"#utility.yul\":1149:1371   */\n        tag_13:\n            /* \"#utility.yul\":1242:1246   */\n          0x00\n            /* \"#utility.yul\":1280:1282   */\n          0x20\n            /* \"#utility.yul\":1269:1278   */\n          dup3\n            /* \"#utility.yul\":1265:1283   */\n          add\n            /* \"#utility.yul\":1257:1283   */\n          swap1\n          pop\n            /* \"#utility.yul\":1293:1364   */\n          tag_43\n            /* \"#utility.yul\":1361:1362   */\n          0x00\n            /* \"#utility.yul\":1350:1359   */\n          dup4\n            /* \"#utility.yul\":1346:1363   */\n          add\n            /* \"#utility.yul\":1337:1343   */\n          dup5\n            /* \"#utility.yul\":1293:1364   */\n          tag_25\n          jump\t// in\n        tag_43:\n            /* \"#utility.yul\":1149:1371   */\n          swap3\n          swap2\n          pop\n          pop\n          jump\t// out\n\n        auxdata: 0xa264697066735822122042c0e6572408ac7de8979663e76b3ee8d982282d737aa8d04bfb8eca461f9c2f64736f6c634300081e0033\n    }\n}\n",
				"bytecode": {
					"linkReferences": {},
					"object": "6080604052348015600e575f5ffd5b50600a600181905550604051602190607d565b604051809103905ff0801580156039573d5f5f3e3d5ffd5b5060035f6101000a81548173ffffffffffffffffffffffffffffffffffffffff021916908373ffffffffffffffffffffffffffffffffffffffff160217905550608a565b610196806103d583390190565b61033e806100975f395ff3fe608060405234801561000f575f5ffd5b5060043610610060575f3560e01c806309e9600814610064578063370158ea146100805780633bc5de301461009e57806343eea6e9146100bc578063632f644d146100c6578063de292789146100e4575b5f5ffd5b61007e60048036038101906100799190610216565b610102565b005b61008861010b565b6040516100959190610250565b60405180910390f35b6100a6610111565b6040516100b39190610250565b60405180910390f35b6100c4610119565b005b6100ce61012d565b6040516100db9190610250565b60405180910390f35b6100ec6101c1565b6040516100f99190610250565b60405180910390f35b805f8190555050565b60015481565b5f5f54905090565b610125601760056101ca565b600281905550565b5f60035f9054906101000a900473ffffffffffffffffffffffffffffffffffffffff1673ffffffffffffffffffffffffffffffffffffffff1663370158ea6040518163ffffffff1660e01b8152600401602060405180830381865afa158015610198573d5f5f3e3d5ffd5b505050506040513d601f19601f820116820180604052508101906101bc919061027d565b905090565b5f600254905090565b5f81836101d791906102d5565b905092915050565b5f5ffd5b5f819050919050565b6101f5816101e3565b81146101ff575f5ffd5b50565b5f81359050610210816101ec565b92915050565b5f6020828403121561022b5761022a6101df565b5b5f61023884828501610202565b91505092915050565b61024a816101e3565b82525050565b5f6020820190506102635f830184610241565b92915050565b5f81519050610277816101ec565b92915050565b5f60208284031215610292576102916101df565b5b5f61029f84828501610269565b91505092915050565b7f4e487b71000000000000000000000000000000000000000000000000000000005f52601160045260245ffd5b5f6102df826101e3565b91506102ea836101e3565b9250828201905080821115610302576103016102a8565b5b9291505056fea2646970667358221220dd3d98e1142431625f7d2952532c4eccc8a758d0547e2d3cd9679e78d3e23c0b64736f6c634300081e00336080604052348015600e575f5ffd5b50600a600181905550610172806100245f395ff3fe608060405234801561000f575f5ffd5b506004361061003f575f3560e01c806309e9600814610043578063370158ea1461005f5780633bc5de301461007d575b5f5ffd5b61005d600480360381019061005891906100e9565b61009b565b005b6100676100a4565b6040516100749190610123565b60405180910390f35b6100856100aa565b6040516100929190610123565b60405180910390f35b805f8190555050565b60015481565b5f5f54905090565b5f5ffd5b5f819050919050565b6100c8816100b6565b81146100d2575f5ffd5b50565b5f813590506100e3816100bf565b92915050565b5f602082840312156100fe576100fd6100b2565b5b5f61010b848285016100d5565b91505092915050565b61011d816100b6565b82525050565b5f6020820190506101365f830184610114565b9291505056fea264697066735822122042c0e6572408ac7de8979663e76b3ee8d982282d737aa8d04bfb8eca461f9c2f64736f6c634300081e0033",
					"opcodes": "PUSH1 0x80 PUSH1 0x40 MSTORE CALLVALUE DUP1 ISZERO PUSH1 0xE JUMPI PUSH0 PUSH0 REVERT JUMPDEST POP PUSH1 0xA PUSH1 0x1 DUP2 SWAP1 SSTORE POP PUSH1 0x40 MLOAD PUSH1 0x21 SWAP1 PUSH1 0x7D JUMP JUMPDEST PUSH1 0x40 MLOAD DUP1 SWAP2 SUB SWAP1 PUSH0 CREATE DUP1 ISZERO DUP1 ISZERO PUSH1 0x39 JUMPI RETURNDATASIZE PUSH0 PUSH0 RETURNDATACOPY RETURNDATASIZE PUSH0 REVERT JUMPDEST POP PUSH1 0x3 PUSH0 PUSH2 0x100 EXP DUP2 SLOAD DUP2 PUSH20 0xFFFFFFFFFFFFFFFFFFFFFFFFFFFFFFFFFFFFFFFF MUL NOT AND SWAP1 DUP4 PUSH20 0xFFFFFFFFFFFFFFFFFFFFFFFFFFFFFFFFFFFFFFFF AND MUL OR SWAP1 SSTORE POP PUSH1 0x8A JUMP JUMPDEST PUSH2 0x196 DUP1 PUSH2 0x3D5 DUP4 CODECOPY ADD SWAP1 JUMP JUMPDEST PUSH2 0x33E DUP1 PUSH2 0x97 PUSH0 CODECOPY PUSH0 RETURN INVALID PUSH1 0x80 PUSH1 0x40 MSTORE CALLVALUE DUP1 ISZERO PUSH2 0xF JUMPI PUSH0 PUSH0 REVERT JUMPDEST POP PUSH1 0x4 CALLDATASIZE LT PUSH2 0x60 JUMPI PUSH0 CALLDATALOAD PUSH1 0xE0 SHR DUP1 PUSH4 0x9E96008 EQ PUSH2 0x64 JUMPI DUP1 PUSH4 0x370158EA EQ PUSH2 0x80 JUMPI DUP1 PUSH4 0x3BC5DE30 EQ PUSH2 0x9E JUMPI DUP1 PUSH4 0x43EEA6E9 EQ PUSH2 0xBC JUMPI DUP1 PUSH4 0x632F644D EQ PUSH2 0xC6 JUMPI DUP1 PUSH4 0xDE292789 EQ PUSH2 0xE4 JUMPI JUMPDEST PUSH0 PUSH0 REVERT JUMPDEST PUSH2 0x7E PUSH1 0x4 DUP1 CALLDATASIZE SUB DUP2 ADD SWAP1 PUSH2 0x79 SWAP2 SWAP1 PUSH2 0x216 JUMP JUMPDEST PUSH2 0x102 JUMP JUMPDEST STOP JUMPDEST PUSH2 0x88 PUSH2 0x10B JUMP JUMPDEST PUSH1 0x40 MLOAD PUSH2 0x95 SWAP2 SWAP1 PUSH2 0x250 JUMP JUMPDEST PUSH1 0x40 MLOAD DUP1 SWAP2 SUB SWAP1 RETURN JUMPDEST PUSH2 0xA6 PUSH2 0x111 JUMP JUMPDEST PUSH1 0x40 MLOAD PUSH2 0xB3 SWAP2 SWAP1 PUSH2 0x250 JUMP JUMPDEST PUSH1 0x40 MLOAD DUP1 SWAP2 SUB SWAP1 RETURN JUMPDEST PUSH2 0xC4 PUSH2 0x119 JUMP JUMPDEST STOP JUMPDEST PUSH2 0xCE PUSH2 0x12D JUMP JUMPDEST PUSH1 0x40 MLOAD PUSH2 0xDB SWAP2 SWAP1 PUSH2 0x250 JUMP JUMPDEST PUSH1 0x40 MLOAD DUP1 SWAP2 SUB SWAP1 RETURN JUMPDEST PUSH2 0xEC PUSH2 0x1C1 JUMP JUMPDEST PUSH1 0x40 MLOAD PUSH2 0xF9 SWAP2 SWAP1 PUSH2 0x250 JUMP JUMPDEST PUSH1 0x40 MLOAD DUP1 SWAP2 SUB SWAP1 RETURN JUMPDEST DUP1 PUSH0 DUP2 SWAP1 SSTORE POP POP JUMP JUMPDEST PUSH1 0x1 SLOAD DUP2 JUMP JUMPDEST PUSH0 PUSH0 SLOAD SWAP1 POP SWAP1 JUMP JUMPDEST PUSH2 0x125 PUSH1 0x17 PUSH1 0x5 PUSH2 0x1CA JUMP JUMPDEST PUSH1 0x2 DUP2 SWAP1 SSTORE POP JUMP JUMPDEST PUSH0 PUSH1 0x3 PUSH0 SWAP1 SLOAD SWAP1 PUSH2 0x100 EXP SWAP1 DIV PUSH20 0xFFFFFFFFFFFFFFFFFFFFFFFFFFFFFFFFFFFFFFFF AND PUSH20 0xFFFFFFFFFFFFFFFFFFFFFFFFFFFFFFFFFFFFFFFF AND PUSH4 0x370158EA PUSH1 0x40 MLOAD DUP2 PUSH4 0xFFFFFFFF AND PUSH1 0xE0 SHL DUP2 MSTORE PUSH1 0x4 ADD PUSH1 0x20 PUSH1 0x40 MLOAD DUP1 DUP4 SUB DUP2 DUP7 GAS STATICCALL ISZERO DUP1 ISZERO PUSH2 0x198 JUMPI RETURNDATASIZE PUSH0 PUSH0 RETURNDATACOPY RETURNDATASIZE PUSH0 REVERT JUMPDEST POP POP POP POP PUSH1 0x40 MLOAD RETURNDATASIZE PUSH1 0x1F NOT PUSH1 0x1F DUP3 ADD AND DUP3 ADD DUP1 PUSH1 0x40 MSTORE POP DUP2 ADD SWAP1 PUSH2 0x1BC SWAP2 SWAP1 PUSH2 0x27D JUMP JUMPDEST SWAP1 POP SWAP1 JUMP JUMPDEST PUSH0 PUSH1 0x2 SLOAD SWAP1 POP SWAP1 JUMP JUMPDEST PUSH0 DUP2 DUP4 PUSH2 0x1D7 SWAP2 SWAP1 PUSH2 0x2D5 JUMP JUMPDEST SWAP1 POP SWAP3 SWAP2 POP POP JUMP JUMPDEST PUSH0 PUSH0 REVERT JUMPDEST PUSH0 DUP2 SWAP1 POP SWAP2 SWAP1 POP JUMP JUMPDEST PUSH2 0x1F5 DUP2 PUSH2 0x1E3 JUMP JUMPDEST DUP2 EQ PUSH2 0x1FF JUMPI PUSH0 PUSH0 REVERT JUMPDEST POP JUMP JUMPDEST PUSH0 DUP2 CALLDATALOAD SWAP1 POP PUSH2 0x210 DUP2 PUSH2 0x1EC JUMP JUMPDEST SWAP3 SWAP2 POP POP JUMP JUMPDEST PUSH0 PUSH1 0x20 DUP3 DUP5 SUB SLT ISZERO PUSH2 0x22B JUMPI PUSH2 0x22A PUSH2 0x1DF JUMP JUMPDEST JUMPDEST PUSH0 PUSH2 0x238 DUP5 DUP3 DUP6 ADD PUSH2 0x202 JUMP JUMPDEST SWAP2 POP POP SWAP3 SWAP2 POP POP JUMP JUMPDEST PUSH2 0x24A DUP2 PUSH2 0x1E3 JUMP JUMPDEST DUP3 MSTORE POP POP JUMP JUMPDEST PUSH0 PUSH1 0x20 DUP3 ADD SWAP1 POP PUSH2 0x263 PUSH0 DUP4 ADD DUP5 PUSH2 0x241 JUMP JUMPDEST SWAP3 SWAP2 POP POP JUMP JUMPDEST PUSH0 DUP2 MLOAD SWAP1 POP PUSH2 0x277 DUP2 PUSH2 0x1EC JUMP JUMPDEST SWAP3 SWAP2 POP POP JUMP JUMPDEST PUSH0 PUSH1 0x20 DUP3 DUP5 SUB SLT ISZERO PUSH2 0x292 JUMPI PUSH2 0x291 PUSH2 0x1DF JUMP JUMPDEST JUMPDEST PUSH0 PUSH2 0x29F DUP5 DUP3 DUP6 ADD PUSH2 0x269 JUMP JUMPDEST SWAP2 POP POP SWAP3 SWAP2 POP POP JUMP JUMPDEST PUSH32 0x4E487B7100000000000000000000000000000000000000000000000000000000 PUSH0 MSTORE PUSH1 0x11 PUSH1 0x4 MSTORE PUSH1 0x24 PUSH0 REVERT JUMPDEST PUSH0 PUSH2 0x2DF DUP3 PUSH2 0x1E3 JUMP JUMPDEST SWAP2 POP PUSH2 0x2EA DUP4 PUSH2 0x1E3 JUMP JUMPDEST SWAP3 POP DUP3 DUP3 ADD SWAP1 POP DUP1 DUP3 GT ISZERO PUSH2 0x302 JUMPI PUSH2 0x301 PUSH2 0x2A8 JUMP JUMPDEST JUMPDEST SWAP3 SWAP2 POP POP JUMP INVALID LOG2 PUSH5 0x6970667358 0x22 SLT KECCAK256 0xDD RETURNDATASIZE SWAP9 RJUMPI 0x1424 BALANCE PUSH3 0x5F7D29 MSTORE MSTORE8 0x2C 0x4E 0xCC 0xC8 0xA7 PC 0xD0 SLOAD PUSH31 0x2D3CD9679E78D3E23C0B64736F6C634300081E00336080604052348015600E JUMPI PUSH0 PUSH0 REVERT JUMPDEST POP PUSH1 0xA PUSH1 0x1 DUP2 SWAP1 SSTORE POP PUSH2 0x172 DUP1 PUSH2 0x24 PUSH0 CODECOPY PUSH0 RETURN INVALID PUSH1 0x80 PUSH1 0x40 MSTORE CALLVALUE DUP1 ISZERO PUSH2 0xF JUMPI PUSH0 PUSH0 REVERT JUMPDEST POP PUSH1 0x4 CALLDATASIZE LT PUSH2 0x3F JUMPI PUSH0 CALLDATALOAD PUSH1 0xE0 SHR DUP1 PUSH4 0x9E96008 EQ PUSH2 0x43 JUMPI DUP1 PUSH4 0x370158EA EQ PUSH2 0x5F JUMPI DUP1 PUSH4 0x3BC5DE30 EQ PUSH2 0x7D JUMPI JUMPDEST PUSH0 PUSH0 REVERT JUMPDEST PUSH2 0x5D PUSH1 0x4 DUP1 CALLDATASIZE SUB DUP2 ADD SWAP1 PUSH2 0x58 SWAP2 SWAP1 PUSH2 0xE9 JUMP JUMPDEST PUSH2 0x9B JUMP JUMPDEST STOP JUMPDEST PUSH2 0x67 PUSH2 0xA4 JUMP JUMPDEST PUSH1 0x40 MLOAD PUSH2 0x74 SWAP2 SWAP1 PUSH2 0x123 JUMP JUMPDEST PUSH1 0x40 MLOAD DUP1 SWAP2 SUB SWAP1 RETURN JUMPDEST PUSH2 0x85 PUSH2 0xAA JUMP JUMPDEST PUSH1 0x40 MLOAD PUSH2 0x92 SWAP2 SWAP1 PUSH2 0x123 JUMP JUMPDEST PUSH1 0x40 MLOAD DUP1 SWAP2 SUB SWAP1 RETURN JUMPDEST DUP1 PUSH0 DUP2 SWAP1 SSTORE POP POP JUMP JUMPDEST PUSH1 0x1 SLOAD DUP2 JUMP JUMPDEST PUSH0 PUSH0 SLOAD SWAP1 POP SWAP1 JUMP JUMPDEST PUSH0 PUSH0 REVERT JUMPDEST PUSH0 DUP2 SWAP1 POP SWAP2 SWAP1 POP JUMP JUMPDEST PUSH2 0xC8 DUP2 PUSH2 0xB6 JUMP JUMPDEST DUP2 EQ PUSH2 0xD2 JUMPI PUSH0 PUSH0 REVERT JUMPDEST POP JUMP JUMPDEST PUSH0 DUP2 CALLDATALOAD SWAP1 POP PUSH2 0xE3 DUP2 PUSH2 0xBF JUMP JUMPDEST SWAP3 SWAP2 POP POP JUMP JUMPDEST PUSH0 PUSH1 0x20 DUP3 DUP5 SUB SLT ISZERO PUSH2 0xFE JUMPI PUSH2 0xFD PUSH2 0xB2 JUMP JUMPDEST JUMPDEST PUSH0 PUSH2 0x10B DUP5 DUP3 DUP6 ADD PUSH2 0xD5 JUMP JUMPDEST SWAP2 POP POP SWAP3 SWAP2 POP POP JUMP JUMPDEST PUSH2 0x11D DUP2 PUSH2 0xB6 JUMP JUMPDEST DUP3 MSTORE POP POP JUMP JUMPDEST PUSH0 PUSH1 0x20 DUP3 ADD SWAP1 POP PUSH2 0x136 PUSH0 DUP4 ADD DUP5 PUSH2 0x114 JUMP JUMPDEST SWAP3 SWAP2 POP POP JUMP INVALID LOG2 PUSH5 0x6970667358 0x22 SLT KECCAK256 TIMESTAMP 0xC0 DUPN 0x57 0x24 ADDMOD 0xAC PUSH30 0xE8979663E76B3EE8D982282D737AA8D04BFB8ECA461F9C2F64736F6C6343 STOP ADDMOD 0x1E STOP CALLER "
				},
				"gasEstimates": {
					"creation": {
						"codeDepositCost": "166000",
						"executionCost": "infinite",
						"totalCost": "infinite"
					},
					"external": {
						"getComputedResult()": "infinite",
						"getData()": "2453",
						"getNewInfo()": "infinite",
						"getResult()": "2520",
						"info()": "2425",
						"updateData(uint256)": "22492"
					}
				},
				"methodIdentifiers": {
					"getComputedResult()": "43eea6e9",
					"getData()": "3bc5de30",
					"getNewInfo()": "632f644d",
					"getResult()": "de292789",
					"info()": "370158ea",
					"updateData(uint256)": "09e96008"
				}
			},
			"storageLayout": {
				"storage": [
					{
						"astId": 3,
						"contract": "learningSolidity/contractVisibility.sol:E",
						"label": "data",
						"offset": 0,
						"slot": "0",
						"type": "t_uint256"
					},
					{
						"astId": 5,
						"contract": "learningSolidity/contractVisibility.sol:E",
						"label": "info",
						"offset": 0,
						"slot": "1",
						"type": "t_uint256"
					},
					{
						"astId": 80,
						"contract": "learningSolidity/contractVisibility.sol:E",
						"label": "result",
						"offset": 0,
						"slot": "2",
						"type": "t_uint256"
					},
					{
						"astId": 83,
						"contract": "learningSolidity/contractVisibility.sol:E",
						"label": "c",
						"offset": 0,
						"slot": "3",
						"type": "t_contract(C)58"
					}
				],
				"types": {
					"t_contract(C)58": {
						"encoding": "inplace",
						"label": "contract C",
						"numberOfBytes": "20"
					},
					"t_uint256": {
						"encoding": "inplace",
						"label": "uint256",
						"numberOfBytes": "32"
					}
				}
			},
			"userdoc": {
				"kind": "user",
				"methods": {},
				"version": 1
			}
		}
	}
}