{
	"operators.sol": {
		"logicalOperators": {
			"abi": [
				{
					"inputs": [],
					"name": "logic",
					"outputs": [
						{
							"internalType": "uint256",
							"name": "",
							"type": "uint256"
						}
					],
					"stateMutability": "view",
					"type": "function"
				}
			],
			"devdoc": {
				"kind": "dev",
				"methods": {},
				"version": 1
			},
			"evm": {
				"assembly": "    /* \"operators.sol\":1234:1463  contract logicalOperators {... */\n  mstore(0x40, 0x80)\n    /* \"operators.sol\":1275:1276  4 */\n  0x04\n    /* \"operators.sol\":1266:1276  uint a = 4 */\n  0x00\n  sstore\n    /* \"operators.sol\":1291:1292  8 */\n  0x08\n    /* \"operators.sol\":1282:1292  uint b = 8 */\n  0x01\n  sstore\n    /* \"operators.sol\":1234:1463  contract logicalOperators {... */\n  callvalue\n  dup1\n  iszero\n  tag_1\n  jumpi\n  revert(0x00, 0x00)\ntag_1:\n  pop\n  dataSize(sub_0)\n  dup1\n  dataOffset(sub_0)\n  0x00\n  codecopy\n  0x00\n  return\nstop\n\nsub_0: assembly {\n        /* \"operators.sol\":1234:1463  contract logicalOperators {... */\n      mstore(0x40, 0x80)\n      callvalue\n      dup1\n      iszero\n      tag_1\n      jumpi\n      revert(0x00, 0x00)\n    tag_1:\n      pop\n      jumpi(tag_2, lt(calldatasize, 0x04))\n      shr(0xe0, calldataload(0x00))\n      dup1\n      0xd7dfa0dd\n      eq\n      tag_3\n      jumpi\n    tag_2:\n      revert(0x00, 0x00)\n        /* \"operators.sol\":1299:1461  function logic() public view returns(uint) {... */\n    tag_3:\n      tag_4\n      tag_5\n      jump\t// in\n    tag_4:\n      mload(0x40)\n      tag_6\n      swap2\n      swap1\n      tag_7\n      jump\t// in\n    tag_6:\n      mload(0x40)\n      dup1\n      swap2\n      sub\n      swap1\n      return\n    tag_5:\n        /* \"operators.sol\":1336:1340  uint */\n      0x00\n        /* \"operators.sol\":1352:1363  uint result */\n      0x00\n        /* \"operators.sol\":1366:1367  0 */\n      0x00\n        /* \"operators.sol\":1352:1367  uint result = 0 */\n      swap1\n      pop\n        /* \"operators.sol\":1384:1385  b */\n      sload(0x01)\n        /* \"operators.sol\":1380:1381  a */\n      sload(0x00)\n        /* \"operators.sol\":1380:1385  a < b */\n      lt\n        /* \"operators.sol\":1380:1395  a < b && a == 4 */\n      dup1\n      iszero\n      tag_9\n      jumpi\n      pop\n        /* \"operators.sol\":1394:1395  4 */\n      0x04\n        /* \"operators.sol\":1389:1390  a */\n      sload(0x00)\n        /* \"operators.sol\":1389:1395  a == 4 */\n      eq\n        /* \"operators.sol\":1380:1395  a < b && a == 4 */\n    tag_9:\n        /* \"operators.sol\":1377:1432  if(a < b && a == 4) {... */\n      iszero\n      tag_10\n      jumpi\n        /* \"operators.sol\":1424:1425  b */\n      sload(0x01)\n        /* \"operators.sol\":1420:1421  a */\n      sload(0x00)\n        /* \"operators.sol\":1420:1425  a + b */\n      tag_11\n      swap2\n      swap1\n      tag_12\n      jump\t// in\n    tag_11:\n        /* \"operators.sol\":1411:1425  result = a + b */\n      swap1\n      pop\n        /* \"operators.sol\":1377:1432  if(a < b && a == 4) {... */\n    tag_10:\n        /* \"operators.sol\":1448:1454  result */\n      dup1\n        /* \"operators.sol\":1441:1454  return result */\n      swap2\n      pop\n      pop\n        /* \"operators.sol\":1299:1461  function logic() public view returns(uint) {... */\n      swap1\n      jump\t// out\n        /* \"#utility.yul\":7:84   */\n    tag_13:\n        /* \"#utility.yul\":44:51   */\n      0x00\n        /* \"#utility.yul\":73:78   */\n      dup2\n        /* \"#utility.yul\":62:78   */\n      swap1\n      pop\n        /* \"#utility.yul\":7:84   */\n      swap2\n      swap1\n      pop\n      jump\t// out\n        /* \"#utility.yul\":90:208   */\n    tag_14:\n        /* \"#utility.yul\":177:201   */\n      tag_19\n        /* \"#utility.yul\":195:200   */\n      dup2\n        /* \"#utility.yul\":177:201   */\n      tag_13\n      jump\t// in\n    tag_19:\n        /* \"#utility.yul\":172:175   */\n      dup3\n        /* \"#utility.yul\":165:202   */\n      mstore\n        /* \"#utility.yul\":90:208   */\n      pop\n      pop\n      jump\t// out\n        /* \"#utility.yul\":214:436   */\n    tag_7:\n        /* \"#utility.yul\":307:311   */\n      0x00\n        /* \"#utility.yul\":345:347   */\n      0x20\n        /* \"#utility.yul\":334:343   */\n      dup3\n        /* \"#utility.yul\":330:348   */\n      add\n        /* \"#utility.yul\":322:348   */\n      swap1\n      pop\n        /* \"#utility.yul\":358:429   */\n      tag_21\n        /* \"#utility.yul\":426:427   */\n      0x00\n        /* \"#utility.yul\":415:424   */\n      dup4\n        /* \"#utility.yul\":411:428   */\n      add\n        /* \"#utility.yul\":402:408   */\n      dup5\n        /* \"#utility.yul\":358:429   */\n      tag_14\n      jump\t// in\n    tag_21:\n        /* \"#utility.yul\":214:436   */\n      swap3\n      swap2\n      pop\n      pop\n      jump\t// out\n        /* \"#utility.yul\":442:622   */\n    tag_15:\n        /* \"#utility.yul\":490:567   */\n      0x4e487b7100000000000000000000000000000000000000000000000000000000\n        /* \"#utility.yul\":487:488   */\n      0x00\n        /* \"#utility.yul\":480:568   */\n      mstore\n        /* \"#utility.yul\":587:591   */\n      0x11\n        /* \"#utility.yul\":584:585   */\n      0x04\n        /* \"#utility.yul\":577:592   */\n      mstore\n        /* \"#utility.yul\":611:615   */\n      0x24\n        /* \"#utility.yul\":608:609   */\n      0x00\n        /* \"#utility.yul\":601:616   */\n      revert\n        /* \"#utility.yul\":628:819   */\n    tag_12:\n        /* \"#utility.yul\":668:671   */\n      0x00\n        /* \"#utility.yul\":687:707   */\n      tag_24\n        /* \"#utility.yul\":705:706   */\n      dup3\n        /* \"#utility.yul\":687:707   */\n      tag_13\n      jump\t// in\n    tag_24:\n        /* \"#utility.yul\":682:707   */\n      swap2\n      pop\n        /* \"#utility.yul\":721:741   */\n      tag_25\n        /* \"#utility.yul\":739:740   */\n      dup4\n        /* \"#utility.yul\":721:741   */\n      tag_13\n      jump\t// in\n    tag_25:\n        /* \"#utility.yul\":716:741   */\n      swap3\n      pop\n        /* \"#utility.yul\":764:765   */\n      dup3\n        /* \"#utility.yul\":761:762   */\n      dup3\n        /* \"#utility.yul\":757:766   */\n      add\n        /* \"#utility.yul\":750:766   */\n      swap1\n      pop\n        /* \"#utility.yul\":785:788   */\n      dup1\n        /* \"#utility.yul\":782:783   */\n      dup3\n        /* \"#utility.yul\":779:789   */\n      gt\n        /* \"#utility.yul\":776:812   */\n      iszero\n      tag_26\n      jumpi\n        /* \"#utility.yul\":792:810   */\n      tag_27\n      tag_15\n      jump\t// in\n    tag_27:\n        /* \"#utility.yul\":776:812   */\n    tag_26:\n        /* \"#utility.yul\":628:819   */\n      swap3\n      swap2\n      pop\n      pop\n      jump\t// out\n\n    auxdata: 0xa2646970667358221220bf9fef888176d529cc315b995905274e83575124fd94fd42d9d46eabb294117764736f6c634300081e0033\n}\n",
				"bytecode": {
					"linkReferences": {},
					"object": "608060405260045f5560086001553480156017575f5ffd5b50610132806100255f395ff3fe6080604052348015600e575f5ffd5b50600436106026575f3560e01c8063d7dfa0dd14602a575b5f5ffd5b60306044565b604051603b9190608c565b60405180910390f35b5f5f5f90506001545f54108015605b575060045f54145b15606f576001545f54606c919060d0565b90505b8091505090565b5f819050919050565b6086816076565b82525050565b5f602082019050609d5f830184607f565b92915050565b7f4e487b71000000000000000000000000000000000000000000000000000000005f52601160045260245ffd5b5f60d8826076565b915060e1836076565b925082820190508082111560f65760f560a3565b5b9291505056fea2646970667358221220bf9fef888176d529cc315b995905274e83575124fd94fd42d9d46eabb294117764736f6c634300081e0033",
					"opcodes": "PUSH1 0x80 PUSH1 0x40 MSTORE PUSH1 0x4 PUSH0 SSTORE PUSH1 0x8 PUSH1 0x1 SSTORE CALLVALUE DUP1 ISZERO PUSH1 0x17 JUMPI PUSH0 PUSH0 REVERT JUMPDEST POP PUSH2 0x132 DUP1 PUSH2 0x25 PUSH0 CODECOPY PUSH0 RETURN INVALID PUSH1 0x80 PUSH1 0x40 MSTORE CALLVALUE DUP1 ISZERO PUSH1 0xE JUMPI PUSH0 PUSH0 REVERT JUMPDEST POP PUSH1 0x4 CALLDATASIZE LT PUSH1 0x26 JUMPI PUSH0 CALLDATALOAD PUSH1 0xE0 SHR DUP1 PUSH4 0xD7DFA0DD EQ PUSH1 0x2A JUMPI JUMPDEST PUSH0 PUSH0 REVERT JUMPDEST PUSH1 0x30 PUSH1 0x44 JUMP JUMPDEST PUSH1 0x40 MLOAD PUSH1 0x3B SWAP2 SWAP1 PUSH1 0x8C JUMP JUMPDEST PUSH1 0x40 MLOAD DUP1 SWAP2 SUB SWAP1 RETURN JUMPDEST PUSH0 PUSH0 PUSH0 SWAP1 POP PUSH1 0x1 SLOAD PUSH0 SLOAD LT DUP1 ISZERO PUSH1 0x5B JUMPI POP PUSH1 0x4 PUSH0 SLOAD EQ JUMPDEST ISZERO PUSH1 0x6F JUMPI PUSH1 0x1 SLOAD PUSH0 SLOAD PUSH1 0x6C SWAP2 SWAP1 PUSH1 0xD0 JUMP JUMPDEST SWAP1 POP JUMPDEST DUP1 SWAP2 POP POP SWAP1 JUMP JUMPDEST PUSH0 DUP2 SWAP1 POP SWAP2 SWAP1 POP JUMP JUMPDEST PUSH1 0x86 DUP2 PUSH1 0x76 JUMP JUMPDEST DUP3 MSTORE POP POP JUMP JUMPDEST PUSH0 PUSH1 0x20 DUP3 ADD SWAP1 POP PUSH1 0x9D PUSH0 DUP4 ADD DUP5 PUSH1 0x7F JUMP JUMPDEST SWAP3 SWAP2 POP POP JUMP JUMPDEST PUSH32 0x4E487B7100000000000000000000000000000000000000000000000000000000 PUSH0 MSTORE PUSH1 0x11 PUSH1 0x4 MSTORE PUSH1 0x24 PUSH0 REVERT JUMPDEST PUSH0 PUSH1 0xD8 DUP3 PUSH1 0x76 JUMP JUMPDEST SWAP2 POP PUSH1 0xE1 DUP4 PUSH1 0x76 JUMP JUMPDEST SWAP3 POP DUP3 DUP3 ADD SWAP1 POP DUP1 DUP3 GT ISZERO PUSH1 0xF6 JUMPI PUSH1 0xF5 PUSH1 0xA3 JUMP JUMPDEST JUMPDEST SWAP3 SWAP2 POP POP JUMP INVALID LOG2 PUSH5 0x6970667358 0x22 SLT KECCAK256 0xBF SWAP16 0xEF DUP9 DUP2 PUSH23 0xD529CC315B995905274E83575124FD94FD42D9D46EABB2 SWAP5 GT PUSH24 0x64736F6C634300081E003300000000000000000000000000 "
				},
				"gasEstimates": {
					"creation": {
						"codeDepositCost": "61200",
						"executionCost": "44320",
						"totalCost": "105520"
					},
					"external": {
						"logic()": "infinite"
					}
				},
				"methodIdentifiers": {
					"logic()": "d7dfa0dd"
				}
			},
			"storageLayout": {
				"storage": [
					{
						"astId": 67,
						"contract": "operators.sol:logicalOperators",
						"label": "a",
						"offset": 0,
						"slot": "0",
						"type": "t_uint256"
					},
					{
						"astId": 70,
						"contract": "operators.sol:logicalOperators",
						"label": "b",
						"offset": 0,
						"slot": "1",
						"type": "t_uint256"
					}
				],
				"types": {
					"t_uint256": {
						"encoding": "inplace",
						"label": "uint256",
						"numberOfBytes": "32"
					}
				}
			},
			"userdoc": {
				"kind": "user",
				"methods": {},
				"version": 1
			}
		}
	}
}