{
	"operators.sol": {
		"comparisonOperators": {
			"abi": [
				{
					"inputs": [],
					"name": "compare",
					"outputs": [],
					"stateMutability": "view",
					"type": "function"
				}
			],
			"devdoc": {
				"kind": "dev",
				"methods": {},
				"version": 1
			},
			"evm": {
				"assembly": "    /* \"operators.sol\":864:1086  contract comparisonOperators {... */\n  mstore(0x40, 0x80)\n    /* \"operators.sol\":908:912  1228 */\n  0x04cc\n    /* \"operators.sol\":899:912  uint a = 1228 */\n  0x00\n  sstore\n    /* \"operators.sol\":927:928  6 */\n  0x06\n    /* \"operators.sol\":918:928  uint b = 6 */\n  0x01\n  sstore\n    /* \"operators.sol\":864:1086  contract comparisonOperators {... */\n  callvalue\n  dup1\n  iszero\n  tag_1\n  jumpi\n  revert(0x00, 0x00)\ntag_1:\n  pop\n  dataSize(sub_0)\n  dup1\n  dataOffset(sub_0)\n  0x00\n  codecopy\n  0x00\n  return\nstop\n\nsub_0: assembly {\n        /* \"operators.sol\":864:1086  contract comparisonOperators {... */\n      mstore(0x40, 0x80)\n      callvalue\n      dup1\n      iszero\n      tag_1\n      jumpi\n      revert(0x00, 0x00)\n    tag_1:\n      pop\n      jumpi(tag_2, lt(calldatasize, 0x04))\n      shr(0xe0, calldataload(0x00))\n      dup1\n      0x3da0ac79\n      eq\n      tag_3\n      jumpi\n    tag_2:\n      revert(0x00, 0x00)\n        /* \"operators.sol\":934:1084  function compare() public view {... */\n    tag_3:\n      tag_4\n      tag_5\n      jump\t// in\n    tag_4:\n      stop\n    tag_5:\n        /* \"operators.sol\":1046:1047  b */\n      sload(0x01)\n        /* \"operators.sol\":1041:1042  a */\n      sload(0x00)\n        /* \"operators.sol\":1041:1047  a <= b */\n      gt\n      iszero\n        /* \"operators.sol\":1033:1077  require(a <= b, 'This comparison is false!') */\n      tag_7\n      jumpi\n      mload(0x40)\n      0x08c379a000000000000000000000000000000000000000000000000000000000\n      dup2\n      mstore\n      0x04\n      add\n      tag_8\n      swap1\n      tag_9\n      jump\t// in\n    tag_8:\n      mload(0x40)\n      dup1\n      swap2\n      sub\n      swap1\n      revert\n    tag_7:\n        /* \"operators.sol\":934:1084  function compare() public view {... */\n      jump\t// out\n        /* \"#utility.yul\":7:176   */\n    tag_10:\n        /* \"#utility.yul\":91:102   */\n      0x00\n        /* \"#utility.yul\":125:131   */\n      dup3\n        /* \"#utility.yul\":120:123   */\n      dup3\n        /* \"#utility.yul\":113:132   */\n      mstore\n        /* \"#utility.yul\":165:169   */\n      0x20\n        /* \"#utility.yul\":160:163   */\n      dup3\n        /* \"#utility.yul\":156:170   */\n      add\n        /* \"#utility.yul\":141:170   */\n      swap1\n      pop\n        /* \"#utility.yul\":7:176   */\n      swap3\n      swap2\n      pop\n      pop\n      jump\t// out\n        /* \"#utility.yul\":182:357   */\n    tag_11:\n        /* \"#utility.yul\":322:349   */\n      0x5468697320636f6d70617269736f6e2069732066616c73652100000000000000\n        /* \"#utility.yul\":318:319   */\n      0x00\n        /* \"#utility.yul\":310:316   */\n      dup3\n        /* \"#utility.yul\":306:320   */\n      add\n        /* \"#utility.yul\":299:350   */\n      mstore\n        /* \"#utility.yul\":182:357   */\n      pop\n      jump\t// out\n        /* \"#utility.yul\":363:729   */\n    tag_12:\n        /* \"#utility.yul\":505:508   */\n      0x00\n        /* \"#utility.yul\":526:593   */\n      tag_17\n        /* \"#utility.yul\":590:592   */\n      0x19\n        /* \"#utility.yul\":585:588   */\n      dup4\n        /* \"#utility.yul\":526:593   */\n      tag_10\n      jump\t// in\n    tag_17:\n        /* \"#utility.yul\":519:593   */\n      swap2\n      pop\n        /* \"#utility.yul\":602:695   */\n      tag_18\n        /* \"#utility.yul\":691:694   */\n      dup3\n        /* \"#utility.yul\":602:695   */\n      tag_11\n      jump\t// in\n    tag_18:\n        /* \"#utility.yul\":720:722   */\n      0x20\n        /* \"#utility.yul\":715:718   */\n      dup3\n        /* \"#utility.yul\":711:723   */\n      add\n        /* \"#utility.yul\":704:723   */\n      swap1\n      pop\n        /* \"#utility.yul\":363:729   */\n      swap2\n      swap1\n      pop\n      jump\t// out\n        /* \"#utility.yul\":735:1154   */\n    tag_9:\n        /* \"#utility.yul\":901:905   */\n      0x00\n        /* \"#utility.yul\":939:941   */\n      0x20\n        /* \"#utility.yul\":928:937   */\n      dup3\n        /* \"#utility.yul\":924:942   */\n      add\n        /* \"#utility.yul\":916:942   */\n      swap1\n      pop\n        /* \"#utility.yul\":988:997   */\n      dup2\n        /* \"#utility.yul\":982:986   */\n      dup2\n        /* \"#utility.yul\":978:998   */\n      sub\n        /* \"#utility.yul\":974:975   */\n      0x00\n        /* \"#utility.yul\":963:972   */\n      dup4\n        /* \"#utility.yul\":959:976   */\n      add\n        /* \"#utility.yul\":952:999   */\n      mstore\n        /* \"#utility.yul\":1016:1147   */\n      tag_20\n        /* \"#utility.yul\":1142:1146   */\n      dup2\n        /* \"#utility.yul\":1016:1147   */\n      tag_12\n      jump\t// in\n    tag_20:\n        /* \"#utility.yul\":1008:1147   */\n      swap1\n      pop\n        /* \"#utility.yul\":735:1154   */\n      swap2\n      swap1\n      pop\n      jump\t// out\n\n    auxdata: 0xa264697066735822122056009acba69d5ca8b64328bc3906b2f70bbd4f2aa4fba4974997f546b6389f2564736f6c634300081e0033\n}\n",
				"bytecode": {
					"linkReferences": {},
					"object": "60806040526104cc5f5560066001553480156018575f5ffd5b5061011f806100265f395ff3fe6080604052348015600e575f5ffd5b50600436106026575f3560e01c80633da0ac7914602a575b5f5ffd5b60306032565b005b6001545f5411156075576040517f08c379a0000000000000000000000000000000000000000000000000000000008152600401606c9060cd565b60405180910390fd5b565b5f82825260208201905092915050565b7f5468697320636f6d70617269736f6e2069732066616c736521000000000000005f82015250565b5f60b96019836077565b915060c2826087565b602082019050919050565b5f6020820190508181035f83015260e28160af565b905091905056fea264697066735822122056009acba69d5ca8b64328bc3906b2f70bbd4f2aa4fba4974997f546b6389f2564736f6c634300081e0033",
					"opcodes": "PUSH1 0x80 PUSH1 0x40 MSTORE PUSH2 0x4CC PUSH0 SSTORE PUSH1 0x6 PUSH1 0x1 SSTORE CALLVALUE DUP1 ISZERO PUSH1 0x18 JUMPI PUSH0 PUSH0 REVERT JUMPDEST POP PUSH2 0x11F DUP1 PUSH2 0x26 PUSH0 CODECOPY PUSH0 RETURN INVALID PUSH1 0x80 PUSH1 0x40 MSTORE CALLVALUE DUP1 ISZERO PUSH1 0xE JUMPI PUSH0 PUSH0 REVERT JUMPDEST POP PUSH1 0x4 CALLDATASIZE LT PUSH1 0x26 JUMPI PUSH0 CALLDATALOAD PUSH1 0xE0 SHR DUP1 PUSH4 0x3DA0AC79 EQ PUSH1 0x2A JUMPI JUMPDEST PUSH0 PUSH0 REVERT JUMPDEST PUSH1 0x30 PUSH1 0x32 JUMP JUMPDEST STOP JUMPDEST PUSH1 0x1 SLOAD PUSH0 SLOAD GT ISZERO PUSH1 0x75 JUMPI PUSH1 0x40 MLOAD PUSH32 0x8C379A000000000000000000000000000000000000000000000000000000000 DUP2 MSTORE PUSH1 0x4 ADD PUSH1 0x6C SWAP1 PUSH1 0xCD JUMP JUMPDEST PUSH1 0x40 MLOAD DUP1 SWAP2 SUB SWAP1 REVERT JUMPDEST JUMP JUMPDEST PUSH0 DUP3 DUP3 MSTORE PUSH1 0x20 DUP3 ADD SWAP1 POP SWAP3 SWAP2 POP POP JUMP JUMPDEST PUSH32 0x5468697320636F6D70617269736F6E2069732066616C73652100000000000000 PUSH0 DUP3 ADD MSTORE POP JUMP JUMPDEST PUSH0 PUSH1 0xB9 PUSH1 0x19 DUP4 PUSH1 0x77 JUMP JUMPDEST SWAP2 POP PUSH1 0xC2 DUP3 PUSH1 0x87 JUMP JUMPDEST PUSH1 0x20 DUP3 ADD SWAP1 POP SWAP2 SWAP1 POP JUMP JUMPDEST PUSH0 PUSH1 0x20 DUP3 ADD SWAP1 POP DUP2 DUP2 SUB PUSH0 DUP4 ADD MSTORE PUSH1 0xE2 DUP2 PUSH1 0xAF JUMP JUMPDEST SWAP1 POP SWAP2 SWAP1 POP JUMP INVALID LOG2 PUSH5 0x6970667358 0x22 SLT KECCAK256 JUMP STOP SWAP11 0xCB 0xA6 SWAP14 TLOAD 0xA8 0xB6 NUMBER 0x28 0xBC CODECOPY MOD 0xB2 0xF7 SIGNEXTEND 0xBD 0x4F 0x2A LOG4 EXTSTATICCALL LOG4 SWAP8 BLOBHASH SWAP8 CREATE2 CHAINID 0xB6 CODESIZE SWAP16 0x25 PUSH5 0x736F6C6343 STOP ADDMOD 0x1E STOP CALLER "
				},
				"gasEstimates": {
					"creation": {
						"codeDepositCost": "57400",
						"executionCost": "44314",
						"totalCost": "101714"
					},
					"external": {
						"compare()": "4630"
					}
				},
				"methodIdentifiers": {
					"compare()": "3da0ac79"
				}
			},
			"storageLayout": {
				"storage": [
					{
						"astId": 49,
						"contract": "operators.sol:comparisonOperators",
						"label": "a",
						"offset": 0,
						"slot": "0",
						"type": "t_uint256"
					},
					{
						"astId": 52,
						"contract": "operators.sol:comparisonOperators",
						"label": "b",
						"offset": 0,
						"slot": "1",
						"type": "t_uint256"
					}
				],
				"types": {
					"t_uint256": {
						"encoding": "inplace",
						"label": "uint256",
						"numberOfBytes": "32"
					}
				}
			},
			"userdoc": {
				"kind": "user",
				"methods": {},
				"version": 1
			}
		}
	}
}