{
	"operators.sol": {
		"operators": {
			"abi": [
				{
					"inputs": [],
					"name": "addCalculator",
					"outputs": [
						{
							"internalType": "uint256",
							"name": "",
							"type": "uint256"
						}
					],
					"stateMutability": "view",
					"type": "function"
				},
				{
					"inputs": [],
					"name": "modCalculator",
					"outputs": [
						{
							"internalType": "uint256",
							"name": "",
							"type": "uint256"
						}
					],
					"stateMutability": "view",
					"type": "function"
				}
			],
			"devdoc": {
				"kind": "dev",
				"methods": {},
				"version": 1
			},
			"evm": {
				"assembly": "    /* \"operators.sol\":34:720  contract operators {... */\n  mstore(0x40, 0x80)\n  callvalue\n  dup1\n  iszero\n  tag_1\n  jumpi\n  revert(0x00, 0x00)\ntag_1:\n  pop\n  dataSize(sub_0)\n  dup1\n  dataOffset(sub_0)\n  0x00\n  codecopy\n  0x00\n  return\nstop\n\nsub_0: assembly {\n        /* \"operators.sol\":34:720  contract operators {... */\n      mstore(0x40, 0x80)\n      callvalue\n      dup1\n      iszero\n      tag_1\n      jumpi\n      revert(0x00, 0x00)\n    tag_1:\n      pop\n      jumpi(tag_2, lt(calldatasize, 0x04))\n      shr(0xe0, calldataload(0x00))\n      dup1\n      0x9184de38\n      eq\n      tag_3\n      jumpi\n      dup1\n      0xb51d0f00\n      eq\n      tag_4\n      jumpi\n    tag_2:\n      revert(0x00, 0x00)\n        /* \"operators.sol\":59:212  function addCalculator() public view returns(uint) {... */\n    tag_3:\n      tag_5\n      tag_6\n      jump\t// in\n    tag_5:\n      mload(0x40)\n      tag_7\n      swap2\n      swap1\n      tag_8\n      jump\t// in\n    tag_7:\n      mload(0x40)\n      dup1\n      swap2\n      sub\n      swap1\n      return\n        /* \"operators.sol\":515:668  function modCalculator() public view returns(uint) {... */\n    tag_4:\n      tag_9\n      tag_10\n      jump\t// in\n    tag_9:\n      mload(0x40)\n      tag_11\n      swap2\n      swap1\n      tag_8\n      jump\t// in\n    tag_11:\n      mload(0x40)\n      dup1\n      swap2\n      sub\n      swap1\n      return\n        /* \"operators.sol\":59:212  function addCalculator() public view returns(uint) {... */\n    tag_6:\n        /* \"operators.sol\":104:108  uint */\n      0x00\n        /* \"operators.sol\":120:126  uint a */\n      0x00\n        /* \"operators.sol\":129:130  5 */\n      0x05\n        /* \"operators.sol\":120:130  uint a = 5 */\n      swap1\n      pop\n        /* \"operators.sol\":141:147  uint b */\n      0x00\n        /* \"operators.sol\":150:151  6 */\n      0x06\n        /* \"operators.sol\":141:151  uint b = 6 */\n      swap1\n      pop\n        /* \"operators.sol\":162:173  uint result */\n      0x00\n        /* \"operators.sol\":180:181  b */\n      dup2\n        /* \"operators.sol\":176:177  a */\n      dup4\n        /* \"operators.sol\":176:181  a + b */\n      tag_13\n      swap2\n      swap1\n      tag_14\n      jump\t// in\n    tag_13:\n        /* \"operators.sol\":162:181  uint result = a + b */\n      swap1\n      pop\n        /* \"operators.sol\":198:204  result */\n      dup1\n        /* \"operators.sol\":191:204  return result */\n      swap4\n      pop\n      pop\n      pop\n      pop\n        /* \"operators.sol\":59:212  function addCalculator() public view returns(uint) {... */\n      swap1\n      jump\t// out\n        /* \"operators.sol\":515:668  function modCalculator() public view returns(uint) {... */\n    tag_10:\n        /* \"operators.sol\":560:564  uint */\n      0x00\n        /* \"operators.sol\":576:582  uint a */\n      0x00\n        /* \"operators.sol\":585:587  12 */\n      0x0c\n        /* \"operators.sol\":576:587  uint a = 12 */\n      swap1\n      pop\n        /* \"operators.sol\":597:603  uint b */\n      0x00\n        /* \"operators.sol\":606:608  23 */\n      0x17\n        /* \"operators.sol\":597:608  uint b = 23 */\n      swap1\n      pop\n        /* \"operators.sol\":618:629  uint result */\n      0x00\n        /* \"operators.sol\":636:637  b */\n      dup2\n        /* \"operators.sol\":632:633  a */\n      dup4\n        /* \"operators.sol\":632:637  a % b */\n      tag_16\n      swap2\n      swap1\n      tag_17\n      jump\t// in\n    tag_16:\n        /* \"operators.sol\":618:637  uint result = a % b */\n      swap1\n      pop\n        /* \"operators.sol\":655:661  result */\n      dup1\n        /* \"operators.sol\":648:661  return result */\n      swap4\n      pop\n      pop\n      pop\n      pop\n        /* \"operators.sol\":515:668  function modCalculator() public view returns(uint) {... */\n      swap1\n      jump\t// out\n        /* \"#utility.yul\":7:84   */\n    tag_18:\n        /* \"#utility.yul\":44:51   */\n      0x00\n        /* \"#utility.yul\":73:78   */\n      dup2\n        /* \"#utility.yul\":62:78   */\n      swap1\n      pop\n        /* \"#utility.yul\":7:84   */\n      swap2\n      swap1\n      pop\n      jump\t// out\n        /* \"#utility.yul\":90:208   */\n    tag_19:\n        /* \"#utility.yul\":177:201   */\n      tag_25\n        /* \"#utility.yul\":195:200   */\n      dup2\n        /* \"#utility.yul\":177:201   */\n      tag_18\n      jump\t// in\n    tag_25:\n        /* \"#utility.yul\":172:175   */\n      dup3\n        /* \"#utility.yul\":165:202   */\n      mstore\n        /* \"#utility.yul\":90:208   */\n      pop\n      pop\n      jump\t// out\n        /* \"#utility.yul\":214:436   */\n    tag_8:\n        /* \"#utility.yul\":307:311   */\n      0x00\n        /* \"#utility.yul\":345:347   */\n      0x20\n        /* \"#utility.yul\":334:343   */\n      dup3\n        /* \"#utility.yul\":330:348   */\n      add\n        /* \"#utility.yul\":322:348   */\n      swap1\n      pop\n        /* \"#utility.yul\":358:429   */\n      tag_27\n        /* \"#utility.yul\":426:427   */\n      0x00\n        /* \"#utility.yul\":415:424   */\n      dup4\n        /* \"#utility.yul\":411:428   */\n      add\n        /* \"#utility.yul\":402:408   */\n      dup5\n        /* \"#utility.yul\":358:429   */\n      tag_19\n      jump\t// in\n    tag_27:\n        /* \"#utility.yul\":214:436   */\n      swap3\n      swap2\n      pop\n      pop\n      jump\t// out\n        /* \"#utility.yul\":442:622   */\n    tag_20:\n        /* \"#utility.yul\":490:567   */\n      0x4e487b7100000000000000000000000000000000000000000000000000000000\n        /* \"#utility.yul\":487:488   */\n      0x00\n        /* \"#utility.yul\":480:568   */\n      mstore\n        /* \"#utility.yul\":587:591   */\n      0x11\n        /* \"#utility.yul\":584:585   */\n      0x04\n        /* \"#utility.yul\":577:592   */\n      mstore\n        /* \"#utility.yul\":611:615   */\n      0x24\n        /* \"#utility.yul\":608:609   */\n      0x00\n        /* \"#utility.yul\":601:616   */\n      revert\n        /* \"#utility.yul\":628:819   */\n    tag_14:\n        /* \"#utility.yul\":668:671   */\n      0x00\n        /* \"#utility.yul\":687:707   */\n      tag_30\n        /* \"#utility.yul\":705:706   */\n      dup3\n        /* \"#utility.yul\":687:707   */\n      tag_18\n      jump\t// in\n    tag_30:\n        /* \"#utility.yul\":682:707   */\n      swap2\n      pop\n        /* \"#utility.yul\":721:741   */\n      tag_31\n        /* \"#utility.yul\":739:740   */\n      dup4\n        /* \"#utility.yul\":721:741   */\n      tag_18\n      jump\t// in\n    tag_31:\n        /* \"#utility.yul\":716:741   */\n      swap3\n      pop\n        /* \"#utility.yul\":764:765   */\n      dup3\n        /* \"#utility.yul\":761:762   */\n      dup3\n        /* \"#utility.yul\":757:766   */\n      add\n        /* \"#utility.yul\":750:766   */\n      swap1\n      pop\n        /* \"#utility.yul\":785:788   */\n      dup1\n        /* \"#utility.yul\":782:783   */\n      dup3\n        /* \"#utility.yul\":779:789   */\n      gt\n        /* \"#utility.yul\":776:812   */\n      iszero\n      tag_32\n      jumpi\n        /* \"#utility.yul\":792:810   */\n      tag_33\n      tag_20\n      jump\t// in\n    tag_33:\n        /* \"#utility.yul\":776:812   */\n    tag_32:\n        /* \"#utility.yul\":628:819   */\n      swap3\n      swap2\n      pop\n      pop\n      jump\t// out\n        /* \"#utility.yul\":825:1005   */\n    tag_21:\n        /* \"#utility.yul\":873:950   */\n      0x4e487b7100000000000000000000000000000000000000000000000000000000\n        /* \"#utility.yul\":870:871   */\n      0x00\n        /* \"#utility.yul\":863:951   */\n      mstore\n        /* \"#utility.yul\":970:974   */\n      0x12\n        /* \"#utility.yul\":967:968   */\n      0x04\n        /* \"#utility.yul\":960:975   */\n      mstore\n        /* \"#utility.yul\":994:998   */\n      0x24\n        /* \"#utility.yul\":991:992   */\n      0x00\n        /* \"#utility.yul\":984:999   */\n      revert\n        /* \"#utility.yul\":1011:1187   */\n    tag_17:\n        /* \"#utility.yul\":1043:1044   */\n      0x00\n        /* \"#utility.yul\":1060:1080   */\n      tag_36\n        /* \"#utility.yul\":1078:1079   */\n      dup3\n        /* \"#utility.yul\":1060:1080   */\n      tag_18\n      jump\t// in\n    tag_36:\n        /* \"#utility.yul\":1055:1080   */\n      swap2\n      pop\n        /* \"#utility.yul\":1094:1114   */\n      tag_37\n        /* \"#utility.yul\":1112:1113   */\n      dup4\n        /* \"#utility.yul\":1094:1114   */\n      tag_18\n      jump\t// in\n    tag_37:\n        /* \"#utility.yul\":1089:1114   */\n      swap3\n      pop\n        /* \"#utility.yul\":1133:1134   */\n      dup3\n        /* \"#utility.yul\":1123:1158   */\n      tag_38\n      jumpi\n        /* \"#utility.yul\":1138:1156   */\n      tag_39\n      tag_21\n      jump\t// in\n    tag_39:\n        /* \"#utility.yul\":1123:1158   */\n    tag_38:\n        /* \"#utility.yul\":1179:1180   */\n      dup3\n        /* \"#utility.yul\":1176:1177   */\n      dup3\n        /* \"#utility.yul\":1172:1181   */\n      mod\n        /* \"#utility.yul\":1167:1181   */\n      swap1\n      pop\n        /* \"#utility.yul\":1011:1187   */\n      swap3\n      swap2\n      pop\n      pop\n      jump\t// out\n\n    auxdata: 0xa26469706673582212204e53794dc2f15ee04eac5b1b388455951c932d3a5ed7209c55057def4159fd2c64736f6c634300081e0033\n}\n",
				"bytecode": {
					"linkReferences": {},
					"object": "6080604052348015600e575f5ffd5b506101de8061001c5f395ff3fe608060405234801561000f575f5ffd5b5060043610610034575f3560e01c80639184de3814610038578063b51d0f0014610056575b5f5ffd5b610040610074565b60405161004d91906100d2565b60405180910390f35b61005e610097565b60405161006b91906100d2565b60405180910390f35b5f5f600590505f600690505f818361008c9190610118565b905080935050505090565b5f5f600c90505f601790505f81836100af9190610178565b905080935050505090565b5f819050919050565b6100cc816100ba565b82525050565b5f6020820190506100e55f8301846100c3565b92915050565b7f4e487b71000000000000000000000000000000000000000000000000000000005f52601160045260245ffd5b5f610122826100ba565b915061012d836100ba565b9250828201905080821115610145576101446100eb565b5b92915050565b7f4e487b71000000000000000000000000000000000000000000000000000000005f52601260045260245ffd5b5f610182826100ba565b915061018d836100ba565b92508261019d5761019c61014b565b5b82820690509291505056fea26469706673582212204e53794dc2f15ee04eac5b1b388455951c932d3a5ed7209c55057def4159fd2c64736f6c634300081e0033",
					"opcodes": "PUSH1 0x80 PUSH1 0x40 MSTORE CALLVALUE DUP1 ISZERO PUSH1 0xE JUMPI PUSH0 PUSH0 REVERT JUMPDEST POP PUSH2 0x1DE DUP1 PUSH2 0x1C PUSH0 CODECOPY PUSH0 RETURN INVALID PUSH1 0x80 PUSH1 0x40 MSTORE CALLVALUE DUP1 ISZERO PUSH2 0xF JUMPI PUSH0 PUSH0 REVERT JUMPDEST POP PUSH1 0x4 CALLDATASIZE LT PUSH2 0x34 JUMPI PUSH0 CALLDATALOAD PUSH1 0xE0 SHR DUP1 PUSH4 0x9184DE38 EQ PUSH2 0x38 JUMPI DUP1 PUSH4 0xB51D0F00 EQ PUSH2 0x56 JUMPI JUMPDEST PUSH0 PUSH0 REVERT JUMPDEST PUSH2 0x40 PUSH2 0x74 JUMP JUMPDEST PUSH1 0x40 MLOAD PUSH2 0x4D SWAP2 SWAP1 PUSH2 0xD2 JUMP JUMPDEST PUSH1 0x40 MLOAD DUP1 SWAP2 SUB SWAP1 RETURN JUMPDEST PUSH2 0x5E PUSH2 0x97 JUMP JUMPDEST PUSH1 0x40 MLOAD PUSH2 0x6B SWAP2 SWAP1 PUSH2 0xD2 JUMP JUMPDEST PUSH1 0x40 MLOAD DUP1 SWAP2 SUB SWAP1 RETURN JUMPDEST PUSH0 PUSH0 PUSH1 0x5 SWAP1 POP PUSH0 PUSH1 0x6 SWAP1 POP PUSH0 DUP2 DUP4 PUSH2 0x8C SWAP2 SWAP1 PUSH2 0x118 JUMP JUMPDEST SWAP1 POP DUP1 SWAP4 POP POP POP POP SWAP1 JUMP JUMPDEST PUSH0 PUSH0 PUSH1 0xC SWAP1 POP PUSH0 PUSH1 0x17 SWAP1 POP PUSH0 DUP2 DUP4 PUSH2 0xAF SWAP2 SWAP1 PUSH2 0x178 JUMP JUMPDEST SWAP1 POP DUP1 SWAP4 POP POP POP POP SWAP1 JUMP JUMPDEST PUSH0 DUP2 SWAP1 POP SWAP2 SWAP1 POP JUMP JUMPDEST PUSH2 0xCC DUP2 PUSH2 0xBA JUMP JUMPDEST DUP3 MSTORE POP POP JUMP JUMPDEST PUSH0 PUSH1 0x20 DUP3 ADD SWAP1 POP PUSH2 0xE5 PUSH0 DUP4 ADD DUP5 PUSH2 0xC3 JUMP JUMPDEST SWAP3 SWAP2 POP POP JUMP JUMPDEST PUSH32 0x4E487B7100000000000000000000000000000000000000000000000000000000 PUSH0 MSTORE PUSH1 0x11 PUSH1 0x4 MSTORE PUSH1 0x24 PUSH0 REVERT JUMPDEST PUSH0 PUSH2 0x122 DUP3 PUSH2 0xBA JUMP JUMPDEST SWAP2 POP PUSH2 0x12D DUP4 PUSH2 0xBA JUMP JUMPDEST SWAP3 POP DUP3 DUP3 ADD SWAP1 POP DUP1 DUP3 GT ISZERO PUSH2 0x145 JUMPI PUSH2 0x144 PUSH2 0xEB JUMP JUMPDEST JUMPDEST SWAP3 SWAP2 POP POP JUMP JUMPDEST PUSH32 0x4E487B7100000000000000000000000000000000000000000000000000000000 PUSH0 MSTORE PUSH1 0x12 PUSH1 0x4 MSTORE PUSH1 0x24 PUSH0 REVERT JUMPDEST PUSH0 PUSH2 0x182 DUP3 PUSH2 0xBA JUMP JUMPDEST SWAP2 POP PUSH2 0x18D DUP4 PUSH2 0xBA JUMP JUMPDEST SWAP3 POP DUP3 PUSH2 0x19D JUMPI PUSH2 0x19C PUSH2 0x14B JUMP JUMPDEST JUMPDEST DUP3 DUP3 MOD SWAP1 POP SWAP3 SWAP2 POP POP JUMP INVALID LOG2 PUSH5 0x6970667358 0x22 SLT KECCAK256 0x4E MSTORE8 PUSH26 0x4DC2F15EE04EAC5B1B388455951C932D3A5ED7209C55057DEF41 MSIZE REVERT 0x2C PUSH5 0x736F6C6343 STOP ADDMOD 0x1E STOP CALLER "
				},
				"gasEstimates": {
					"creation": {
						"codeDepositCost": "95600",
						"executionCost": "139",
						"totalCost": "95739"
					},
					"external": {
						"addCalculator()": "infinite",
						"modCalculator()": "infinite"
					}
				},
				"methodIdentifiers": {
					"addCalculator()": "9184de38",
					"modCalculator()": "b51d0f00"
				}
			},
			"storageLayout": {
				"storage": [],
				"types": null
			},
			"userdoc": {
				"kind": "user",
				"methods": {},
				"version": 1
			}
		}
	}
}