{
	"operators.sol": {
		"exerciseTwo": {
			"abi": [
				{
					"inputs": [],
					"name": "Logic",
					"outputs": [
						{
							"internalType": "uint256",
							"name": "",
							"type": "uint256"
						}
					],
					"stateMutability": "view",
					"type": "function"
				}
			],
			"devdoc": {
				"kind": "dev",
				"methods": {},
				"version": 1
			},
			"evm": {
				"assembly": "    /* \"operators.sol\":1686:1920  contract exerciseTwo {... */\n  mstore(0x40, 0x80)\n    /* \"operators.sol\":1722:1724  18 */\n  0x12\n    /* \"operators.sol\":1713:1724  uint a = 18 */\n  0x00\n  sstore\n    /* \"operators.sol\":1739:1741  28 */\n  0x1c\n    /* \"operators.sol\":1730:1741  uint b = 28 */\n  0x01\n  sstore\n    /* \"operators.sol\":1686:1920  contract exerciseTwo {... */\n  callvalue\n  dup1\n  iszero\n  tag_1\n  jumpi\n  revert(0x00, 0x00)\ntag_1:\n  pop\n  dataSize(sub_0)\n  dup1\n  dataOffset(sub_0)\n  0x00\n  codecopy\n  0x00\n  return\nstop\n\nsub_0: assembly {\n        /* \"operators.sol\":1686:1920  contract exerciseTwo {... */\n      mstore(0x40, 0x80)\n      callvalue\n      dup1\n      iszero\n      tag_1\n      jumpi\n      revert(0x00, 0x00)\n    tag_1:\n      pop\n      jumpi(tag_2, lt(calldatasize, 0x04))\n      shr(0xe0, calldataload(0x00))\n      dup1\n      0x9a381aa8\n      eq\n      tag_3\n      jumpi\n    tag_2:\n      revert(0x00, 0x00)\n        /* \"operators.sol\":1748:1918  function Logic() public view returns(uint) {... */\n    tag_3:\n      tag_4\n      tag_5\n      jump\t// in\n    tag_4:\n      mload(0x40)\n      tag_6\n      swap2\n      swap1\n      tag_7\n      jump\t// in\n    tag_6:\n      mload(0x40)\n      dup1\n      swap2\n      sub\n      swap1\n      return\n    tag_5:\n        /* \"operators.sol\":1785:1789  uint */\n      0x00\n        /* \"operators.sol\":1801:1812  uint result */\n      0x00\n        /* \"operators.sol\":1815:1816  0 */\n      0x00\n        /* \"operators.sol\":1801:1816  uint result = 0 */\n      swap1\n      pop\n        /* \"operators.sol\":1833:1834  a */\n      sload(0x00)\n        /* \"operators.sol\":1829:1830  b */\n      sload(0x01)\n        /* \"operators.sol\":1829:1834  b > a */\n      gt\n        /* \"operators.sol\":1829:1844  b > a && a != b */\n      dup1\n      iszero\n      tag_9\n      jumpi\n      pop\n        /* \"operators.sol\":1843:1844  b */\n      sload(0x01)\n        /* \"operators.sol\":1838:1839  a */\n      sload(0x00)\n        /* \"operators.sol\":1838:1844  a != b */\n      eq\n      iszero\n        /* \"operators.sol\":1829:1844  b > a && a != b */\n    tag_9:\n        /* \"operators.sol\":1826:1885  if(b > a && a != b) {... */\n      iszero\n      tag_10\n      jumpi\n        /* \"operators.sol\":1873:1874  b */\n      sload(0x01)\n        /* \"operators.sol\":1869:1870  a */\n      sload(0x00)\n        /* \"operators.sol\":1869:1874  a * b */\n      tag_11\n      swap2\n      swap1\n      tag_12\n      jump\t// in\n    tag_11:\n        /* \"operators.sol\":1860:1874  result = a * b */\n      swap1\n      pop\n        /* \"operators.sol\":1826:1885  if(b > a && a != b) {... */\n    tag_10:\n        /* \"operators.sol\":1901:1907  result */\n      dup1\n        /* \"operators.sol\":1894:1907  return result */\n      swap2\n      pop\n      pop\n        /* \"operators.sol\":1748:1918  function Logic() public view returns(uint) {... */\n      swap1\n      jump\t// out\n        /* \"#utility.yul\":7:84   */\n    tag_13:\n        /* \"#utility.yul\":44:51   */\n      0x00\n        /* \"#utility.yul\":73:78   */\n      dup2\n        /* \"#utility.yul\":62:78   */\n      swap1\n      pop\n        /* \"#utility.yul\":7:84   */\n      swap2\n      swap1\n      pop\n      jump\t// out\n        /* \"#utility.yul\":90:208   */\n    tag_14:\n        /* \"#utility.yul\":177:201   */\n      tag_19\n        /* \"#utility.yul\":195:200   */\n      dup2\n        /* \"#utility.yul\":177:201   */\n      tag_13\n      jump\t// in\n    tag_19:\n        /* \"#utility.yul\":172:175   */\n      dup3\n        /* \"#utility.yul\":165:202   */\n      mstore\n        /* \"#utility.yul\":90:208   */\n      pop\n      pop\n      jump\t// out\n        /* \"#utility.yul\":214:436   */\n    tag_7:\n        /* \"#utility.yul\":307:311   */\n      0x00\n        /* \"#utility.yul\":345:347   */\n      0x20\n        /* \"#utility.yul\":334:343   */\n      dup3\n        /* \"#utility.yul\":330:348   */\n      add\n        /* \"#utility.yul\":322:348   */\n      swap1\n      pop\n        /* \"#utility.yul\":358:429   */\n      tag_21\n        /* \"#utility.yul\":426:427   */\n      0x00\n        /* \"#utility.yul\":415:424   */\n      dup4\n        /* \"#utility.yul\":411:428   */\n      add\n        /* \"#utility.yul\":402:408   */\n      dup5\n        /* \"#utility.yul\":358:429   */\n      tag_14\n      jump\t// in\n    tag_21:\n        /* \"#utility.yul\":214:436   */\n      swap3\n      swap2\n      pop\n      pop\n      jump\t// out\n        /* \"#utility.yul\":442:622   */\n    tag_15:\n        /* \"#utility.yul\":490:567   */\n      0x4e487b7100000000000000000000000000000000000000000000000000000000\n        /* \"#utility.yul\":487:488   */\n      0x00\n        /* \"#utility.yul\":480:568   */\n      mstore\n        /* \"#utility.yul\":587:591   */\n      0x11\n        /* \"#utility.yul\":584:585   */\n      0x04\n        /* \"#utility.yul\":577:592   */\n      mstore\n        /* \"#utility.yul\":611:615   */\n      0x24\n        /* \"#utility.yul\":608:609   */\n      0x00\n        /* \"#utility.yul\":601:616   */\n      revert\n        /* \"#utility.yul\":628:1038   */\n    tag_12:\n        /* \"#utility.yul\":668:675   */\n      0x00\n        /* \"#utility.yul\":691:711   */\n      tag_24\n        /* \"#utility.yul\":709:710   */\n      dup3\n        /* \"#utility.yul\":691:711   */\n      tag_13\n      jump\t// in\n    tag_24:\n        /* \"#utility.yul\":686:711   */\n      swap2\n      pop\n        /* \"#utility.yul\":725:745   */\n      tag_25\n        /* \"#utility.yul\":743:744   */\n      dup4\n        /* \"#utility.yul\":725:745   */\n      tag_13\n      jump\t// in\n    tag_25:\n        /* \"#utility.yul\":720:745   */\n      swap3\n      pop\n        /* \"#utility.yul\":780:781   */\n      dup3\n        /* \"#utility.yul\":777:778   */\n      dup3\n        /* \"#utility.yul\":773:782   */\n      mul\n        /* \"#utility.yul\":802:832   */\n      tag_26\n        /* \"#utility.yul\":820:831   */\n      dup2\n        /* \"#utility.yul\":802:832   */\n      tag_13\n      jump\t// in\n    tag_26:\n        /* \"#utility.yul\":791:832   */\n      swap2\n      pop\n        /* \"#utility.yul\":981:982   */\n      dup3\n        /* \"#utility.yul\":972:979   */\n      dup3\n        /* \"#utility.yul\":968:983   */\n      div\n        /* \"#utility.yul\":965:966   */\n      dup5\n        /* \"#utility.yul\":962:984   */\n      eq\n        /* \"#utility.yul\":942:943   */\n      dup4\n        /* \"#utility.yul\":935:944   */\n      iszero\n        /* \"#utility.yul\":915:998   */\n      or\n        /* \"#utility.yul\":892:1031   */\n      tag_27\n      jumpi\n        /* \"#utility.yul\":1011:1029   */\n      tag_28\n      tag_15\n      jump\t// in\n    tag_28:\n        /* \"#utility.yul\":892:1031   */\n    tag_27:\n        /* \"#utility.yul\":676:1038   */\n      pop\n        /* \"#utility.yul\":628:1038   */\n      swap3\n      swap2\n      pop\n      pop\n      jump\t// out\n\n    auxdata: 0xa2646970667358221220e6e51982d2d5f9a08a39416d6f59f3aef8ecca0dfbff885348bc3415e09c104664736f6c634300081e0033\n}\n",
				"bytecode": {
					"linkReferences": {},
					"object": "608060405260125f55601c6001553480156017575f5ffd5b50610158806100255f395ff3fe608060405234801561000f575f5ffd5b5060043610610029575f3560e01c80639a381aa81461002d575b5f5ffd5b61003561004b565b604051610042919061009b565b60405180910390f35b5f5f5f90505f5460015411801561006557506001545f5414155b1561007c576001545f5461007991906100e1565b90505b8091505090565b5f819050919050565b61009581610083565b82525050565b5f6020820190506100ae5f83018461008c565b92915050565b7f4e487b71000000000000000000000000000000000000000000000000000000005f52601160045260245ffd5b5f6100eb82610083565b91506100f683610083565b925082820261010481610083565b9150828204841483151761011b5761011a6100b4565b5b509291505056fea2646970667358221220e6e51982d2d5f9a08a39416d6f59f3aef8ecca0dfbff885348bc3415e09c104664736f6c634300081e0033",
					"opcodes": "PUSH1 0x80 PUSH1 0x40 MSTORE PUSH1 0x12 PUSH0 SSTORE PUSH1 0x1C PUSH1 0x1 SSTORE CALLVALUE DUP1 ISZERO PUSH1 0x17 JUMPI PUSH0 PUSH0 REVERT JUMPDEST POP PUSH2 0x158 DUP1 PUSH2 0x25 PUSH0 CODECOPY PUSH0 RETURN INVALID PUSH1 0x80 PUSH1 0x40 MSTORE CALLVALUE DUP1 ISZERO PUSH2 0xF JUMPI PUSH0 PUSH0 REVERT JUMPDEST POP PUSH1 0x4 CALLDATASIZE LT PUSH2 0x29 JUMPI PUSH0 CALLDATALOAD PUSH1 0xE0 SHR DUP1 PUSH4 0x9A381AA8 EQ PUSH2 0x2D JUMPI JUMPDEST PUSH0 PUSH0 REVERT JUMPDEST PUSH2 0x35 PUSH2 0x4B JUMP JUMPDEST PUSH1 0x40 MLOAD PUSH2 0x42 SWAP2 SWAP1 PUSH2 0x9B JUMP JUMPDEST PUSH1 0x40 MLOAD DUP1 SWAP2 SUB SWAP1 RETURN JUMPDEST PUSH0 PUSH0 PUSH0 SWAP1 POP PUSH0 SLOAD PUSH1 0x1 SLOAD GT DUP1 ISZERO PUSH2 0x65 JUMPI POP PUSH1 0x1 SLOAD PUSH0 SLOAD EQ ISZERO JUMPDEST ISZERO PUSH2 0x7C JUMPI PUSH1 0x1 SLOAD PUSH0 SLOAD PUSH2 0x79 SWAP2 SWAP1 PUSH2 0xE1 JUMP JUMPDEST SWAP1 POP JUMPDEST DUP1 SWAP2 POP POP SWAP1 JUMP JUMPDEST PUSH0 DUP2 SWAP1 POP SWAP2 SWAP1 POP JUMP JUMPDEST PUSH2 0x95 DUP2 PUSH2 0x83 JUMP JUMPDEST DUP3 MSTORE POP POP JUMP JUMPDEST PUSH0 PUSH1 0x20 DUP3 ADD SWAP1 POP PUSH2 0xAE PUSH0 DUP4 ADD DUP5 PUSH2 0x8C JUMP JUMPDEST SWAP3 SWAP2 POP POP JUMP JUMPDEST PUSH32 0x4E487B7100000000000000000000000000000000000000000000000000000000 PUSH0 MSTORE PUSH1 0x11 PUSH1 0x4 MSTORE PUSH1 0x24 PUSH0 REVERT JUMPDEST PUSH0 PUSH2 0xEB DUP3 PUSH2 0x83 JUMP JUMPDEST SWAP2 POP PUSH2 0xF6 DUP4 PUSH2 0x83 JUMP JUMPDEST SWAP3 POP DUP3 DUP3 MUL PUSH2 0x104 DUP2 PUSH2 0x83 JUMP JUMPDEST SWAP2 POP DUP3 DUP3 DIV DUP5 EQ DUP4 ISZERO OR PUSH2 0x11B JUMPI PUSH2 0x11A PUSH2 0xB4 JUMP JUMPDEST JUMPDEST POP SWAP3 SWAP2 POP POP JUMP INVALID LOG2 PUSH5 0x6970667358 0x22 SLT KECCAK256 DUPN 0xE5 NOT DUP3 0xD2 0xD5 EXTDELEGATECALL LOG0 DUP11 CODECOPY COINBASE PUSH14 0x6F59F3AEF8ECCA0DFBFF885348BC CALLVALUE ISZERO RJUMP 0x9C10 CHAINID PUSH5 0x736F6C6343 STOP ADDMOD 0x1E STOP CALLER "
				},
				"gasEstimates": {
					"creation": {
						"codeDepositCost": "68800",
						"executionCost": "44326",
						"totalCost": "113126"
					},
					"external": {
						"Logic()": "infinite"
					}
				},
				"methodIdentifiers": {
					"Logic()": "9a381aa8"
				}
			},
			"storageLayout": {
				"storage": [
					{
						"astId": 101,
						"contract": "operators.sol:exerciseTwo",
						"label": "a",
						"offset": 0,
						"slot": "0",
						"type": "t_uint256"
					},
					{
						"astId": 104,
						"contract": "operators.sol:exerciseTwo",
						"label": "b",
						"offset": 0,
						"slot": "1",
						"type": "t_uint256"
					}
				],
				"types": {
					"t_uint256": {
						"encoding": "inplace",
						"label": "uint256",
						"numberOfBytes": "32"
					}
				}
			},
			"userdoc": {
				"kind": "user",
				"methods": {},
				"version": 1
			}
		}
	}
}