{
	"enums.sol": {
		"learnEnums": {
			"abi": [
				{
					"inputs": [],
					"name": "getChoice",
					"outputs": [
						{
							"internalType": "enum learnEnums.shirtColor",
							"name": "",
							"type": "uint8"
						}
					],
					"stateMutability": "view",
					"type": "function"
				},
				{
					"inputs": [],
					"name": "getDefaultChoice",
					"outputs": [
						{
							"internalType": "enum learnEnums.shirtColor",
							"name": "",
							"type": "uint8"
						}
					],
					"stateMutability": "view",
					"type": "function"
				},
				{
					"inputs": [],
					"name": "setWhite",
					"outputs": [],
					"stateMutability": "nonpayable",
					"type": "function"
				}
			],
			"devdoc": {
				"kind": "dev",
				"methods": {},
				"version": 1
			},
			"evm": {
				"assembly": "    /* \"enums.sol\":287:1159  contract learnEnums {... */\n  mstore(0x40, 0x80)\n  callvalue\n  dup1\n  iszero\n  tag_1\n  jumpi\n  revert(0x00, 0x00)\ntag_1:\n  pop\n  dataSize(sub_0)\n  dup1\n  dataOffset(sub_0)\n  0x00\n  codecopy\n  0x00\n  return\nstop\n\nsub_0: assembly {\n        /* \"enums.sol\":287:1159  contract learnEnums {... */\n      mstore(0x40, 0x80)\n      callvalue\n      dup1\n      iszero\n      tag_1\n      jumpi\n      revert(0x00, 0x00)\n    tag_1:\n      pop\n      jumpi(tag_2, lt(calldatasize, 0x04))\n      shr(0xe0, calldataload(0x00))\n      dup1\n      0x67cb61b6\n      eq\n      tag_3\n      jumpi\n      dup1\n      0x7e10e9d1\n      eq\n      tag_4\n      jumpi\n      dup1\n      0x843f7258\n      eq\n      tag_5\n      jumpi\n    tag_2:\n      revert(0x00, 0x00)\n        /* \"enums.sol\":968:1051  function getChoice() public view returns(shirtColor) {... */\n    tag_3:\n      tag_6\n      tag_7\n      jump\t// in\n    tag_6:\n      mload(0x40)\n      tag_8\n      swap2\n      swap1\n      tag_9\n      jump\t// in\n    tag_8:\n      mload(0x40)\n      dup1\n      swap2\n      sub\n      swap1\n      return\n        /* \"enums.sol\":893:962  function setWhite() public {... */\n    tag_4:\n      tag_10\n      tag_11\n      jump\t// in\n    tag_10:\n      stop\n        /* \"enums.sol\":1057:1154  function getDefaultChoice() public view returns(shirtColor) {... */\n    tag_5:\n      tag_12\n      tag_13\n      jump\t// in\n    tag_12:\n      mload(0x40)\n      tag_14\n      swap2\n      swap1\n      tag_9\n      jump\t// in\n    tag_14:\n      mload(0x40)\n      dup1\n      swap2\n      sub\n      swap1\n      return\n        /* \"enums.sol\":968:1051  function getChoice() public view returns(shirtColor) {... */\n    tag_7:\n        /* \"enums.sol\":1009:1019  shirtColor */\n      0x00\n        /* \"enums.sol\":1038:1044  choice */\n      0x00\n      0x00\n      swap1\n      sload\n      swap1\n      0x0100\n      exp\n      swap1\n      div\n      0xff\n      and\n        /* \"enums.sol\":1031:1044  return choice */\n      swap1\n      pop\n        /* \"enums.sol\":968:1051  function getChoice() public view returns(shirtColor) {... */\n      swap1\n      jump\t// out\n        /* \"enums.sol\":893:962  function setWhite() public {... */\n    tag_11:\n        /* \"enums.sol\":939:955  shirtColor.WHITE */\n      0x01\n        /* \"enums.sol\":930:936  choice */\n      0x00\n      0x00\n        /* \"enums.sol\":930:955  choice = shirtColor.WHITE */\n      0x0100\n      exp\n      dup2\n      sload\n      dup2\n      0xff\n      mul\n      not\n      and\n      swap1\n      dup4\n      0x02\n      dup2\n      gt\n      iszero\n      tag_17\n      jumpi\n      tag_18\n      tag_19\n      jump\t// in\n    tag_18:\n    tag_17:\n      mul\n      or\n      swap1\n      sstore\n      pop\n        /* \"enums.sol\":893:962  function setWhite() public {... */\n      jump\t// out\n        /* \"enums.sol\":1057:1154  function getDefaultChoice() public view returns(shirtColor) {... */\n    tag_13:\n        /* \"enums.sol\":1105:1115  shirtColor */\n      0x00\n        /* \"enums.sol\":871:886  shirtColor.BLUE */\n      0x02\n        /* \"enums.sol\":1127:1147  return defaultChoice */\n      swap1\n      pop\n        /* \"enums.sol\":1057:1154  function getDefaultChoice() public view returns(shirtColor) {... */\n      swap1\n      jump\t// out\n        /* \"#utility.yul\":7:187   */\n    tag_19:\n        /* \"#utility.yul\":55:132   */\n      0x4e487b7100000000000000000000000000000000000000000000000000000000\n        /* \"#utility.yul\":52:53   */\n      0x00\n        /* \"#utility.yul\":45:133   */\n      mstore\n        /* \"#utility.yul\":152:156   */\n      0x21\n        /* \"#utility.yul\":149:150   */\n      0x04\n        /* \"#utility.yul\":142:157   */\n      mstore\n        /* \"#utility.yul\":176:180   */\n      0x24\n        /* \"#utility.yul\":173:174   */\n      0x00\n        /* \"#utility.yul\":166:181   */\n      revert\n        /* \"#utility.yul\":193:310   */\n    tag_21:\n        /* \"#utility.yul\":278:279   */\n      0x03\n        /* \"#utility.yul\":271:276   */\n      dup2\n        /* \"#utility.yul\":268:280   */\n      lt\n        /* \"#utility.yul\":258:304   */\n      tag_28\n      jumpi\n        /* \"#utility.yul\":284:302   */\n      tag_29\n      tag_19\n      jump\t// in\n    tag_29:\n        /* \"#utility.yul\":258:304   */\n    tag_28:\n        /* \"#utility.yul\":193:310   */\n      pop\n      jump\t// out\n        /* \"#utility.yul\":316:451   */\n    tag_22:\n        /* \"#utility.yul\":365:372   */\n      0x00\n        /* \"#utility.yul\":394:399   */\n      dup2\n        /* \"#utility.yul\":383:399   */\n      swap1\n      pop\n        /* \"#utility.yul\":400:445   */\n      tag_31\n        /* \"#utility.yul\":439:444   */\n      dup3\n        /* \"#utility.yul\":400:445   */\n      tag_21\n      jump\t// in\n    tag_31:\n        /* \"#utility.yul\":316:451   */\n      swap2\n      swap1\n      pop\n      jump\t// out\n        /* \"#utility.yul\":457:592   */\n    tag_23:\n        /* \"#utility.yul\":517:526   */\n      0x00\n        /* \"#utility.yul\":550:586   */\n      tag_33\n        /* \"#utility.yul\":580:585   */\n      dup3\n        /* \"#utility.yul\":550:586   */\n      tag_22\n      jump\t// in\n    tag_33:\n        /* \"#utility.yul\":537:586   */\n      swap1\n      pop\n        /* \"#utility.yul\":457:592   */\n      swap2\n      swap1\n      pop\n      jump\t// out\n        /* \"#utility.yul\":598:749   */\n    tag_24:\n        /* \"#utility.yul\":695:742   */\n      tag_35\n        /* \"#utility.yul\":736:741   */\n      dup2\n        /* \"#utility.yul\":695:742   */\n      tag_23\n      jump\t// in\n    tag_35:\n        /* \"#utility.yul\":690:693   */\n      dup3\n        /* \"#utility.yul\":683:743   */\n      mstore\n        /* \"#utility.yul\":598:749   */\n      pop\n      pop\n      jump\t// out\n        /* \"#utility.yul\":755:997   */\n    tag_9:\n        /* \"#utility.yul\":858:862   */\n      0x00\n        /* \"#utility.yul\":896:898   */\n      0x20\n        /* \"#utility.yul\":885:894   */\n      dup3\n        /* \"#utility.yul\":881:899   */\n      add\n        /* \"#utility.yul\":873:899   */\n      swap1\n      pop\n        /* \"#utility.yul\":909:990   */\n      tag_37\n        /* \"#utility.yul\":987:988   */\n      0x00\n        /* \"#utility.yul\":976:985   */\n      dup4\n        /* \"#utility.yul\":972:989   */\n      add\n        /* \"#utility.yul\":963:969   */\n      dup5\n        /* \"#utility.yul\":909:990   */\n      tag_24\n      jump\t// in\n    tag_37:\n        /* \"#utility.yul\":755:997   */\n      swap3\n      swap2\n      pop\n      pop\n      jump\t// out\n\n    auxdata: 0xa26469706673582212204b3aba165d39df6dcf7c2d97486e8d875e80d3f4859bc4000060e0d46dd7deba64736f6c634300081e0033\n}\n",
				"bytecode": {
					"linkReferences": {},
					"object": "6080604052348015600e575f5ffd5b506101928061001c5f395ff3fe608060405234801561000f575f5ffd5b506004361061003f575f3560e01c806367cb61b6146100435780637e10e9d114610061578063843f72581461006b575b5f5ffd5b61004b610089565b6040516100589190610143565b60405180910390f35b61006961009d565b005b6100736100c8565b6040516100809190610143565b60405180910390f35b5f5f5f9054906101000a900460ff16905090565b60015f5f6101000a81548160ff021916908360028111156100c1576100c06100d0565b5b0217905550565b5f6002905090565b7f4e487b71000000000000000000000000000000000000000000000000000000005f52602160045260245ffd5b6003811061010e5761010d6100d0565b5b50565b5f81905061011e826100fd565b919050565b5f61012d82610111565b9050919050565b61013d81610123565b82525050565b5f6020820190506101565f830184610134565b9291505056fea26469706673582212204b3aba165d39df6dcf7c2d97486e8d875e80d3f4859bc4000060e0d46dd7deba64736f6c634300081e0033",
					"opcodes": "PUSH1 0x80 PUSH1 0x40 MSTORE CALLVALUE DUP1 ISZERO PUSH1 0xE JUMPI PUSH0 PUSH0 REVERT JUMPDEST POP PUSH2 0x192 DUP1 PUSH2 0x1C PUSH0 CODECOPY PUSH0 RETURN INVALID PUSH1 0x80 PUSH1 0x40 MSTORE CALLVALUE DUP1 ISZERO PUSH2 0xF JUMPI PUSH0 PUSH0 REVERT JUMPDEST POP PUSH1 0x4 CALLDATASIZE LT PUSH2 0x3F JUMPI PUSH0 CALLDATALOAD PUSH1 0xE0 SHR DUP1 PUSH4 0x67CB61B6 EQ PUSH2 0x43 JUMPI DUP1 PUSH4 0x7E10E9D1 EQ PUSH2 0x61 JUMPI DUP1 PUSH4 0x843F7258 EQ PUSH2 0x6B JUMPI JUMPDEST PUSH0 PUSH0 REVERT JUMPDEST PUSH2 0x4B PUSH2 0x89 JUMP JUMPDEST PUSH1 0x40 MLOAD PUSH2 0x58 SWAP2 SWAP1 PUSH2 0x143 JUMP JUMPDEST PUSH1 0x40 MLOAD DUP1 SWAP2 SUB SWAP1 RETURN JUMPDEST PUSH2 0x69 PUSH2 0x9D JUMP JUMPDEST STOP JUMPDEST PUSH2 0x73 PUSH2 0xC8 JUMP JUMPDEST PUSH1 0x40 MLOAD PUSH2 0x80 SWAP2 SWAP1 PUSH2 0x143 JUMP JUMPDEST PUSH1 0x40 MLOAD DUP1 SWAP2 SUB SWAP1 RETURN JUMPDEST PUSH0 PUSH0 PUSH0 SWAP1 SLOAD SWAP1 PUSH2 0x100 EXP SWAP1 DIV PUSH1 0xFF AND SWAP1 POP SWAP1 JUMP JUMPDEST PUSH1 0x1 PUSH0 PUSH0 PUSH2 0x100 EXP DUP2 SLOAD DUP2 PUSH1 0xFF MUL NOT AND SWAP1 DUP4 PUSH1 0x2 DUP2 GT ISZERO PUSH2 0xC1 JUMPI PUSH2 0xC0 PUSH2 0xD0 JUMP JUMPDEST JUMPDEST MUL OR SWAP1 SSTORE POP JUMP JUMPDEST PUSH0 PUSH1 0x2 SWAP1 POP SWAP1 JUMP JUMPDEST PUSH32 0x4E487B7100000000000000000000000000000000000000000000000000000000 PUSH0 MSTORE PUSH1 0x21 PUSH1 0x4 MSTORE PUSH1 0x24 PUSH0 REVERT JUMPDEST PUSH1 0x3 DUP2 LT PUSH2 0x10E JUMPI PUSH2 0x10D PUSH2 0xD0 JUMP JUMPDEST JUMPDEST POP JUMP JUMPDEST PUSH0 DUP2 SWAP1 POP PUSH2 0x11E DUP3 PUSH2 0xFD JUMP JUMPDEST SWAP2 SWAP1 POP JUMP JUMPDEST PUSH0 PUSH2 0x12D DUP3 PUSH2 0x111 JUMP JUMPDEST SWAP1 POP SWAP2 SWAP1 POP JUMP JUMPDEST PUSH2 0x13D DUP2 PUSH2 0x123 JUMP JUMPDEST DUP3 MSTORE POP POP JUMP JUMPDEST PUSH0 PUSH1 0x20 DUP3 ADD SWAP1 POP PUSH2 0x156 PUSH0 DUP4 ADD DUP5 PUSH2 0x134 JUMP JUMPDEST SWAP3 SWAP2 POP POP JUMP INVALID LOG2 PUSH5 0x6970667358 0x22 SLT KECCAK256 0x4B GASPRICE 0xBA AND TSTORE CODECOPY 0xDF PUSH14 0xCF7C2D97486E8D875E80D3F4859B 0xC4 STOP STOP PUSH1 0xE0 0xD4 PUSH14 0xD7DEBA64736F6C634300081E0033 "
				},
				"gasEstimates": {
					"creation": {
						"codeDepositCost": "80400",
						"executionCost": "127",
						"totalCost": "80527"
					},
					"external": {
						"getChoice()": "2538",
						"getDefaultChoice()": "448",
						"setWhite()": "24428"
					}
				},
				"methodIdentifiers": {
					"getChoice()": "67cb61b6",
					"getDefaultChoice()": "843f7258",
					"setWhite()": "7e10e9d1"
				}
			},
			"storageLayout": {
				"storage": [
					{
						"astId": 8,
						"contract": "enums.sol:learnEnums",
						"label": "choice",
						"offset": 0,
						"slot": "0",
						"type": "t_enum(shirtColor)5"
					}
				],
				"types": {
					"t_enum(shirtColor)5": {
						"encoding": "inplace",
						"label": "enum learnEnums.shirtColor",
						"numberOfBytes": "1"
					}
				}
			},
			"userdoc": {
				"kind": "user",
				"methods": {},
				"version": 1
			}
		}
	}
}