{
	"loops.sol": {
		"myLoopingPracticeContract": {
			"abi": [
				{
					"inputs": [],
					"name": "evenNumbersLoop",
					"outputs": [
						{
							"internalType": "uint256",
							"name": "",
							"type": "uint256"
						}
					],
					"stateMutability": "view",
					"type": "function"
				},
				{
					"inputs": [
						{
							"internalType": "uint256",
							"name": "userNumber",
							"type": "uint256"
						}
					],
					"name": "numbersListLoop",
					"outputs": [
						{
							"internalType": "bool",
							"name": "",
							"type": "bool"
						}
					],
					"stateMutability": "view",
					"type": "function"
				}
			],
			"devdoc": {
				"kind": "dev",
				"methods": {},
				"version": 1
			},
			"evm": {
				"assembly": "    /* \"loops.sol\":1594:2339  contract myLoopingPracticeContract {... */\n  mstore(0x40, 0x80)\n    /* \"loops.sol\":1649:1720  uint [] longList = [1,2,3,4,5,6,7,8,9,10,11,12,13,14,15,16,17,18,19,20] */\n  mload(0x40)\n  dup1\n  0x0280\n  add\n  0x40\n  mstore\n  dup1\n    /* \"loops.sol\":1669:1670  1 */\n  0x01\n    /* \"loops.sol\":1649:1720  uint [] longList = [1,2,3,4,5,6,7,8,9,10,11,12,13,14,15,16,17,18,19,20] */\n  0xff\n  and\n  dup2\n  mstore\n  0x20\n  add\n    /* \"loops.sol\":1671:1672  2 */\n  0x02\n    /* \"loops.sol\":1649:1720  uint [] longList = [1,2,3,4,5,6,7,8,9,10,11,12,13,14,15,16,17,18,19,20] */\n  0xff\n  and\n  dup2\n  mstore\n  0x20\n  add\n    /* \"loops.sol\":1673:1674  3 */\n  0x03\n    /* \"loops.sol\":1649:1720  uint [] longList = [1,2,3,4,5,6,7,8,9,10,11,12,13,14,15,16,17,18,19,20] */\n  0xff\n  and\n  dup2\n  mstore\n  0x20\n  add\n    /* \"loops.sol\":1675:1676  4 */\n  0x04\n    /* \"loops.sol\":1649:1720  uint [] longList = [1,2,3,4,5,6,7,8,9,10,11,12,13,14,15,16,17,18,19,20] */\n  0xff\n  and\n  dup2\n  mstore\n  0x20\n  add\n    /* \"loops.sol\":1677:1678  5 */\n  0x05\n    /* \"loops.sol\":1649:1720  uint [] longList = [1,2,3,4,5,6,7,8,9,10,11,12,13,14,15,16,17,18,19,20] */\n  0xff\n  and\n  dup2\n  mstore\n  0x20\n  add\n    /* \"loops.sol\":1679:1680  6 */\n  0x06\n    /* \"loops.sol\":1649:1720  uint [] longList = [1,2,3,4,5,6,7,8,9,10,11,12,13,14,15,16,17,18,19,20] */\n  0xff\n  and\n  dup2\n  mstore\n  0x20\n  add\n    /* \"loops.sol\":1681:1682  7 */\n  0x07\n    /* \"loops.sol\":1649:1720  uint [] longList = [1,2,3,4,5,6,7,8,9,10,11,12,13,14,15,16,17,18,19,20] */\n  0xff\n  and\n  dup2\n  mstore\n  0x20\n  add\n    /* \"loops.sol\":1683:1684  8 */\n  0x08\n    /* \"loops.sol\":1649:1720  uint [] longList = [1,2,3,4,5,6,7,8,9,10,11,12,13,14,15,16,17,18,19,20] */\n  0xff\n  and\n  dup2\n  mstore\n  0x20\n  add\n    /* \"loops.sol\":1685:1686  9 */\n  0x09\n    /* \"loops.sol\":1649:1720  uint [] longList = [1,2,3,4,5,6,7,8,9,10,11,12,13,14,15,16,17,18,19,20] */\n  0xff\n  and\n  dup2\n  mstore\n  0x20\n  add\n    /* \"loops.sol\":1687:1689  10 */\n  0x0a\n    /* \"loops.sol\":1649:1720  uint [] longList = [1,2,3,4,5,6,7,8,9,10,11,12,13,14,15,16,17,18,19,20] */\n  0xff\n  and\n  dup2\n  mstore\n  0x20\n  add\n    /* \"loops.sol\":1690:1692  11 */\n  0x0b\n    /* \"loops.sol\":1649:1720  uint [] longList = [1,2,3,4,5,6,7,8,9,10,11,12,13,14,15,16,17,18,19,20] */\n  0xff\n  and\n  dup2\n  mstore\n  0x20\n  add\n    /* \"loops.sol\":1693:1695  12 */\n  0x0c\n    /* \"loops.sol\":1649:1720  uint [] longList = [1,2,3,4,5,6,7,8,9,10,11,12,13,14,15,16,17,18,19,20] */\n  0xff\n  and\n  dup2\n  mstore\n  0x20\n  add\n    /* \"loops.sol\":1696:1698  13 */\n  0x0d\n    /* \"loops.sol\":1649:1720  uint [] longList = [1,2,3,4,5,6,7,8,9,10,11,12,13,14,15,16,17,18,19,20] */\n  0xff\n  and\n  dup2\n  mstore\n  0x20\n  add\n    /* \"loops.sol\":1699:1701  14 */\n  0x0e\n    /* \"loops.sol\":1649:1720  uint [] longList = [1,2,3,4,5,6,7,8,9,10,11,12,13,14,15,16,17,18,19,20] */\n  0xff\n  and\n  dup2\n  mstore\n  0x20\n  add\n    /* \"loops.sol\":1702:1704  15 */\n  0x0f\n    /* \"loops.sol\":1649:1720  uint [] longList = [1,2,3,4,5,6,7,8,9,10,11,12,13,14,15,16,17,18,19,20] */\n  0xff\n  and\n  dup2\n  mstore\n  0x20\n  add\n    /* \"loops.sol\":1705:1707  16 */\n  0x10\n    /* \"loops.sol\":1649:1720  uint [] longList = [1,2,3,4,5,6,7,8,9,10,11,12,13,14,15,16,17,18,19,20] */\n  0xff\n  and\n  dup2\n  mstore\n  0x20\n  add\n    /* \"loops.sol\":1708:1710  17 */\n  0x11\n    /* \"loops.sol\":1649:1720  uint [] longList = [1,2,3,4,5,6,7,8,9,10,11,12,13,14,15,16,17,18,19,20] */\n  0xff\n  and\n  dup2\n  mstore\n  0x20\n  add\n    /* \"loops.sol\":1711:1713  18 */\n  0x12\n    /* \"loops.sol\":1649:1720  uint [] longList = [1,2,3,4,5,6,7,8,9,10,11,12,13,14,15,16,17,18,19,20] */\n  0xff\n  and\n  dup2\n  mstore\n  0x20\n  add\n    /* \"loops.sol\":1714:1716  19 */\n  0x13\n    /* \"loops.sol\":1649:1720  uint [] longList = [1,2,3,4,5,6,7,8,9,10,11,12,13,14,15,16,17,18,19,20] */\n  0xff\n  and\n  dup2\n  mstore\n  0x20\n  add\n    /* \"loops.sol\":1717:1719  20 */\n  0x14\n    /* \"loops.sol\":1649:1720  uint [] longList = [1,2,3,4,5,6,7,8,9,10,11,12,13,14,15,16,17,18,19,20] */\n  0xff\n  and\n  dup2\n  mstore\n  pop\n  0x00\n  swap1\n  0x14\n  tag_1\n  swap3\n  swap2\n  swap1\n  tag_2\n  jump\t// in\ntag_1:\n  pop\n    /* \"loops.sol\":1726:1759  uint [] numbersList = [1,4,34,56] */\n  mload(0x40)\n  dup1\n  0x80\n  add\n  0x40\n  mstore\n  dup1\n    /* \"loops.sol\":1749:1750  1 */\n  0x01\n    /* \"loops.sol\":1726:1759  uint [] numbersList = [1,4,34,56] */\n  0xff\n  and\n  dup2\n  mstore\n  0x20\n  add\n    /* \"loops.sol\":1751:1752  4 */\n  0x04\n    /* \"loops.sol\":1726:1759  uint [] numbersList = [1,4,34,56] */\n  0xff\n  and\n  dup2\n  mstore\n  0x20\n  add\n    /* \"loops.sol\":1753:1755  34 */\n  0x22\n    /* \"loops.sol\":1726:1759  uint [] numbersList = [1,4,34,56] */\n  0xff\n  and\n  dup2\n  mstore\n  0x20\n  add\n    /* \"loops.sol\":1756:1758  56 */\n  0x38\n    /* \"loops.sol\":1726:1759  uint [] numbersList = [1,4,34,56] */\n  0xff\n  and\n  dup2\n  mstore\n  pop\n  0x01\n  swap1\n  0x04\n  tag_3\n  swap3\n  swap2\n  swap1\n  tag_4\n  jump\t// in\ntag_3:\n  pop\n    /* \"loops.sol\":1594:2339  contract myLoopingPracticeContract {... */\n  callvalue\n  dup1\n  iszero\n  tag_5\n  jumpi\n  revert(0x00, 0x00)\ntag_5:\n  pop\n  jump(tag_6)\ntag_2:\n  dup3\n  dup1\n  sload\n  dup3\n  dup3\n  sstore\n  swap1\n  0x00\n  mstore\n  keccak256(0x00, 0x20)\n  swap1\n  dup2\n  add\n  swap3\n  dup3\n  iszero\n  tag_7\n  jumpi\n  swap2\n  0x20\n  mul\n  dup3\n  add\ntag_8:\n  dup3\n  dup2\n  gt\n  iszero\n  tag_9\n  jumpi\n  dup3\n  mload\n  dup3\n  swap1\n  0xff\n  and\n  swap1\n  sstore\n  swap2\n  0x20\n  add\n  swap2\n  swap1\n  0x01\n  add\n  swap1\n  jump(tag_8)\ntag_9:\ntag_7:\n  pop\n  swap1\n  pop\n  tag_10\n  swap2\n  swap1\n  tag_11\n  jump\t// in\ntag_10:\n  pop\n  swap1\n  jump\t// out\ntag_4:\n  dup3\n  dup1\n  sload\n  dup3\n  dup3\n  sstore\n  swap1\n  0x00\n  mstore\n  keccak256(0x00, 0x20)\n  swap1\n  dup2\n  add\n  swap3\n  dup3\n  iszero\n  tag_12\n  jumpi\n  swap2\n  0x20\n  mul\n  dup3\n  add\ntag_13:\n  dup3\n  dup2\n  gt\n  iszero\n  tag_14\n  jumpi\n  dup3\n  mload\n  dup3\n  swap1\n  0xff\n  and\n  swap1\n  sstore\n  swap2\n  0x20\n  add\n  swap2\n  swap1\n  0x01\n  add\n  swap1\n  jump(tag_13)\ntag_14:\ntag_12:\n  pop\n  swap1\n  pop\n  tag_15\n  swap2\n  swap1\n  tag_11\n  jump\t// in\ntag_15:\n  pop\n  swap1\n  jump\t// out\ntag_11:\ntag_16:\n  dup1\n  dup3\n  gt\n  iszero\n  tag_17\n  jumpi\n  0x00\n  dup2\n  0x00\n  swap1\n  sstore\n  pop\n  0x01\n  add\n  jump(tag_16)\ntag_17:\n  pop\n  swap1\n  jump\t// out\ntag_6:\n  dataSize(sub_0)\n  dup1\n  dataOffset(sub_0)\n  0x00\n  codecopy\n  0x00\n  return\nstop\n\nsub_0: assembly {\n        /* \"loops.sol\":1594:2339  contract myLoopingPracticeContract {... */\n      mstore(0x40, 0x80)\n      callvalue\n      dup1\n      iszero\n      tag_1\n      jumpi\n      revert(0x00, 0x00)\n    tag_1:\n      pop\n      jumpi(tag_2, lt(calldatasize, 0x04))\n      shr(0xe0, calldataload(0x00))\n      dup1\n      0x5318425e\n      eq\n      tag_3\n      jumpi\n      dup1\n      0xed25cf75\n      eq\n      tag_4\n      jumpi\n    tag_2:\n      revert(0x00, 0x00)\n        /* \"loops.sol\":1766:2072  function numbersListLoop(uint userNumber) public view returns(bool) {... */\n    tag_3:\n      tag_5\n      0x04\n      dup1\n      calldatasize\n      sub\n      dup2\n      add\n      swap1\n      tag_6\n      swap2\n      swap1\n      tag_7\n      jump\t// in\n    tag_6:\n      tag_8\n      jump\t// in\n    tag_5:\n      mload(0x40)\n      tag_9\n      swap2\n      swap1\n      tag_10\n      jump\t// in\n    tag_9:\n      mload(0x40)\n      dup1\n      swap2\n      sub\n      swap1\n      return\n        /* \"loops.sol\":2122:2337  function evenNumbersLoop() public view returns(uint) {... */\n    tag_4:\n      tag_11\n      tag_12\n      jump\t// in\n    tag_11:\n      mload(0x40)\n      tag_13\n      swap2\n      swap1\n      tag_14\n      jump\t// in\n    tag_13:\n      mload(0x40)\n      dup1\n      swap2\n      sub\n      swap1\n      return\n        /* \"loops.sol\":1766:2072  function numbersListLoop(uint userNumber) public view returns(bool) {... */\n    tag_8:\n        /* \"loops.sol\":1828:1832  bool */\n      0x00\n        /* \"loops.sol\":1848:1865  bool numberExists */\n      0x00\n        /* \"loops.sol\":1868:1873  false */\n      0x00\n        /* \"loops.sol\":1848:1873  bool numberExists = false */\n      swap1\n      pop\n        /* \"loops.sol\":1887:1893  uint i */\n      0x00\n        /* \"loops.sol\":1896:1897  0 */\n      0x00\n        /* \"loops.sol\":1887:1897  uint i = 0 */\n      swap1\n      pop\n        /* \"loops.sol\":1883:2037  for(uint i = 0; i < numbersList.length; i++) {... */\n    tag_16:\n        /* \"loops.sol\":1903:1914  numbersList */\n      0x01\n        /* \"loops.sol\":1903:1921  numbersList.length */\n      dup1\n      sload\n      swap1\n      pop\n        /* \"loops.sol\":1899:1900  i */\n      dup2\n        /* \"loops.sol\":1899:1921  i < numbersList.length */\n      lt\n        /* \"loops.sol\":1883:2037  for(uint i = 0; i < numbersList.length; i++) {... */\n      iszero\n      tag_17\n      jumpi\n        /* \"loops.sol\":1963:1973  userNumber */\n      dup4\n        /* \"loops.sol\":1945:1956  numbersList */\n      0x01\n        /* \"loops.sol\":1957:1958  i */\n      dup3\n        /* \"loops.sol\":1945:1959  numbersList[i] */\n      dup2\n      sload\n      dup2\n      lt\n      tag_19\n      jumpi\n      tag_20\n      tag_21\n      jump\t// in\n    tag_20:\n    tag_19:\n      swap1\n      0x00\n      mstore\n      keccak256(0x00, 0x20)\n      add\n      sload\n        /* \"loops.sol\":1945:1973  numbersList[i] == userNumber */\n      sub\n        /* \"loops.sol\":1942:2027  if(numbersList[i] == userNumber) {... */\n      tag_23\n      jumpi\n        /* \"loops.sol\":2008:2012  true */\n      0x01\n        /* \"loops.sol\":1993:2012  numberExists = true */\n      swap2\n      pop\n        /* \"loops.sol\":1942:2027  if(numbersList[i] == userNumber) {... */\n    tag_23:\n        /* \"loops.sol\":1923:1926  i++ */\n      dup1\n      dup1\n      0x01\n      add\n      swap2\n      pop\n      pop\n        /* \"loops.sol\":1883:2037  for(uint i = 0; i < numbersList.length; i++) {... */\n      jump(tag_16)\n    tag_17:\n      pop\n        /* \"loops.sol\":2053:2065  numberExists */\n      dup1\n        /* \"loops.sol\":2046:2065  return numberExists */\n      swap2\n      pop\n      pop\n        /* \"loops.sol\":1766:2072  function numbersListLoop(uint userNumber) public view returns(bool) {... */\n      swap2\n      swap1\n      pop\n      jump\t// out\n        /* \"loops.sol\":2122:2337  function evenNumbersLoop() public view returns(uint) {... */\n    tag_12:\n        /* \"loops.sol\":2169:2173  uint */\n      0x00\n        /* \"loops.sol\":2181:2191  uint count */\n      0x00\n        /* \"loops.sol\":2194:2195  0 */\n      0x00\n        /* \"loops.sol\":2181:2195  uint count = 0 */\n      swap1\n      pop\n        /* \"loops.sol\":2205:2211  uint i */\n      0x00\n        /* \"loops.sol\":2214:2215  0 */\n      0x00\n        /* \"loops.sol\":2205:2215  uint i = 0 */\n      swap1\n      pop\n        /* \"loops.sol\":2201:2316  for(uint i = 0; i < longList.length; i ++) {... */\n    tag_25:\n        /* \"loops.sol\":2221:2229  longList */\n      0x00\n        /* \"loops.sol\":2221:2236  longList.length */\n      dup1\n      sload\n      swap1\n      pop\n        /* \"loops.sol\":2217:2218  i */\n      dup2\n        /* \"loops.sol\":2217:2236  i < longList.length */\n      lt\n        /* \"loops.sol\":2201:2316  for(uint i = 0; i < longList.length; i ++) {... */\n      iszero\n      tag_26\n      jumpi\n        /* \"loops.sol\":2274:2275  0 */\n      0x00\n        /* \"loops.sol\":2271:2272  2 */\n      0x02\n        /* \"loops.sol\":2257:2265  longList */\n      0x00\n        /* \"loops.sol\":2266:2267  i */\n      dup4\n        /* \"loops.sol\":2257:2268  longList[i] */\n      dup2\n      sload\n      dup2\n      lt\n      tag_28\n      jumpi\n      tag_29\n      tag_21\n      jump\t// in\n    tag_29:\n    tag_28:\n      swap1\n      0x00\n      mstore\n      keccak256(0x00, 0x20)\n      add\n      sload\n        /* \"loops.sol\":2257:2272  longList[i] % 2 */\n      tag_31\n      swap2\n      swap1\n      tag_32\n      jump\t// in\n    tag_31:\n        /* \"loops.sol\":2257:2275  longList[i] % 2==0 */\n      sub\n        /* \"loops.sol\":2254:2310  if(longList[i] % 2==0) {... */\n      tag_33\n      jumpi\n        /* \"loops.sol\":2291:2299  count ++ */\n      dup2\n      dup1\n      tag_34\n      swap1\n      tag_35\n      jump\t// in\n    tag_34:\n      swap3\n      pop\n      pop\n        /* \"loops.sol\":2254:2310  if(longList[i] % 2==0) {... */\n    tag_33:\n        /* \"loops.sol\":2238:2242  i ++ */\n      dup1\n      dup1\n      0x01\n      add\n      swap2\n      pop\n      pop\n        /* \"loops.sol\":2201:2316  for(uint i = 0; i < longList.length; i ++) {... */\n      jump(tag_25)\n    tag_26:\n      pop\n        /* \"loops.sol\":2328:2333  count */\n      dup1\n        /* \"loops.sol\":2321:2333  return count */\n      swap2\n      pop\n      pop\n        /* \"loops.sol\":2122:2337  function evenNumbersLoop() public view returns(uint) {... */\n      swap1\n      jump\t// out\n        /* \"#utility.yul\":88:205   */\n    tag_37:\n        /* \"#utility.yul\":197:198   */\n      0x00\n        /* \"#utility.yul\":194:195   */\n      0x00\n        /* \"#utility.yul\":187:199   */\n      revert\n        /* \"#utility.yul\":334:411   */\n    tag_39:\n        /* \"#utility.yul\":371:378   */\n      0x00\n        /* \"#utility.yul\":400:405   */\n      dup2\n        /* \"#utility.yul\":389:405   */\n      swap1\n      pop\n        /* \"#utility.yul\":334:411   */\n      swap2\n      swap1\n      pop\n      jump\t// out\n        /* \"#utility.yul\":417:539   */\n    tag_40:\n        /* \"#utility.yul\":490:514   */\n      tag_53\n        /* \"#utility.yul\":508:513   */\n      dup2\n        /* \"#utility.yul\":490:514   */\n      tag_39\n      jump\t// in\n    tag_53:\n        /* \"#utility.yul\":483:488   */\n      dup2\n        /* \"#utility.yul\":480:515   */\n      eq\n        /* \"#utility.yul\":470:533   */\n      tag_54\n      jumpi\n        /* \"#utility.yul\":529:530   */\n      0x00\n        /* \"#utility.yul\":526:527   */\n      0x00\n        /* \"#utility.yul\":519:531   */\n      revert\n        /* \"#utility.yul\":470:533   */\n    tag_54:\n        /* \"#utility.yul\":417:539   */\n      pop\n      jump\t// out\n        /* \"#utility.yul\":545:684   */\n    tag_41:\n        /* \"#utility.yul\":591:596   */\n      0x00\n        /* \"#utility.yul\":629:635   */\n      dup2\n        /* \"#utility.yul\":616:636   */\n      calldataload\n        /* \"#utility.yul\":607:636   */\n      swap1\n      pop\n        /* \"#utility.yul\":645:678   */\n      tag_56\n        /* \"#utility.yul\":672:677   */\n      dup2\n        /* \"#utility.yul\":645:678   */\n      tag_40\n      jump\t// in\n    tag_56:\n        /* \"#utility.yul\":545:684   */\n      swap3\n      swap2\n      pop\n      pop\n      jump\t// out\n        /* \"#utility.yul\":690:1019   */\n    tag_7:\n        /* \"#utility.yul\":749:755   */\n      0x00\n        /* \"#utility.yul\":798:800   */\n      0x20\n        /* \"#utility.yul\":786:795   */\n      dup3\n        /* \"#utility.yul\":777:784   */\n      dup5\n        /* \"#utility.yul\":773:796   */\n      sub\n        /* \"#utility.yul\":769:801   */\n      slt\n        /* \"#utility.yul\":766:885   */\n      iszero\n      tag_58\n      jumpi\n        /* \"#utility.yul\":804:883   */\n      tag_59\n      tag_37\n      jump\t// in\n    tag_59:\n        /* \"#utility.yul\":766:885   */\n    tag_58:\n        /* \"#utility.yul\":924:925   */\n      0x00\n        /* \"#utility.yul\":949:1002   */\n      tag_60\n        /* \"#utility.yul\":994:1001   */\n      dup5\n        /* \"#utility.yul\":985:991   */\n      dup3\n        /* \"#utility.yul\":974:983   */\n      dup6\n        /* \"#utility.yul\":970:992   */\n      add\n        /* \"#utility.yul\":949:1002   */\n      tag_41\n      jump\t// in\n    tag_60:\n        /* \"#utility.yul\":939:1002   */\n      swap2\n      pop\n        /* \"#utility.yul\":895:1012   */\n      pop\n        /* \"#utility.yul\":690:1019   */\n      swap3\n      swap2\n      pop\n      pop\n      jump\t// out\n        /* \"#utility.yul\":1025:1115   */\n    tag_42:\n        /* \"#utility.yul\":1059:1066   */\n      0x00\n        /* \"#utility.yul\":1102:1107   */\n      dup2\n        /* \"#utility.yul\":1095:1108   */\n      iszero\n        /* \"#utility.yul\":1088:1109   */\n      iszero\n        /* \"#utility.yul\":1077:1109   */\n      swap1\n      pop\n        /* \"#utility.yul\":1025:1115   */\n      swap2\n      swap1\n      pop\n      jump\t// out\n        /* \"#utility.yul\":1121:1230   */\n    tag_43:\n        /* \"#utility.yul\":1202:1223   */\n      tag_63\n        /* \"#utility.yul\":1217:1222   */\n      dup2\n        /* \"#utility.yul\":1202:1223   */\n      tag_42\n      jump\t// in\n    tag_63:\n        /* \"#utility.yul\":1197:1200   */\n      dup3\n        /* \"#utility.yul\":1190:1224   */\n      mstore\n        /* \"#utility.yul\":1121:1230   */\n      pop\n      pop\n      jump\t// out\n        /* \"#utility.yul\":1236:1446   */\n    tag_10:\n        /* \"#utility.yul\":1323:1327   */\n      0x00\n        /* \"#utility.yul\":1361:1363   */\n      0x20\n        /* \"#utility.yul\":1350:1359   */\n      dup3\n        /* \"#utility.yul\":1346:1364   */\n      add\n        /* \"#utility.yul\":1338:1364   */\n      swap1\n      pop\n        /* \"#utility.yul\":1374:1439   */\n      tag_65\n        /* \"#utility.yul\":1436:1437   */\n      0x00\n        /* \"#utility.yul\":1425:1434   */\n      dup4\n        /* \"#utility.yul\":1421:1438   */\n      add\n        /* \"#utility.yul\":1412:1418   */\n      dup5\n        /* \"#utility.yul\":1374:1439   */\n      tag_43\n      jump\t// in\n    tag_65:\n        /* \"#utility.yul\":1236:1446   */\n      swap3\n      swap2\n      pop\n      pop\n      jump\t// out\n        /* \"#utility.yul\":1452:1570   */\n    tag_44:\n        /* \"#utility.yul\":1539:1563   */\n      tag_67\n        /* \"#utility.yul\":1557:1562   */\n      dup2\n        /* \"#utility.yul\":1539:1563   */\n      tag_39\n      jump\t// in\n    tag_67:\n        /* \"#utility.yul\":1534:1537   */\n      dup3\n        /* \"#utility.yul\":1527:1564   */\n      mstore\n        /* \"#utility.yul\":1452:1570   */\n      pop\n      pop\n      jump\t// out\n        /* \"#utility.yul\":1576:1798   */\n    tag_14:\n        /* \"#utility.yul\":1669:1673   */\n      0x00\n        /* \"#utility.yul\":1707:1709   */\n      0x20\n        /* \"#utility.yul\":1696:1705   */\n      dup3\n        /* \"#utility.yul\":1692:1710   */\n      add\n        /* \"#utility.yul\":1684:1710   */\n      swap1\n      pop\n        /* \"#utility.yul\":1720:1791   */\n      tag_69\n        /* \"#utility.yul\":1788:1789   */\n      0x00\n        /* \"#utility.yul\":1777:1786   */\n      dup4\n        /* \"#utility.yul\":1773:1790   */\n      add\n        /* \"#utility.yul\":1764:1770   */\n      dup5\n        /* \"#utility.yul\":1720:1791   */\n      tag_44\n      jump\t// in\n    tag_69:\n        /* \"#utility.yul\":1576:1798   */\n      swap3\n      swap2\n      pop\n      pop\n      jump\t// out\n        /* \"#utility.yul\":1804:1984   */\n    tag_21:\n        /* \"#utility.yul\":1852:1929   */\n      0x4e487b7100000000000000000000000000000000000000000000000000000000\n        /* \"#utility.yul\":1849:1850   */\n      0x00\n        /* \"#utility.yul\":1842:1930   */\n      mstore\n        /* \"#utility.yul\":1949:1953   */\n      0x32\n        /* \"#utility.yul\":1946:1947   */\n      0x04\n        /* \"#utility.yul\":1939:1954   */\n      mstore\n        /* \"#utility.yul\":1973:1977   */\n      0x24\n        /* \"#utility.yul\":1970:1971   */\n      0x00\n        /* \"#utility.yul\":1963:1978   */\n      revert\n        /* \"#utility.yul\":1990:2170   */\n    tag_45:\n        /* \"#utility.yul\":2038:2115   */\n      0x4e487b7100000000000000000000000000000000000000000000000000000000\n        /* \"#utility.yul\":2035:2036   */\n      0x00\n        /* \"#utility.yul\":2028:2116   */\n      mstore\n        /* \"#utility.yul\":2135:2139   */\n      0x12\n        /* \"#utility.yul\":2132:2133   */\n      0x04\n        /* \"#utility.yul\":2125:2140   */\n      mstore\n        /* \"#utility.yul\":2159:2163   */\n      0x24\n        /* \"#utility.yul\":2156:2157   */\n      0x00\n        /* \"#utility.yul\":2149:2164   */\n      revert\n        /* \"#utility.yul\":2176:2352   */\n    tag_32:\n        /* \"#utility.yul\":2208:2209   */\n      0x00\n        /* \"#utility.yul\":2225:2245   */\n      tag_73\n        /* \"#utility.yul\":2243:2244   */\n      dup3\n        /* \"#utility.yul\":2225:2245   */\n      tag_39\n      jump\t// in\n    tag_73:\n        /* \"#utility.yul\":2220:2245   */\n      swap2\n      pop\n        /* \"#utility.yul\":2259:2279   */\n      tag_74\n        /* \"#utility.yul\":2277:2278   */\n      dup4\n        /* \"#utility.yul\":2259:2279   */\n      tag_39\n      jump\t// in\n    tag_74:\n        /* \"#utility.yul\":2254:2279   */\n      swap3\n      pop\n        /* \"#utility.yul\":2298:2299   */\n      dup3\n        /* \"#utility.yul\":2288:2323   */\n      tag_75\n      jumpi\n        /* \"#utility.yul\":2303:2321   */\n      tag_76\n      tag_45\n      jump\t// in\n    tag_76:\n        /* \"#utility.yul\":2288:2323   */\n    tag_75:\n        /* \"#utility.yul\":2344:2345   */\n      dup3\n        /* \"#utility.yul\":2341:2342   */\n      dup3\n        /* \"#utility.yul\":2337:2346   */\n      mod\n        /* \"#utility.yul\":2332:2346   */\n      swap1\n      pop\n        /* \"#utility.yul\":2176:2352   */\n      swap3\n      swap2\n      pop\n      pop\n      jump\t// out\n        /* \"#utility.yul\":2358:2538   */\n    tag_46:\n        /* \"#utility.yul\":2406:2483   */\n      0x4e487b7100000000000000000000000000000000000000000000000000000000\n        /* \"#utility.yul\":2403:2404   */\n      0x00\n        /* \"#utility.yul\":2396:2484   */\n      mstore\n        /* \"#utility.yul\":2503:2507   */\n      0x11\n        /* \"#utility.yul\":2500:2501   */\n      0x04\n        /* \"#utility.yul\":2493:2508   */\n      mstore\n        /* \"#utility.yul\":2527:2531   */\n      0x24\n        /* \"#utility.yul\":2524:2525   */\n      0x00\n        /* \"#utility.yul\":2517:2532   */\n      revert\n        /* \"#utility.yul\":2544:2777   */\n    tag_35:\n        /* \"#utility.yul\":2583:2586   */\n      0x00\n        /* \"#utility.yul\":2606:2630   */\n      tag_79\n        /* \"#utility.yul\":2624:2629   */\n      dup3\n        /* \"#utility.yul\":2606:2630   */\n      tag_39\n      jump\t// in\n    tag_79:\n        /* \"#utility.yul\":2597:2630   */\n      swap2\n      pop\n        /* \"#utility.yul\":2652:2718   */\n      0xffffffffffffffffffffffffffffffffffffffffffffffffffffffffffffffff\n        /* \"#utility.yul\":2645:2650   */\n      dup3\n        /* \"#utility.yul\":2642:2719   */\n      sub\n        /* \"#utility.yul\":2639:2742   */\n      tag_80\n      jumpi\n        /* \"#utility.yul\":2722:2740   */\n      tag_81\n      tag_46\n      jump\t// in\n    tag_81:\n        /* \"#utility.yul\":2639:2742   */\n    tag_80:\n        /* \"#utility.yul\":2769:2770   */\n      0x01\n        /* \"#utility.yul\":2762:2767   */\n      dup3\n        /* \"#utility.yul\":2758:2771   */\n      add\n        /* \"#utility.yul\":2751:2771   */\n      swap1\n      pop\n        /* \"#utility.yul\":2544:2777   */\n      swap2\n      swap1\n      pop\n      jump\t// out\n\n    auxdata: 0xa2646970667358221220dbdab4c10d11b77b2c15cdd549f25a1bef164f6534dfe94fe0b7e9d9f17ad30f64736f6c634300081e0033\n}\n",
				"bytecode": {
					"linkReferences": {},
					"object": "6080604052604051806102800160405280600160ff168152602001600260ff168152602001600360ff168152602001600460ff168152602001600560ff168152602001600660ff168152602001600760ff168152602001600860ff168152602001600960ff168152602001600a60ff168152602001600b60ff168152602001600c60ff168152602001600d60ff168152602001600e60ff168152602001600f60ff168152602001601060ff168152602001601160ff168152602001601260ff168152602001601360ff168152602001601460ff168152505f9060146100e5929190610139565b506040518060800160405280600160ff168152602001600460ff168152602001602260ff168152602001603860ff168152506001906004610127929190610189565b50348015610133575f5ffd5b506101f4565b828054828255905f5260205f20908101928215610178579160200282015b82811115610177578251829060ff16905591602001919060010190610157565b5b50905061018591906101d9565b5090565b828054828255905f5260205f209081019282156101c8579160200282015b828111156101c7578251829060ff169055916020019190600101906101a7565b5b5090506101d591906101d9565b5090565b5b808211156101f0575f815f9055506001016101da565b5090565b610335806102015f395ff3fe608060405234801561000f575f5ffd5b5060043610610034575f3560e01c80635318425e14610038578063ed25cf7514610068575b5f5ffd5b610052600480360381019061004d919061017b565b610086565b60405161005f91906101c0565b60405180910390f35b6100706100dc565b60405161007d91906101e8565b60405180910390f35b5f5f5f90505f5f90505b6001805490508110156100d25783600182815481106100b2576100b1610201565b5b905f5260205f200154036100c557600191505b8080600101915050610090565b5080915050919050565b5f5f5f90505f5f90505b5f8054905081101561013c575f60025f838154811061010857610107610201565b5b905f5260205f20015461011b919061025b565b0361012f57818061012b906102b8565b9250505b80806001019150506100e6565b508091505090565b5f5ffd5b5f819050919050565b61015a81610148565b8114610164575f5ffd5b50565b5f8135905061017581610151565b92915050565b5f602082840312156101905761018f610144565b5b5f61019d84828501610167565b91505092915050565b5f8115159050919050565b6101ba816101a6565b82525050565b5f6020820190506101d35f8301846101b1565b92915050565b6101e281610148565b82525050565b5f6020820190506101fb5f8301846101d9565b92915050565b7f4e487b71000000000000000000000000000000000000000000000000000000005f52603260045260245ffd5b7f4e487b71000000000000000000000000000000000000000000000000000000005f52601260045260245ffd5b5f61026582610148565b915061027083610148565b9250826102805761027f61022e565b5b828206905092915050565b7f4e487b71000000000000000000000000000000000000000000000000000000005f52601160045260245ffd5b5f6102c282610148565b91507fffffffffffffffffffffffffffffffffffffffffffffffffffffffffffffffff82036102f4576102f361028b565b5b60018201905091905056fea2646970667358221220dbdab4c10d11b77b2c15cdd549f25a1bef164f6534dfe94fe0b7e9d9f17ad30f64736f6c634300081e0033",
					"opcodes": "PUSH1 0x80 PUSH1 0x40 MSTORE PUSH1 0x40 MLOAD DUP1 PUSH2 0x280 ADD PUSH1 0x40 MSTORE DUP1 PUSH1 0x1 PUSH1 0xFF AND DUP2 MSTORE PUSH1 0x20 ADD PUSH1 0x2 PUSH1 0xFF AND DUP2 MSTORE PUSH1 0x20 ADD PUSH1 0x3 PUSH1 0xFF AND DUP2 MSTORE PUSH1 0x20 ADD PUSH1 0x4 PUSH1 0xFF AND DUP2 MSTORE PUSH1 0x20 ADD PUSH1 0x5 PUSH1 0xFF AND DUP2 MSTORE PUSH1 0x20 ADD PUSH1 0x6 PUSH1 0xFF AND DUP2 MSTORE PUSH1 0x20 ADD PUSH1 0x7 PUSH1 0xFF AND DUP2 MSTORE PUSH1 0x20 ADD PUSH1 0x8 PUSH1 0xFF AND DUP2 MSTORE PUSH1 0x20 ADD PUSH1 0x9 PUSH1 0xFF AND DUP2 MSTORE PUSH1 0x20 ADD PUSH1 0xA PUSH1 0xFF AND DUP2 MSTORE PUSH1 0x20 ADD PUSH1 0xB PUSH1 0xFF AND DUP2 MSTORE PUSH1 0x20 ADD PUSH1 0xC PUSH1 0xFF AND DUP2 MSTORE PUSH1 0x20 ADD PUSH1 0xD PUSH1 0xFF AND DUP2 MSTORE PUSH1 0x20 ADD PUSH1 0xE PUSH1 0xFF AND DUP2 MSTORE PUSH1 0x20 ADD PUSH1 0xF PUSH1 0xFF AND DUP2 MSTORE PUSH1 0x20 ADD PUSH1 0x10 PUSH1 0xFF AND DUP2 MSTORE PUSH1 0x20 ADD PUSH1 0x11 PUSH1 0xFF AND DUP2 MSTORE PUSH1 0x20 ADD PUSH1 0x12 PUSH1 0xFF AND DUP2 MSTORE PUSH1 0x20 ADD PUSH1 0x13 PUSH1 0xFF AND DUP2 MSTORE PUSH1 0x20 ADD PUSH1 0x14 PUSH1 0xFF AND DUP2 MSTORE POP PUSH0 SWAP1 PUSH1 0x14 PUSH2 0xE5 SWAP3 SWAP2 SWAP1 PUSH2 0x139 JUMP JUMPDEST POP PUSH1 0x40 MLOAD DUP1 PUSH1 0x80 ADD PUSH1 0x40 MSTORE DUP1 PUSH1 0x1 PUSH1 0xFF AND DUP2 MSTORE PUSH1 0x20 ADD PUSH1 0x4 PUSH1 0xFF AND DUP2 MSTORE PUSH1 0x20 ADD PUSH1 0x22 PUSH1 0xFF AND DUP2 MSTORE PUSH1 0x20 ADD PUSH1 0x38 PUSH1 0xFF AND DUP2 MSTORE POP PUSH1 0x1 SWAP1 PUSH1 0x4 PUSH2 0x127 SWAP3 SWAP2 SWAP1 PUSH2 0x189 JUMP JUMPDEST POP CALLVALUE DUP1 ISZERO PUSH2 0x133 JUMPI PUSH0 PUSH0 REVERT JUMPDEST POP PUSH2 0x1F4 JUMP JUMPDEST DUP3 DUP1 SLOAD DUP3 DUP3 SSTORE SWAP1 PUSH0 MSTORE PUSH1 0x20 PUSH0 KECCAK256 SWAP1 DUP2 ADD SWAP3 DUP3 ISZERO PUSH2 0x178 JUMPI SWAP2 PUSH1 0x20 MUL DUP3 ADD JUMPDEST DUP3 DUP2 GT ISZERO PUSH2 0x177 JUMPI DUP3 MLOAD DUP3 SWAP1 PUSH1 0xFF AND SWAP1 SSTORE SWAP2 PUSH1 0x20 ADD SWAP2 SWAP1 PUSH1 0x1 ADD SWAP1 PUSH2 0x157 JUMP JUMPDEST JUMPDEST POP SWAP1 POP PUSH2 0x185 SWAP2 SWAP1 PUSH2 0x1D9 JUMP JUMPDEST POP SWAP1 JUMP JUMPDEST DUP3 DUP1 SLOAD DUP3 DUP3 SSTORE SWAP1 PUSH0 MSTORE PUSH1 0x20 PUSH0 KECCAK256 SWAP1 DUP2 ADD SWAP3 DUP3 ISZERO PUSH2 0x1C8 JUMPI SWAP2 PUSH1 0x20 MUL DUP3 ADD JUMPDEST DUP3 DUP2 GT ISZERO PUSH2 0x1C7 JUMPI DUP3 MLOAD DUP3 SWAP1 PUSH1 0xFF AND SWAP1 SSTORE SWAP2 PUSH1 0x20 ADD SWAP2 SWAP1 PUSH1 0x1 ADD SWAP1 PUSH2 0x1A7 JUMP JUMPDEST JUMPDEST POP SWAP1 POP PUSH2 0x1D5 SWAP2 SWAP1 PUSH2 0x1D9 JUMP JUMPDEST POP SWAP1 JUMP JUMPDEST JUMPDEST DUP1 DUP3 GT ISZERO PUSH2 0x1F0 JUMPI PUSH0 DUP2 PUSH0 SWAP1 SSTORE POP PUSH1 0x1 ADD PUSH2 0x1DA JUMP JUMPDEST POP SWAP1 JUMP JUMPDEST PUSH2 0x335 DUP1 PUSH2 0x201 PUSH0 CODECOPY PUSH0 RETURN INVALID PUSH1 0x80 PUSH1 0x40 MSTORE CALLVALUE DUP1 ISZERO PUSH2 0xF JUMPI PUSH0 PUSH0 REVERT JUMPDEST POP PUSH1 0x4 CALLDATASIZE LT PUSH2 0x34 JUMPI PUSH0 CALLDATALOAD PUSH1 0xE0 SHR DUP1 PUSH4 0x5318425E EQ PUSH2 0x38 JUMPI DUP1 PUSH4 0xED25CF75 EQ PUSH2 0x68 JUMPI JUMPDEST PUSH0 PUSH0 REVERT JUMPDEST PUSH2 0x52 PUSH1 0x4 DUP1 CALLDATASIZE SUB DUP2 ADD SWAP1 PUSH2 0x4D SWAP2 SWAP1 PUSH2 0x17B JUMP JUMPDEST PUSH2 0x86 JUMP JUMPDEST PUSH1 0x40 MLOAD PUSH2 0x5F SWAP2 SWAP1 PUSH2 0x1C0 JUMP JUMPDEST PUSH1 0x40 MLOAD DUP1 SWAP2 SUB SWAP1 RETURN JUMPDEST PUSH2 0x70 PUSH2 0xDC JUMP JUMPDEST PUSH1 0x40 MLOAD PUSH2 0x7D SWAP2 SWAP1 PUSH2 0x1E8 JUMP JUMPDEST PUSH1 0x40 MLOAD DUP1 SWAP2 SUB SWAP1 RETURN JUMPDEST PUSH0 PUSH0 PUSH0 SWAP1 POP PUSH0 PUSH0 SWAP1 POP JUMPDEST PUSH1 0x1 DUP1 SLOAD SWAP1 POP DUP2 LT ISZERO PUSH2 0xD2 JUMPI DUP4 PUSH1 0x1 DUP3 DUP2 SLOAD DUP2 LT PUSH2 0xB2 JUMPI PUSH2 0xB1 PUSH2 0x201 JUMP JUMPDEST JUMPDEST SWAP1 PUSH0 MSTORE PUSH1 0x20 PUSH0 KECCAK256 ADD SLOAD SUB PUSH2 0xC5 JUMPI PUSH1 0x1 SWAP2 POP JUMPDEST DUP1 DUP1 PUSH1 0x1 ADD SWAP2 POP POP PUSH2 0x90 JUMP JUMPDEST POP DUP1 SWAP2 POP POP SWAP2 SWAP1 POP JUMP JUMPDEST PUSH0 PUSH0 PUSH0 SWAP1 POP PUSH0 PUSH0 SWAP1 POP JUMPDEST PUSH0 DUP1 SLOAD SWAP1 POP DUP2 LT ISZERO PUSH2 0x13C JUMPI PUSH0 PUSH1 0x2 PUSH0 DUP4 DUP2 SLOAD DUP2 LT PUSH2 0x108 JUMPI PUSH2 0x107 PUSH2 0x201 JUMP JUMPDEST JUMPDEST SWAP1 PUSH0 MSTORE PUSH1 0x20 PUSH0 KECCAK256 ADD SLOAD PUSH2 0x11B SWAP2 SWAP1 PUSH2 0x25B JUMP JUMPDEST SUB PUSH2 0x12F JUMPI DUP2 DUP1 PUSH2 0x12B SWAP1 PUSH2 0x2B8 JUMP JUMPDEST SWAP3 POP POP JUMPDEST DUP1 DUP1 PUSH1 0x1 ADD SWAP2 POP POP PUSH2 0xE6 JUMP JUMPDEST POP DUP1 SWAP2 POP POP SWAP1 JUMP JUMPDEST PUSH0 PUSH0 REVERT JUMPDEST PUSH0 DUP2 SWAP1 POP SWAP2 SWAP1 POP JUMP JUMPDEST PUSH2 0x15A DUP2 PUSH2 0x148 JUMP JUMPDEST DUP2 EQ PUSH2 0x164 JUMPI PUSH0 PUSH0 REVERT JUMPDEST POP JUMP JUMPDEST PUSH0 DUP2 CALLDATALOAD SWAP1 POP PUSH2 0x175 DUP2 PUSH2 0x151 JUMP JUMPDEST SWAP3 SWAP2 POP POP JUMP JUMPDEST PUSH0 PUSH1 0x20 DUP3 DUP5 SUB SLT ISZERO PUSH2 0x190 JUMPI PUSH2 0x18F PUSH2 0x144 JUMP JUMPDEST JUMPDEST PUSH0 PUSH2 0x19D DUP5 DUP3 DUP6 ADD PUSH2 0x167 JUMP JUMPDEST SWAP2 POP POP SWAP3 SWAP2 POP POP JUMP JUMPDEST PUSH0 DUP2 ISZERO ISZERO SWAP1 POP SWAP2 SWAP1 POP JUMP JUMPDEST PUSH2 0x1BA DUP2 PUSH2 0x1A6 JUMP JUMPDEST DUP3 MSTORE POP POP JUMP JUMPDEST PUSH0 PUSH1 0x20 DUP3 ADD SWAP1 POP PUSH2 0x1D3 PUSH0 DUP4 ADD DUP5 PUSH2 0x1B1 JUMP JUMPDEST SWAP3 SWAP2 POP POP JUMP JUMPDEST PUSH2 0x1E2 DUP2 PUSH2 0x148 JUMP JUMPDEST DUP3 MSTORE POP POP JUMP JUMPDEST PUSH0 PUSH1 0x20 DUP3 ADD SWAP1 POP PUSH2 0x1FB PUSH0 DUP4 ADD DUP5 PUSH2 0x1D9 JUMP JUMPDEST SWAP3 SWAP2 POP POP JUMP JUMPDEST PUSH32 0x4E487B7100000000000000000000000000000000000000000000000000000000 PUSH0 MSTORE PUSH1 0x32 PUSH1 0x4 MSTORE PUSH1 0x24 PUSH0 REVERT JUMPDEST PUSH32 0x4E487B7100000000000000000000000000000000000000000000000000000000 PUSH0 MSTORE PUSH1 0x12 PUSH1 0x4 MSTORE PUSH1 0x24 PUSH0 REVERT JUMPDEST PUSH0 PUSH2 0x265 DUP3 PUSH2 0x148 JUMP JUMPDEST SWAP2 POP PUSH2 0x270 DUP4 PUSH2 0x148 JUMP JUMPDEST SWAP3 POP DUP3 PUSH2 0x280 JUMPI PUSH2 0x27F PUSH2 0x22E JUMP JUMPDEST JUMPDEST DUP3 DUP3 MOD SWAP1 POP SWAP3 SWAP2 POP POP JUMP JUMPDEST PUSH32 0x4E487B7100000000000000000000000000000000000000000000000000000000 PUSH0 MSTORE PUSH1 0x11 PUSH1 0x4 MSTORE PUSH1 0x24 PUSH0 REVERT JUMPDEST PUSH0 PUSH2 0x2C2 DUP3 PUSH2 0x148 JUMP JUMPDEST SWAP2 POP PUSH32 0xFFFFFFFFFFFFFFFFFFFFFFFFFFFFFFFFFFFFFFFFFFFFFFFFFFFFFFFFFFFFFFFF DUP3 SUB PUSH2 0x2F4 JUMPI PUSH2 0x2F3 PUSH2 0x28B JUMP JUMPDEST JUMPDEST PUSH1 0x1 DUP3 ADD SWAP1 POP SWAP2 SWAP1 POP JUMP INVALID LOG2 PUSH5 0x6970667358 0x22 SLT KECCAK256 0xDB 0xDA 0xB4 0xC1 0xD GT 0xB7 PUSH28 0x2C15CDD549F25A1BEF164F6534DFE94FE0B7E9D9F17AD30F64736F6C PUSH4 0x4300081E STOP CALLER "
				},
				"gasEstimates": {
					"creation": {
						"codeDepositCost": "164200",
						"executionCost": "infinite",
						"totalCost": "infinite"
					},
					"external": {
						"evenNumbersLoop()": "infinite",
						"numbersListLoop(uint256)": "infinite"
					}
				},
				"methodIdentifiers": {
					"evenNumbersLoop()": "ed25cf75",
					"numbersListLoop(uint256)": "5318425e"
				}
			},
			"storageLayout": {
				"storage": [
					{
						"astId": 100,
						"contract": "loops.sol:myLoopingPracticeContract",
						"label": "longList",
						"offset": 0,
						"slot": "0",
						"type": "t_array(t_uint256)dyn_storage"
					},
					{
						"astId": 108,
						"contract": "loops.sol:myLoopingPracticeContract",
						"label": "numbersList",
						"offset": 0,
						"slot": "1",
						"type": "t_array(t_uint256)dyn_storage"
					}
				],
				"types": {
					"t_array(t_uint256)dyn_storage": {
						"base": "t_uint256",
						"encoding": "dynamic_array",
						"label": "uint256[]",
						"numberOfBytes": "32"
					},
					"t_uint256": {
						"encoding": "inplace",
						"label": "uint256",
						"numberOfBytes": "32"
					}
				}
			},
			"userdoc": {
				"kind": "user",
				"methods": {},
				"version": 1
			}
		}
	}
}