{
	"variableScopeExample.sol": {
		"C": {
			"abi": [
				{
					"inputs": [],
					"name": "data",
					"outputs": [
						{
							"internalType": "uint256",
							"name": "",
							"type": "uint256"
						}
					],
					"stateMutability": "view",
					"type": "function"
				},
				{
					"inputs": [],
					"name": "x",
					"outputs": [
						{
							"internalType": "uint256",
							"name": "",
							"type": "uint256"
						}
					],
					"stateMutability": "view",
					"type": "function"
				},
				{
					"inputs": [],
					"name": "y",
					"outputs": [
						{
							"internalType": "uint256",
							"name": "",
							"type": "uint256"
						}
					],
					"stateMutability": "view",
					"type": "function"
				}
			],
			"devdoc": {
				"kind": "dev",
				"methods": {},
				"version": 1
			},
			"evm": {
				"assembly": "    /* \"variableScopeExample.sol\":605:948  contract C {... */\n  mstore(0x40, 0x80)\n    /* \"variableScopeExample.sol\":641:643  10 */\n  0x0a\n    /* \"variableScopeExample.sol\":622:643  uint public data = 10 */\n  0x00\n  sstore\n    /* \"variableScopeExample.sol\":605:948  contract C {... */\n  callvalue\n  dup1\n  iszero\n  tag_1\n  jumpi\n  revert(0x00, 0x00)\ntag_1:\n  pop\n  dataSize(sub_0)\n  dup1\n  dataOffset(sub_0)\n  0x00\n  codecopy\n  0x00\n  return\nstop\n\nsub_0: assembly {\n        /* \"variableScopeExample.sol\":605:948  contract C {... */\n      mstore(0x40, 0x80)\n      callvalue\n      dup1\n      iszero\n      tag_1\n      jumpi\n      revert(0x00, 0x00)\n    tag_1:\n      pop\n      jumpi(tag_2, lt(calldatasize, 0x04))\n      shr(0xe0, calldataload(0x00))\n      dup1\n      0x0c55699c\n      eq\n      tag_3\n      jumpi\n      dup1\n      0x73d4a13a\n      eq\n      tag_4\n      jumpi\n      dup1\n      0xa56dfe4a\n      eq\n      tag_5\n      jumpi\n    tag_2:\n      revert(0x00, 0x00)\n        /* \"variableScopeExample.sol\":668:873  function x() public view returns(uint) {... */\n    tag_3:\n      tag_6\n      tag_7\n      jump\t// in\n    tag_6:\n      mload(0x40)\n      tag_8\n      swap2\n      swap1\n      tag_9\n      jump\t// in\n    tag_8:\n      mload(0x40)\n      dup1\n      swap2\n      sub\n      swap1\n      return\n        /* \"variableScopeExample.sol\":622:643  uint public data = 10 */\n    tag_4:\n      tag_10\n      tag_11\n      jump\t// in\n    tag_10:\n      mload(0x40)\n      tag_12\n      swap2\n      swap1\n      tag_9\n      jump\t// in\n    tag_12:\n      mload(0x40)\n      dup1\n      swap2\n      sub\n      swap1\n      return\n        /* \"variableScopeExample.sol\":879:946  function y() public view returns (uint) {... */\n    tag_5:\n      tag_13\n      tag_14\n      jump\t// in\n    tag_13:\n      mload(0x40)\n      tag_15\n      swap2\n      swap1\n      tag_9\n      jump\t// in\n    tag_15:\n      mload(0x40)\n      dup1\n      swap2\n      sub\n      swap1\n      return\n        /* \"variableScopeExample.sol\":668:873  function x() public view returns(uint) {... */\n    tag_7:\n        /* \"variableScopeExample.sol\":701:705  uint */\n      0x00\n        /* \"variableScopeExample.sol\":825:837  uint newData */\n      0x00\n        /* \"variableScopeExample.sol\":840:842  25 */\n      0x19\n        /* \"variableScopeExample.sol\":825:842  uint newData = 25 */\n      swap1\n      pop\n        /* \"variableScopeExample.sol\":859:866  newData */\n      dup1\n        /* \"variableScopeExample.sol\":852:866  return newData */\n      swap2\n      pop\n      pop\n        /* \"variableScopeExample.sol\":668:873  function x() public view returns(uint) {... */\n      swap1\n      jump\t// out\n        /* \"variableScopeExample.sol\":622:643  uint public data = 10 */\n    tag_11:\n      sload(0x00)\n      dup2\n      jump\t// out\n        /* \"variableScopeExample.sol\":879:946  function y() public view returns (uint) {... */\n    tag_14:\n        /* \"variableScopeExample.sol\":913:917  uint */\n      0x00\n        /* \"variableScopeExample.sol\":936:939  x() */\n      tag_18\n        /* \"variableScopeExample.sol\":936:937  x */\n      tag_7\n        /* \"variableScopeExample.sol\":936:939  x() */\n      jump\t// in\n    tag_18:\n        /* \"variableScopeExample.sol\":929:939  return x() */\n      swap1\n      pop\n        /* \"variableScopeExample.sol\":879:946  function y() public view returns (uint) {... */\n      swap1\n      jump\t// out\n        /* \"#utility.yul\":7:84   */\n    tag_19:\n        /* \"#utility.yul\":44:51   */\n      0x00\n        /* \"#utility.yul\":73:78   */\n      dup2\n        /* \"#utility.yul\":62:78   */\n      swap1\n      pop\n        /* \"#utility.yul\":7:84   */\n      swap2\n      swap1\n      pop\n      jump\t// out\n        /* \"#utility.yul\":90:208   */\n    tag_20:\n        /* \"#utility.yul\":177:201   */\n      tag_24\n        /* \"#utility.yul\":195:200   */\n      dup2\n        /* \"#utility.yul\":177:201   */\n      tag_19\n      jump\t// in\n    tag_24:\n        /* \"#utility.yul\":172:175   */\n      dup3\n        /* \"#utility.yul\":165:202   */\n      mstore\n        /* \"#utility.yul\":90:208   */\n      pop\n      pop\n      jump\t// out\n        /* \"#utility.yul\":214:436   */\n    tag_9:\n        /* \"#utility.yul\":307:311   */\n      0x00\n        /* \"#utility.yul\":345:347   */\n      0x20\n        /* \"#utility.yul\":334:343   */\n      dup3\n        /* \"#utility.yul\":330:348   */\n      add\n        /* \"#utility.yul\":322:348   */\n      swap1\n      pop\n        /* \"#utility.yul\":358:429   */\n      tag_26\n        /* \"#utility.yul\":426:427   */\n      0x00\n        /* \"#utility.yul\":415:424   */\n      dup4\n        /* \"#utility.yul\":411:428   */\n      add\n        /* \"#utility.yul\":402:408   */\n      dup5\n        /* \"#utility.yul\":358:429   */\n      tag_20\n      jump\t// in\n    tag_26:\n        /* \"#utility.yul\":214:436   */\n      swap3\n      swap2\n      pop\n      pop\n      jump\t// out\n\n    auxdata: 0xa2646970667358221220c678240985e79a2aa2e4c9f5bfa86c5c495be8b8d7eaaaaf66ddd9cc12ec9e9764736f6c634300081e0033\n}\n",
				"bytecode": {
					"linkReferences": {},
					"object": "6080604052600a5f553480156012575f5ffd5b5061010d806100205f395ff3fe6080604052348015600e575f5ffd5b5060043610603a575f3560e01c80630c55699c14603e57806373d4a13a146058578063a56dfe4a146072575b5f5ffd5b6044608c565b604051604f919060c0565b60405180910390f35b605e6099565b6040516069919060c0565b60405180910390f35b6078609e565b6040516083919060c0565b60405180910390f35b5f5f601990508091505090565b5f5481565b5f60a5608c565b905090565b5f819050919050565b60ba8160aa565b82525050565b5f60208201905060d15f83018460b3565b9291505056fea2646970667358221220c678240985e79a2aa2e4c9f5bfa86c5c495be8b8d7eaaaaf66ddd9cc12ec9e9764736f6c634300081e0033",
					"opcodes": "PUSH1 0x80 PUSH1 0x40 MSTORE PUSH1 0xA PUSH0 SSTORE CALLVALUE DUP1 ISZERO PUSH1 0x12 JUMPI PUSH0 PUSH0 REVERT JUMPDEST POP PUSH2 0x10D DUP1 PUSH2 0x20 PUSH0 CODECOPY PUSH0 RETURN INVALID PUSH1 0x80 PUSH1 0x40 MSTORE CALLVALUE DUP1 ISZERO PUSH1 0xE JUMPI PUSH0 PUSH0 REVERT JUMPDEST POP PUSH1 0x4 CALLDATASIZE LT PUSH1 0x3A JUMPI PUSH0 CALLDATALOAD PUSH1 0xE0 SHR DUP1 PUSH4 0xC55699C EQ PUSH1 0x3E JUMPI DUP1 PUSH4 0x73D4A13A EQ PUSH1 0x58 JUMPI DUP1 PUSH4 0xA56DFE4A EQ PUSH1 0x72 JUMPI JUMPDEST PUSH0 PUSH0 REVERT JUMPDEST PUSH1 0x44 PUSH1 0x8C JUMP JUMPDEST PUSH1 0x40 MLOAD PUSH1 0x4F SWAP2 SWAP1 PUSH1 0xC0 JUMP JUMPDEST PUSH1 0x40 MLOAD DUP1 SWAP2 SUB SWAP1 RETURN JUMPDEST PUSH1 0x5E PUSH1 0x99 JUMP JUMPDEST PUSH1 0x40 MLOAD PUSH1 0x69 SWAP2 SWAP1 PUSH1 0xC0 JUMP JUMPDEST PUSH1 0x40 MLOAD DUP1 SWAP2 SUB SWAP1 RETURN JUMPDEST PUSH1 0x78 PUSH1 0x9E JUMP JUMPDEST PUSH1 0x40 MLOAD PUSH1 0x83 SWAP2 SWAP1 PUSH1 0xC0 JUMP JUMPDEST PUSH1 0x40 MLOAD DUP1 SWAP2 SUB SWAP1 RETURN JUMPDEST PUSH0 PUSH0 PUSH1 0x19 SWAP1 POP DUP1 SWAP2 POP POP SWAP1 JUMP JUMPDEST PUSH0 SLOAD DUP2 JUMP JUMPDEST PUSH0 PUSH1 0xA5 PUSH1 0x8C JUMP JUMPDEST SWAP1 POP SWAP1 JUMP JUMPDEST PUSH0 DUP2 SWAP1 POP SWAP2 SWAP1 POP JUMP JUMPDEST PUSH1 0xBA DUP2 PUSH1 0xAA JUMP JUMPDEST DUP3 MSTORE POP POP JUMP JUMPDEST PUSH0 PUSH1 0x20 DUP3 ADD SWAP1 POP PUSH1 0xD1 PUSH0 DUP4 ADD DUP5 PUSH1 0xB3 JUMP JUMPDEST SWAP3 SWAP2 POP POP JUMP INVALID LOG2 PUSH5 0x6970667358 0x22 SLT KECCAK256 0xC6 PUSH25 0x240985E79A2AA2E4C9F5BFA86C5C495BE8B8D7EAAAAF66DDD9 0xCC SLT EOFCREATE 0x9E SWAP8 PUSH5 0x736F6C6343 STOP ADDMOD 0x1E STOP CALLER "
				},
				"gasEstimates": {
					"creation": {
						"codeDepositCost": "53800",
						"executionCost": "22208",
						"totalCost": "76008"
					},
					"external": {
						"data()": "2424",
						"x()": "322",
						"y()": "400"
					}
				},
				"methodIdentifiers": {
					"data()": "73d4a13a",
					"x()": "0c55699c",
					"y()": "a56dfe4a"
				}
			},
			"storageLayout": {
				"storage": [
					{
						"astId": 4,
						"contract": "variableScopeExample.sol:C",
						"label": "data",
						"offset": 0,
						"slot": "0",
						"type": "t_uint256"
					}
				],
				"types": {
					"t_uint256": {
						"encoding": "inplace",
						"label": "uint256",
						"numberOfBytes": "32"
					}
				}
			},
			"userdoc": {
				"kind": "user",
				"methods": {},
				"version": 1
			}
		}
	}
}