{
	"data": {
		"bytecode": {
			"linkReferences": {},
			"object": "6080604052348015600e575f5ffd5b5061010d8061001c5f395ff3fe6080604052348015600e575f5ffd5b50600436106030575f3560e01c806343e7dc54146034578063dadf8fee14603c575b5f5ffd5b603a6044565b005b60426094565b005b5f600a67ffffffffffffffff811115605d57605c60aa565b5b6040519080825280601f01601f191660200182016040528015608e5781602001600182028036833780820191505090505b50905050565b5f5f808201604051600481526064815550505050565b7f4e487b71000000000000000000000000000000000000000000000000000000005f52604160045260245ffdfea2646970667358221220299bd34982c777d2e8d2a139b37914015b8c0753f1395b5273ea75fbde46915b64736f6c634300081e0033",
			"opcodes": "PUSH1 0x80 PUSH1 0x40 MSTORE CALLVALUE DUP1 ISZERO PUSH1 0xE JUMPI PUSH0 PUSH0 REVERT JUMPDEST POP PUSH2 0x10D DUP1 PUSH2 0x1C PUSH0 CODECOPY PUSH0 RETURN INVALID PUSH1 0x80 PUSH1 0x40 MSTORE CALLVALUE DUP1 ISZERO PUSH1 0xE JUMPI PUSH0 PUSH0 REVERT JUMPDEST POP PUSH1 0x4 CALLDATASIZE LT PUSH1 0x30 JUMPI PUSH0 CALLDATALOAD PUSH1 0xE0 SHR DUP1 PUSH4 0x43E7DC54 EQ PUSH1 0x34 JUMPI DUP1 PUSH4 0xDADF8FEE EQ PUSH1 0x3C JUMPI JUMPDEST PUSH0 PUSH0 REVERT JUMPDEST PUSH1 0x3A PUSH1 0x44 JUMP JUMPDEST STOP JUMPDEST PUSH1 0x42 PUSH1 0x94 JUMP JUMPDEST STOP JUMPDEST PUSH0 PUSH1 0xA PUSH8 0xFFFFFFFFFFFFFFFF DUP2 GT ISZERO PUSH1 0x5D JUMPI PUSH1 0x5C PUSH1 0xAA JUMP JUMPDEST JUMPDEST PUSH1 0x40 MLOAD SWAP1 DUP1 DUP3 MSTORE DUP1 PUSH1 0x1F ADD PUSH1 0x1F NOT AND PUSH1 0x20 ADD DUP3 ADD PUSH1 0x40 MSTORE DUP1 ISZERO PUSH1 0x8E JUMPI DUP2 PUSH1 0x20 ADD PUSH1 0x1 DUP3 MUL DUP1 CALLDATASIZE DUP4 CALLDATACOPY DUP1 DUP3 ADD SWAP2 POP POP SWAP1 POP JUMPDEST POP SWAP1 POP POP JUMP JUMPDEST PUSH0 PUSH0 DUP1 DUP3 ADD PUSH1 0x40 MLOAD PUSH1 0x4 DUP2 MSTORE PUSH1 0x64 DUP2 SSTORE POP POP POP POP JUMP JUMPDEST PUSH32 0x4E487B7100000000000000000000000000000000000000000000000000000000 PUSH0 MSTORE PUSH1 0x41 PUSH1 0x4 MSTORE PUSH1 0x24 PUSH0 REVERT INVALID LOG2 PUSH5 0x6970667358 0x22 SLT KECCAK256 0x29 SWAP12 0xD3 BLOBHASH DUP3 0xC7 PUSH24 0xD2E8D2A139B37914015B8C0753F1395B5273EA75FBDE4691 JUMPDEST PUSH5 0x736F6C6343 STOP ADDMOD 0x1E STOP CALLER "
		},
		"gasEstimates": {
			"creation": {
				"codeDepositCost": "53800",
				"executionCost": "103",
				"totalCost": "53903"
			},
			"external": {
				"addToEVM()": "22291",
				"addtoEVM3()": "299"
			}
		},
		"methodIdentifiers": {
			"addToEVM()": "dadf8fee",
			"addtoEVM3()": "43e7dc54"
		}
	},
	"abi": [
		{
			"inputs": [],
			"name": "addToEVM",
			"outputs": [],
			"stateMutability": "nonpayable",
			"type": "function"
		},
		{
			"inputs": [],
			"name": "addtoEVM3",
			"outputs": [],
			"stateMutability": "view",
			"type": "function"
		}
	]
}