{
	"data": {
		"bytecode": {
			"linkReferences": {},
			"object": "60806040526104cc5f5560066001553480156018575f5ffd5b5061011f806100265f395ff3fe6080604052348015600e575f5ffd5b50600436106026575f3560e01c80633da0ac7914602a575b5f5ffd5b60306032565b005b6001545f5411156075576040517f08c379a0000000000000000000000000000000000000000000000000000000008152600401606c9060cd565b60405180910390fd5b565b5f82825260208201905092915050565b7f5468697320636f6d70617269736f6e2069732066616c736521000000000000005f82015250565b5f60b96019836077565b915060c2826087565b602082019050919050565b5f6020820190508181035f83015260e28160af565b905091905056fea26469706673582212207b2d65aac870fa5446cf479898eee5580c199ea1b2df678a11ea03485a9208c564736f6c634300081e0033",
			"opcodes": "PUSH1 0x80 PUSH1 0x40 MSTORE PUSH2 0x4CC PUSH0 SSTORE PUSH1 0x6 PUSH1 0x1 SSTORE CALLVALUE DUP1 ISZERO PUSH1 0x18 JUMPI PUSH0 PUSH0 REVERT JUMPDEST POP PUSH2 0x11F DUP1 PUSH2 0x26 PUSH0 CODECOPY PUSH0 RETURN INVALID PUSH1 0x80 PUSH1 0x40 MSTORE CALLVALUE DUP1 ISZERO PUSH1 0xE JUMPI PUSH0 PUSH0 REVERT JUMPDEST POP PUSH1 0x4 CALLDATASIZE LT PUSH1 0x26 JUMPI PUSH0 CALLDATALOAD PUSH1 0xE0 SHR DUP1 PUSH4 0x3DA0AC79 EQ PUSH1 0x2A JUMPI JUMPDEST PUSH0 PUSH0 REVERT JUMPDEST PUSH1 0x30 PUSH1 0x32 JUMP JUMPDEST STOP JUMPDEST PUSH1 0x1 SLOAD PUSH0 SLOAD GT ISZERO PUSH1 0x75 JUMPI PUSH1 0x40 MLOAD PUSH32 0x8C379A000000000000000000000000000000000000000000000000000000000 DUP2 MSTORE PUSH1 0x4 ADD PUSH1 0x6C SWAP1 PUSH1 0xCD JUMP JUMPDEST PUSH1 0x40 MLOAD DUP1 SWAP2 SUB SWAP1 REVERT JUMPDEST JUMP JUMPDEST PUSH0 DUP3 DUP3 MSTORE PUSH1 0x20 DUP3 ADD SWAP1 POP SWAP3 SWAP2 POP POP JUMP JUMPDEST PUSH32 0x5468697320636F6D70617269736F6E2069732066616C73652100000000000000 PUSH0 DUP3 ADD MSTORE POP JUMP JUMPDEST PUSH0 PUSH1 0xB9 PUSH1 0x19 DUP4 PUSH1 0x77 JUMP JUMPDEST SWAP2 POP PUSH1 0xC2 DUP3 PUSH1 0x87 JUMP JUMPDEST PUSH1 0x20 DUP3 ADD SWAP1 POP SWAP2 SWAP1 POP JUMP JUMPDEST PUSH0 PUSH1 0x20 DUP3 ADD SWAP1 POP DUP2 DUP2 SUB PUSH0 DUP4 ADD MSTORE PUSH1 0xE2 DUP2 PUSH1 0xAF JUMP JUMPDEST SWAP1 POP SWAP2 SWAP1 POP JUMP INVALID LOG2 PUSH5 0x6970667358 0x22 SLT KECCAK256 PUSH28 0x2D65AAC870FA5446CF479898EEE5580C199EA1B2DF678A11EA03485A SWAP3 ADDMOD 0xC5 PUSH5 0x736F6C6343 STOP ADDMOD 0x1E STOP CALLER "
		},
		"gasEstimates": {
			"creation": {
				"codeDepositCost": "57400",
				"executionCost": "44314",
				"totalCost": "101714"
			},
			"external": {
				"compare()": "4630"
			}
		},
		"methodIdentifiers": {
			"compare()": "3da0ac79"
		}
	},
	"abi": [
		{
			"inputs": [],
			"name": "compare",
			"outputs": [],
			"stateMutability": "view",
			"type": "function"
		}
	]
}