{
	"data": {
		"bytecode": {
			"linkReferences": {},
			"object": "6080604052348015600e575f5ffd5b506106af8061001c5f395ff3fe608060405234801561000f575f5ffd5b50600436106100a7575f3560e01c80639fc37abf1161006f5780639fc37abf14610173578063a4ece52c1461018f578063be1c766b14610199578063cc3e57d9146101b7578063d4d95b7f146101e7578063f8a8fd6d14610205576100a7565b806306a88056146100ab5780634cc82215146100db5780636e366c96146100f75780638c11818a14610127578063959ac48414610157575b5f5ffd5b6100c560048036038101906100c0919061044e565b61020f565b6040516100d29190610488565b60405180910390f35b6100f560048036038101906100f0919061044e565b610228565b005b610111600480360381019061010c919061044e565b610249565b60405161011e9190610488565b60405180910390f35b610141600480360381019061013c919061044e565b610269565b60405161014e9190610488565b60405180910390f35b610171600480360381019061016c919061044e565b610289565b005b61018d6004803603810190610188919061044e565b6102b1565b005b610197610327565b005b6101a161034d565b6040516101ae9190610488565b60405180910390f35b6101d160048036038101906101cc919061044e565b610358565b6040516101de9190610488565b60405180910390f35b6101ef610377565b6040516101fc9190610558565b60405180910390f35b61020d6103cd565b005b60028160c8811061021e575f80fd5b015f915090505481565b5f818154811061023b5761023a610578565b5b905f5260205f20015f905550565b60ca8181548110610258575f80fd5b905f5260205f20015f915090505481565b60018181548110610278575f80fd5b905f5260205f20015f915090505481565b5f81908060018154018082558091505060019003905f5260205f20015f909190919091505550565b60ca600160ca805490506102c591906105d2565b815481106102d6576102d5610578565b5b905f5260205f20015460ca82815481106102f3576102f2610578565b5b905f5260205f20018190555060ca80548061031157610310610605565b5b600190038181905f5260205f20015f9055905550565b5f80548061033857610337610605565b5b600190038181905f5260205f20015f90559055565b5f5f80549050905090565b5f8181548110610366575f80fd5b905f5260205f20015f915090505481565b606060ca8054806020026020016040519081016040528092919081815260200182805480156103c357602002820191905f5260205f20905b8154815260200190600101908083116103af575b5050505050905090565b5f600190505b600481116104145760ca81908060018154018082558091505060019003905f5260205f20015f9091909190915055808061040c90610632565b9150506103d3565b50565b5f5ffd5b5f819050919050565b61042d8161041b565b8114610437575f5ffd5b50565b5f8135905061044881610424565b92915050565b5f6020828403121561046357610462610417565b5b5f6104708482850161043a565b91505092915050565b6104828161041b565b82525050565b5f60208201905061049b5f830184610479565b92915050565b5f81519050919050565b5f82825260208201905092915050565b5f819050602082019050919050565b6104d38161041b565b82525050565b5f6104e483836104ca565b60208301905092915050565b5f602082019050919050565b5f610506826104a1565b61051081856104ab565b935061051b836104bb565b805f5b8381101561054b57815161053288826104d9565b975061053d836104f0565b92505060018101905061051e565b5085935050505092915050565b5f6020820190508181035f83015261057081846104fc565b905092915050565b7f4e487b71000000000000000000000000000000000000000000000000000000005f52603260045260245ffd5b7f4e487b71000000000000000000000000000000000000000000000000000000005f52601160045260245ffd5b5f6105dc8261041b565b91506105e78361041b565b92508282039050818111156105ff576105fe6105a5565b5b92915050565b7f4e487b71000000000000000000000000000000000000000000000000000000005f52603160045260245ffd5b5f61063c8261041b565b91507fffffffffffffffffffffffffffffffffffffffffffffffffffffffffffffffff820361066e5761066d6105a5565b5b60018201905091905056fea2646970667358221220b00a712ed3a8529468773cf811bc6d871b67594785479ee4cd49aac75a7812a764736f6c634300081e0033",
			"opcodes": "PUSH1 0x80 PUSH1 0x40 MSTORE CALLVALUE DUP1 ISZERO PUSH1 0xE JUMPI PUSH0 PUSH0 REVERT JUMPDEST POP PUSH2 0x6AF DUP1 PUSH2 0x1C PUSH0 CODECOPY PUSH0 RETURN INVALID PUSH1 0x80 PUSH1 0x40 MSTORE CALLVALUE DUP1 ISZERO PUSH2 0xF JUMPI PUSH0 PUSH0 REVERT JUMPDEST POP PUSH1 0x4 CALLDATASIZE LT PUSH2 0xA7 JUMPI PUSH0 CALLDATALOAD PUSH1 0xE0 SHR DUP1 PUSH4 0x9FC37ABF GT PUSH2 0x6F JUMPI DUP1 PUSH4 0x9FC37ABF EQ PUSH2 0x173 JUMPI DUP1 PUSH4 0xA4ECE52C EQ PUSH2 0x18F JUMPI DUP1 PUSH4 0xBE1C766B EQ PUSH2 0x199 JUMPI DUP1 PUSH4 0xCC3E57D9 EQ PUSH2 0x1B7 JUMPI DUP1 PUSH4 0xD4D95B7F EQ PUSH2 0x1E7 JUMPI DUP1 PUSH4 0xF8A8FD6D EQ PUSH2 0x205 JUMPI PUSH2 0xA7 JUMP JUMPDEST DUP1 PUSH4 0x6A88056 EQ PUSH2 0xAB JUMPI DUP1 PUSH4 0x4CC82215 EQ PUSH2 0xDB JUMPI DUP1 PUSH4 0x6E366C96 EQ PUSH2 0xF7 JUMPI DUP1 PUSH4 0x8C11818A EQ PUSH2 0x127 JUMPI DUP1 PUSH4 0x959AC484 EQ PUSH2 0x157 JUMPI JUMPDEST PUSH0 PUSH0 REVERT JUMPDEST PUSH2 0xC5 PUSH1 0x4 DUP1 CALLDATASIZE SUB DUP2 ADD SWAP1 PUSH2 0xC0 SWAP2 SWAP1 PUSH2 0x44E JUMP JUMPDEST PUSH2 0x20F JUMP JUMPDEST PUSH1 0x40 MLOAD PUSH2 0xD2 SWAP2 SWAP1 PUSH2 0x488 JUMP JUMPDEST PUSH1 0x40 MLOAD DUP1 SWAP2 SUB SWAP1 RETURN JUMPDEST PUSH2 0xF5 PUSH1 0x4 DUP1 CALLDATASIZE SUB DUP2 ADD SWAP1 PUSH2 0xF0 SWAP2 SWAP1 PUSH2 0x44E JUMP JUMPDEST PUSH2 0x228 JUMP JUMPDEST STOP JUMPDEST PUSH2 0x111 PUSH1 0x4 DUP1 CALLDATASIZE SUB DUP2 ADD SWAP1 PUSH2 0x10C SWAP2 SWAP1 PUSH2 0x44E JUMP JUMPDEST PUSH2 0x249 JUMP JUMPDEST PUSH1 0x40 MLOAD PUSH2 0x11E SWAP2 SWAP1 PUSH2 0x488 JUMP JUMPDEST PUSH1 0x40 MLOAD DUP1 SWAP2 SUB SWAP1 RETURN JUMPDEST PUSH2 0x141 PUSH1 0x4 DUP1 CALLDATASIZE SUB DUP2 ADD SWAP1 PUSH2 0x13C SWAP2 SWAP1 PUSH2 0x44E JUMP JUMPDEST PUSH2 0x269 JUMP JUMPDEST PUSH1 0x40 MLOAD PUSH2 0x14E SWAP2 SWAP1 PUSH2 0x488 JUMP JUMPDEST PUSH1 0x40 MLOAD DUP1 SWAP2 SUB SWAP1 RETURN JUMPDEST PUSH2 0x171 PUSH1 0x4 DUP1 CALLDATASIZE SUB DUP2 ADD SWAP1 PUSH2 0x16C SWAP2 SWAP1 PUSH2 0x44E JUMP JUMPDEST PUSH2 0x289 JUMP JUMPDEST STOP JUMPDEST PUSH2 0x18D PUSH1 0x4 DUP1 CALLDATASIZE SUB DUP2 ADD SWAP1 PUSH2 0x188 SWAP2 SWAP1 PUSH2 0x44E JUMP JUMPDEST PUSH2 0x2B1 JUMP JUMPDEST STOP JUMPDEST PUSH2 0x197 PUSH2 0x327 JUMP JUMPDEST STOP JUMPDEST PUSH2 0x1A1 PUSH2 0x34D JUMP JUMPDEST PUSH1 0x40 MLOAD PUSH2 0x1AE SWAP2 SWAP1 PUSH2 0x488 JUMP JUMPDEST PUSH1 0x40 MLOAD DUP1 SWAP2 SUB SWAP1 RETURN JUMPDEST PUSH2 0x1D1 PUSH1 0x4 DUP1 CALLDATASIZE SUB DUP2 ADD SWAP1 PUSH2 0x1CC SWAP2 SWAP1 PUSH2 0x44E JUMP JUMPDEST PUSH2 0x358 JUMP JUMPDEST PUSH1 0x40 MLOAD PUSH2 0x1DE SWAP2 SWAP1 PUSH2 0x488 JUMP JUMPDEST PUSH1 0x40 MLOAD DUP1 SWAP2 SUB SWAP1 RETURN JUMPDEST PUSH2 0x1EF PUSH2 0x377 JUMP JUMPDEST PUSH1 0x40 MLOAD PUSH2 0x1FC SWAP2 SWAP1 PUSH2 0x558 JUMP JUMPDEST PUSH1 0x40 MLOAD DUP1 SWAP2 SUB SWAP1 RETURN JUMPDEST PUSH2 0x20D PUSH2 0x3CD JUMP JUMPDEST STOP JUMPDEST PUSH1 0x2 DUP2 PUSH1 0xC8 DUP2 LT PUSH2 0x21E JUMPI PUSH0 DUP1 REVERT JUMPDEST ADD PUSH0 SWAP2 POP SWAP1 POP SLOAD DUP2 JUMP JUMPDEST PUSH0 DUP2 DUP2 SLOAD DUP2 LT PUSH2 0x23B JUMPI PUSH2 0x23A PUSH2 0x578 JUMP JUMPDEST JUMPDEST SWAP1 PUSH0 MSTORE PUSH1 0x20 PUSH0 KECCAK256 ADD PUSH0 SWAP1 SSTORE POP JUMP JUMPDEST PUSH1 0xCA DUP2 DUP2 SLOAD DUP2 LT PUSH2 0x258 JUMPI PUSH0 DUP1 REVERT JUMPDEST SWAP1 PUSH0 MSTORE PUSH1 0x20 PUSH0 KECCAK256 ADD PUSH0 SWAP2 POP SWAP1 POP SLOAD DUP2 JUMP JUMPDEST PUSH1 0x1 DUP2 DUP2 SLOAD DUP2 LT PUSH2 0x278 JUMPI PUSH0 DUP1 REVERT JUMPDEST SWAP1 PUSH0 MSTORE PUSH1 0x20 PUSH0 KECCAK256 ADD PUSH0 SWAP2 POP SWAP1 POP SLOAD DUP2 JUMP JUMPDEST PUSH0 DUP2 SWAP1 DUP1 PUSH1 0x1 DUP2 SLOAD ADD DUP1 DUP3 SSTORE DUP1 SWAP2 POP POP PUSH1 0x1 SWAP1 SUB SWAP1 PUSH0 MSTORE PUSH1 0x20 PUSH0 KECCAK256 ADD PUSH0 SWAP1 SWAP2 SWAP1 SWAP2 SWAP1 SWAP2 POP SSTORE POP JUMP JUMPDEST PUSH1 0xCA PUSH1 0x1 PUSH1 0xCA DUP1 SLOAD SWAP1 POP PUSH2 0x2C5 SWAP2 SWAP1 PUSH2 0x5D2 JUMP JUMPDEST DUP2 SLOAD DUP2 LT PUSH2 0x2D6 JUMPI PUSH2 0x2D5 PUSH2 0x578 JUMP JUMPDEST JUMPDEST SWAP1 PUSH0 MSTORE PUSH1 0x20 PUSH0 KECCAK256 ADD SLOAD PUSH1 0xCA DUP3 DUP2 SLOAD DUP2 LT PUSH2 0x2F3 JUMPI PUSH2 0x2F2 PUSH2 0x578 JUMP JUMPDEST JUMPDEST SWAP1 PUSH0 MSTORE PUSH1 0x20 PUSH0 KECCAK256 ADD DUP2 SWAP1 SSTORE POP PUSH1 0xCA DUP1 SLOAD DUP1 PUSH2 0x311 JUMPI PUSH2 0x310 PUSH2 0x605 JUMP JUMPDEST JUMPDEST PUSH1 0x1 SWAP1 SUB DUP2 DUP2 SWAP1 PUSH0 MSTORE PUSH1 0x20 PUSH0 KECCAK256 ADD PUSH0 SWAP1 SSTORE SWAP1 SSTORE POP JUMP JUMPDEST PUSH0 DUP1 SLOAD DUP1 PUSH2 0x338 JUMPI PUSH2 0x337 PUSH2 0x605 JUMP JUMPDEST JUMPDEST PUSH1 0x1 SWAP1 SUB DUP2 DUP2 SWAP1 PUSH0 MSTORE PUSH1 0x20 PUSH0 KECCAK256 ADD PUSH0 SWAP1 SSTORE SWAP1 SSTORE JUMP JUMPDEST PUSH0 PUSH0 DUP1 SLOAD SWAP1 POP SWAP1 POP SWAP1 JUMP JUMPDEST PUSH0 DUP2 DUP2 SLOAD DUP2 LT PUSH2 0x366 JUMPI PUSH0 DUP1 REVERT JUMPDEST SWAP1 PUSH0 MSTORE PUSH1 0x20 PUSH0 KECCAK256 ADD PUSH0 SWAP2 POP SWAP1 POP SLOAD DUP2 JUMP JUMPDEST PUSH1 0x60 PUSH1 0xCA DUP1 SLOAD DUP1 PUSH1 0x20 MUL PUSH1 0x20 ADD PUSH1 0x40 MLOAD SWAP1 DUP2 ADD PUSH1 0x40 MSTORE DUP1 SWAP3 SWAP2 SWAP1 DUP2 DUP2 MSTORE PUSH1 0x20 ADD DUP3 DUP1 SLOAD DUP1 ISZERO PUSH2 0x3C3 JUMPI PUSH1 0x20 MUL DUP3 ADD SWAP2 SWAP1 PUSH0 MSTORE PUSH1 0x20 PUSH0 KECCAK256 SWAP1 JUMPDEST DUP2 SLOAD DUP2 MSTORE PUSH1 0x20 ADD SWAP1 PUSH1 0x1 ADD SWAP1 DUP1 DUP4 GT PUSH2 0x3AF JUMPI JUMPDEST POP POP POP POP POP SWAP1 POP SWAP1 JUMP JUMPDEST PUSH0 PUSH1 0x1 SWAP1 POP JUMPDEST PUSH1 0x4 DUP2 GT PUSH2 0x414 JUMPI PUSH1 0xCA DUP2 SWAP1 DUP1 PUSH1 0x1 DUP2 SLOAD ADD DUP1 DUP3 SSTORE DUP1 SWAP2 POP POP PUSH1 0x1 SWAP1 SUB SWAP1 PUSH0 MSTORE PUSH1 0x20 PUSH0 KECCAK256 ADD PUSH0 SWAP1 SWAP2 SWAP1 SWAP2 SWAP1 SWAP2 POP SSTORE DUP1 DUP1 PUSH2 0x40C SWAP1 PUSH2 0x632 JUMP JUMPDEST SWAP2 POP POP PUSH2 0x3D3 JUMP JUMPDEST POP JUMP JUMPDEST PUSH0 PUSH0 REVERT JUMPDEST PUSH0 DUP2 SWAP1 POP SWAP2 SWAP1 POP JUMP JUMPDEST PUSH2 0x42D DUP2 PUSH2 0x41B JUMP JUMPDEST DUP2 EQ PUSH2 0x437 JUMPI PUSH0 PUSH0 REVERT JUMPDEST POP JUMP JUMPDEST PUSH0 DUP2 CALLDATALOAD SWAP1 POP PUSH2 0x448 DUP2 PUSH2 0x424 JUMP JUMPDEST SWAP3 SWAP2 POP POP JUMP JUMPDEST PUSH0 PUSH1 0x20 DUP3 DUP5 SUB SLT ISZERO PUSH2 0x463 JUMPI PUSH2 0x462 PUSH2 0x417 JUMP JUMPDEST JUMPDEST PUSH0 PUSH2 0x470 DUP5 DUP3 DUP6 ADD PUSH2 0x43A JUMP JUMPDEST SWAP2 POP POP SWAP3 SWAP2 POP POP JUMP JUMPDEST PUSH2 0x482 DUP2 PUSH2 0x41B JUMP JUMPDEST DUP3 MSTORE POP POP JUMP JUMPDEST PUSH0 PUSH1 0x20 DUP3 ADD SWAP1 POP PUSH2 0x49B PUSH0 DUP4 ADD DUP5 PUSH2 0x479 JUMP JUMPDEST SWAP3 SWAP2 POP POP JUMP JUMPDEST PUSH0 DUP2 MLOAD SWAP1 POP SWAP2 SWAP1 POP JUMP JUMPDEST PUSH0 DUP3 DUP3 MSTORE PUSH1 0x20 DUP3 ADD SWAP1 POP SWAP3 SWAP2 POP POP JUMP JUMPDEST PUSH0 DUP2 SWAP1 POP PUSH1 0x20 DUP3 ADD SWAP1 POP SWAP2 SWAP1 POP JUMP JUMPDEST PUSH2 0x4D3 DUP2 PUSH2 0x41B JUMP JUMPDEST DUP3 MSTORE POP POP JUMP JUMPDEST PUSH0 PUSH2 0x4E4 DUP4 DUP4 PUSH2 0x4CA JUMP JUMPDEST PUSH1 0x20 DUP4 ADD SWAP1 POP SWAP3 SWAP2 POP POP JUMP JUMPDEST PUSH0 PUSH1 0x20 DUP3 ADD SWAP1 POP SWAP2 SWAP1 POP JUMP JUMPDEST PUSH0 PUSH2 0x506 DUP3 PUSH2 0x4A1 JUMP JUMPDEST PUSH2 0x510 DUP2 DUP6 PUSH2 0x4AB JUMP JUMPDEST SWAP4 POP PUSH2 0x51B DUP4 PUSH2 0x4BB JUMP JUMPDEST DUP1 PUSH0 JUMPDEST DUP4 DUP2 LT ISZERO PUSH2 0x54B JUMPI DUP2 MLOAD PUSH2 0x532 DUP9 DUP3 PUSH2 0x4D9 JUMP JUMPDEST SWAP8 POP PUSH2 0x53D DUP4 PUSH2 0x4F0 JUMP JUMPDEST SWAP3 POP POP PUSH1 0x1 DUP2 ADD SWAP1 POP PUSH2 0x51E JUMP JUMPDEST POP DUP6 SWAP4 POP POP POP POP SWAP3 SWAP2 POP POP JUMP JUMPDEST PUSH0 PUSH1 0x20 DUP3 ADD SWAP1 POP DUP2 DUP2 SUB PUSH0 DUP4 ADD MSTORE PUSH2 0x570 DUP2 DUP5 PUSH2 0x4FC JUMP JUMPDEST SWAP1 POP SWAP3 SWAP2 POP POP JUMP JUMPDEST PUSH32 0x4E487B7100000000000000000000000000000000000000000000000000000000 PUSH0 MSTORE PUSH1 0x32 PUSH1 0x4 MSTORE PUSH1 0x24 PUSH0 REVERT JUMPDEST PUSH32 0x4E487B7100000000000000000000000000000000000000000000000000000000 PUSH0 MSTORE PUSH1 0x11 PUSH1 0x4 MSTORE PUSH1 0x24 PUSH0 REVERT JUMPDEST PUSH0 PUSH2 0x5DC DUP3 PUSH2 0x41B JUMP JUMPDEST SWAP2 POP PUSH2 0x5E7 DUP4 PUSH2 0x41B JUMP JUMPDEST SWAP3 POP DUP3 DUP3 SUB SWAP1 POP DUP2 DUP2 GT ISZERO PUSH2 0x5FF JUMPI PUSH2 0x5FE PUSH2 0x5A5 JUMP JUMPDEST JUMPDEST SWAP3 SWAP2 POP POP JUMP JUMPDEST PUSH32 0x4E487B7100000000000000000000000000000000000000000000000000000000 PUSH0 MSTORE PUSH1 0x31 PUSH1 0x4 MSTORE PUSH1 0x24 PUSH0 REVERT JUMPDEST PUSH0 PUSH2 0x63C DUP3 PUSH2 0x41B JUMP JUMPDEST SWAP2 POP PUSH32 0xFFFFFFFFFFFFFFFFFFFFFFFFFFFFFFFFFFFFFFFFFFFFFFFFFFFFFFFFFFFFFFFF DUP3 SUB PUSH2 0x66E JUMPI PUSH2 0x66D PUSH2 0x5A5 JUMP JUMPDEST JUMPDEST PUSH1 0x1 DUP3 ADD SWAP1 POP SWAP2 SWAP1 POP JUMP INVALID LOG2 PUSH5 0x6970667358 0x22 SLT KECCAK256 0xB0 EXP PUSH18 0x2ED3A8529468773CF811BC6D871B67594785 SELFBALANCE SWAP15 RETF 0xCD BLOBHASH 0xAA 0xC7 GAS PUSH25 0x12A764736F6C634300081E0033000000000000000000000000 "
		},
		"gasEstimates": {
			"creation": {
				"codeDepositCost": "342200",
				"executionCost": "378",
				"totalCost": "342578"
			},
			"external": {
				"changeArray(uint256)": "infinite",
				"getChangeArray()": "infinite",
				"getLength()": "2483",
				"myArray(uint256)": "infinite",
				"myArray2(uint256)": "infinite",
				"myFixedArray(uint256)": "infinite",
				"pop()": "29462",
				"push(uint256)": "46909",
				"remove(uint256)": "7609",
				"removeElement(uint256)": "infinite",
				"test()": "infinite"
			}
		},
		"methodIdentifiers": {
			"changeArray(uint256)": "6e366c96",
			"getChangeArray()": "d4d95b7f",
			"getLength()": "be1c766b",
			"myArray(uint256)": "cc3e57d9",
			"myArray2(uint256)": "8c11818a",
			"myFixedArray(uint256)": "06a88056",
			"pop()": "a4ece52c",
			"push(uint256)": "959ac484",
			"remove(uint256)": "4cc82215",
			"removeElement(uint256)": "9fc37abf",
			"test()": "f8a8fd6d"
		}
	},
	"abi": [
		{
			"inputs": [
				{
					"internalType": "uint256",
					"name": "",
					"type": "uint256"
				}
			],
			"name": "changeArray",
			"outputs": [
				{
					"internalType": "uint256",
					"name": "",
					"type": "uint256"
				}
			],
			"stateMutability": "view",
			"type": "function"
		},
		{
			"inputs": [],
			"name": "getChangeArray",
			"outputs": [
				{
					"internalType": "uint256[]",
					"name": "",
					"type": "uint256[]"
				}
			],
			"stateMutability": "view",
			"type": "function"
		},
		{
			"inputs": [],
			"name": "getLength",
			"outputs": [
				{
					"internalType": "uint256",
					"name": "",
					"type": "uint256"
				}
			],
			"stateMutability": "view",
			"type": "function"
		},
		{
			"inputs": [
				{
					"internalType": "uint256",
					"name": "",
					"type": "uint256"
				}
			],
			"name": "myArray",
			"outputs": [
				{
					"internalType": "uint256",
					"name": "",
					"type": "uint256"
				}
			],
			"stateMutability": "view",
			"type": "function"
		},
		{
			"inputs": [
				{
					"internalType": "uint256",
					"name": "",
					"type": "uint256"
				}
			],
			"name": "myArray2",
			"outputs": [
				{
					"internalType": "uint256",
					"name": "",
					"type": "uint256"
				}
			],
			"stateMutability": "view",
			"type": "function"
		},
		{
			"inputs": [
				{
					"internalType": "uint256",
					"name": "",
					"type": "uint256"
				}
			],
			"name": "myFixedArray",
			"outputs": [
				{
					"internalType": "uint256",
					"name": "",
					"type": "uint256"
				}
			],
			"stateMutability": "view",
			"type": "function"
		},
		{
			"inputs": [],
			"name": "pop",
			"outputs": [],
			"stateMutability": "nonpayable",
			"type": "function"
		},
		{
			"inputs": [
				{
					"internalType": "uint256",
					"name": "number",
					"type": "uint256"
				}
			],
			"name": "push",
			"outputs": [],
			"stateMutability": "nonpayable",
			"type": "function"
		},
		{
			"inputs": [
				{
					"internalType": "uint256",
					"name": "i",
					"type": "uint256"
				}
			],
			"name": "remove",
			"outputs": [],
			"stateMutability": "nonpayable",
			"type": "function"
		},
		{
			"inputs": [
				{
					"internalType": "uint256",
					"name": "i",
					"type": "uint256"
				}
			],
			"name": "removeElement",
			"outputs": [],
			"stateMutability": "nonpayable",
			"type": "function"
		},
		{
			"inputs": [],
			"name": "test",
			"outputs": [],
			"stateMutability": "nonpayable",
			"type": "function"
		}
	]
}