{
	"data": {
		"bytecode": {
			"linkReferences": {},
			"object": "6080604052348015600e575f5ffd5b506101de8061001c5f395ff3fe608060405234801561000f575f5ffd5b5060043610610034575f3560e01c80639184de3814610038578063b51d0f0014610056575b5f5ffd5b610040610074565b60405161004d91906100d2565b60405180910390f35b61005e610097565b60405161006b91906100d2565b60405180910390f35b5f5f600590505f600690505f818361008c9190610118565b905080935050505090565b5f5f600c90505f601790505f81836100af9190610178565b905080935050505090565b5f819050919050565b6100cc816100ba565b82525050565b5f6020820190506100e55f8301846100c3565b92915050565b7f4e487b71000000000000000000000000000000000000000000000000000000005f52601160045260245ffd5b5f610122826100ba565b915061012d836100ba565b9250828201905080821115610145576101446100eb565b5b92915050565b7f4e487b71000000000000000000000000000000000000000000000000000000005f52601260045260245ffd5b5f610182826100ba565b915061018d836100ba565b92508261019d5761019c61014b565b5b82820690509291505056fea2646970667358221220b4f1f897875a3eeab1fccd0e3b67ce9281b26739161fa8452ae44009b7c401ad64736f6c634300081e0033",
			"opcodes": "PUSH1 0x80 PUSH1 0x40 MSTORE CALLVALUE DUP1 ISZERO PUSH1 0xE JUMPI PUSH0 PUSH0 REVERT JUMPDEST POP PUSH2 0x1DE DUP1 PUSH2 0x1C PUSH0 CODECOPY PUSH0 RETURN INVALID PUSH1 0x80 PUSH1 0x40 MSTORE CALLVALUE DUP1 ISZERO PUSH2 0xF JUMPI PUSH0 PUSH0 REVERT JUMPDEST POP PUSH1 0x4 CALLDATASIZE LT PUSH2 0x34 JUMPI PUSH0 CALLDATALOAD PUSH1 0xE0 SHR DUP1 PUSH4 0x9184DE38 EQ PUSH2 0x38 JUMPI DUP1 PUSH4 0xB51D0F00 EQ PUSH2 0x56 JUMPI JUMPDEST PUSH0 PUSH0 REVERT JUMPDEST PUSH2 0x40 PUSH2 0x74 JUMP JUMPDEST PUSH1 0x40 MLOAD PUSH2 0x4D SWAP2 SWAP1 PUSH2 0xD2 JUMP JUMPDEST PUSH1 0x40 MLOAD DUP1 SWAP2 SUB SWAP1 RETURN JUMPDEST PUSH2 0x5E PUSH2 0x97 JUMP JUMPDEST PUSH1 0x40 MLOAD PUSH2 0x6B SWAP2 SWAP1 PUSH2 0xD2 JUMP JUMPDEST PUSH1 0x40 MLOAD DUP1 SWAP2 SUB SWAP1 RETURN JUMPDEST PUSH0 PUSH0 PUSH1 0x5 SWAP1 POP PUSH0 PUSH1 0x6 SWAP1 POP PUSH0 DUP2 DUP4 PUSH2 0x8C SWAP2 SWAP1 PUSH2 0x118 JUMP JUMPDEST SWAP1 POP DUP1 SWAP4 POP POP POP POP SWAP1 JUMP JUMPDEST PUSH0 PUSH0 PUSH1 0xC SWAP1 POP PUSH0 PUSH1 0x17 SWAP1 POP PUSH0 DUP2 DUP4 PUSH2 0xAF SWAP2 SWAP1 PUSH2 0x178 JUMP JUMPDEST SWAP1 POP DUP1 SWAP4 POP POP POP POP SWAP1 JUMP JUMPDEST PUSH0 DUP2 SWAP1 POP SWAP2 SWAP1 POP JUMP JUMPDEST PUSH2 0xCC DUP2 PUSH2 0xBA JUMP JUMPDEST DUP3 MSTORE POP POP JUMP JUMPDEST PUSH0 PUSH1 0x20 DUP3 ADD SWAP1 POP PUSH2 0xE5 PUSH0 DUP4 ADD DUP5 PUSH2 0xC3 JUMP JUMPDEST SWAP3 SWAP2 POP POP JUMP JUMPDEST PUSH32 0x4E487B7100000000000000000000000000000000000000000000000000000000 PUSH0 MSTORE PUSH1 0x11 PUSH1 0x4 MSTORE PUSH1 0x24 PUSH0 REVERT JUMPDEST PUSH0 PUSH2 0x122 DUP3 PUSH2 0xBA JUMP JUMPDEST SWAP2 POP PUSH2 0x12D DUP4 PUSH2 0xBA JUMP JUMPDEST SWAP3 POP DUP3 DUP3 ADD SWAP1 POP DUP1 DUP3 GT ISZERO PUSH2 0x145 JUMPI PUSH2 0x144 PUSH2 0xEB JUMP JUMPDEST JUMPDEST SWAP3 SWAP2 POP POP JUMP JUMPDEST PUSH32 0x4E487B7100000000000000000000000000000000000000000000000000000000 PUSH0 MSTORE PUSH1 0x12 PUSH1 0x4 MSTORE PUSH1 0x24 PUSH0 REVERT JUMPDEST PUSH0 PUSH2 0x182 DUP3 PUSH2 0xBA JUMP JUMPDEST SWAP2 POP PUSH2 0x18D DUP4 PUSH2 0xBA JUMP JUMPDEST SWAP3 POP DUP3 PUSH2 0x19D JUMPI PUSH2 0x19C PUSH2 0x14B JUMP JUMPDEST JUMPDEST DUP3 DUP3 MOD SWAP1 POP SWAP3 SWAP2 POP POP JUMP INVALID LOG2 PUSH5 0x6970667358 0x22 SLT KECCAK256 0xB4 CALL EXTCALL SWAP8 DUP8 GAS RETURNDATACOPY 0xEA 0xB1 0xFC 0xCD 0xE EXTCODESIZE PUSH8 0xCE9281B26739161F 0xA8 GASLIMIT 0x2A RETF BLOCKHASH MULMOD 0xB7 0xC4 ADD 0xAD PUSH5 0x736F6C6343 STOP ADDMOD 0x1E STOP CALLER "
		},
		"gasEstimates": {
			"creation": {
				"codeDepositCost": "95600",
				"executionCost": "139",
				"totalCost": "95739"
			},
			"external": {
				"addCalculator()": "infinite",
				"modCalculator()": "infinite"
			}
		},
		"methodIdentifiers": {
			"addCalculator()": "9184de38",
			"modCalculator()": "b51d0f00"
		}
	},
	"abi": [
		{
			"inputs": [],
			"name": "addCalculator",
			"outputs": [
				{
					"internalType": "uint256",
					"name": "",
					"type": "uint256"
				}
			],
			"stateMutability": "view",
			"type": "function"
		},
		{
			"inputs": [],
			"name": "modCalculator",
			"outputs": [
				{
					"internalType": "uint256",
					"name": "",
					"type": "uint256"
				}
			],
			"stateMutability": "view",
			"type": "function"
		}
	]
}