{
	"data": {
		"bytecode": {
			"linkReferences": {},
			"object": "6080604052348015600e575f5ffd5b506101ce8061001c5f395ff3fe6080604052348015600e575f5ffd5b50600436106026575f3560e01c806322a39bfc14602a575b5f5ffd5b60306032565b005b5f604051603d90605b565b604051809103905ff0801580156055573d5f5f3e3d5ffd5b50905050565b610130806100698339019056fe6080604052348015600e575f5ffd5b506101148061001c5f395ff3fe6080604052348015600e575f5ffd5b50600436106026575f3560e01c8063ba7b37d414602a575b5f5ffd5b60406004803603810190603c919060b8565b6042565b005b805f5f3373ffffffffffffffffffffffffffffffffffffffff1673ffffffffffffffffffffffffffffffffffffffff1681526020019081526020015f208190555050565b5f5ffd5b5f819050919050565b609a81608a565b811460a3575f5ffd5b50565b5f8135905060b2816093565b92915050565b5f6020828403121560ca5760c96086565b5b5f60d58482850160a6565b9150509291505056fea26469706673582212203b18248e99b891e3fa6e8f02d4f8a8e4587adc01b92951234033a21909c2c5ef64736f6c634300081e0033a2646970667358221220e720d49e01f8eeaa5c78d3d2b57c55a02287fa5a4bbbb4e9e0b6bd6a567fb71264736f6c634300081e0033",
			"opcodes": "PUSH1 0x80 PUSH1 0x40 MSTORE CALLVALUE DUP1 ISZERO PUSH1 0xE JUMPI PUSH0 PUSH0 REVERT JUMPDEST POP PUSH2 0x1CE DUP1 PUSH2 0x1C PUSH0 CODECOPY PUSH0 RETURN INVALID PUSH1 0x80 PUSH1 0x40 MSTORE CALLVALUE DUP1 ISZERO PUSH1 0xE JUMPI PUSH0 PUSH0 REVERT JUMPDEST POP PUSH1 0x4 CALLDATASIZE LT PUSH1 0x26 JUMPI PUSH0 CALLDATALOAD PUSH1 0xE0 SHR DUP1 PUSH4 0x22A39BFC EQ PUSH1 0x2A JUMPI JUMPDEST PUSH0 PUSH0 REVERT JUMPDEST PUSH1 0x30 PUSH1 0x32 JUMP JUMPDEST STOP JUMPDEST PUSH0 PUSH1 0x40 MLOAD PUSH1 0x3D SWAP1 PUSH1 0x5B JUMP JUMPDEST PUSH1 0x40 MLOAD DUP1 SWAP2 SUB SWAP1 PUSH0 CREATE DUP1 ISZERO DUP1 ISZERO PUSH1 0x55 JUMPI RETURNDATASIZE PUSH0 PUSH0 RETURNDATACOPY RETURNDATASIZE PUSH0 REVERT JUMPDEST POP SWAP1 POP POP JUMP JUMPDEST PUSH2 0x130 DUP1 PUSH2 0x69 DUP4 CODECOPY ADD SWAP1 JUMP INVALID PUSH1 0x80 PUSH1 0x40 MSTORE CALLVALUE DUP1 ISZERO PUSH1 0xE JUMPI PUSH0 PUSH0 REVERT JUMPDEST POP PUSH2 0x114 DUP1 PUSH2 0x1C PUSH0 CODECOPY PUSH0 RETURN INVALID PUSH1 0x80 PUSH1 0x40 MSTORE CALLVALUE DUP1 ISZERO PUSH1 0xE JUMPI PUSH0 PUSH0 REVERT JUMPDEST POP PUSH1 0x4 CALLDATASIZE LT PUSH1 0x26 JUMPI PUSH0 CALLDATALOAD PUSH1 0xE0 SHR DUP1 PUSH4 0xBA7B37D4 EQ PUSH1 0x2A JUMPI JUMPDEST PUSH0 PUSH0 REVERT JUMPDEST PUSH1 0x40 PUSH1 0x4 DUP1 CALLDATASIZE SUB DUP2 ADD SWAP1 PUSH1 0x3C SWAP2 SWAP1 PUSH1 0xB8 JUMP JUMPDEST PUSH1 0x42 JUMP JUMPDEST STOP JUMPDEST DUP1 PUSH0 PUSH0 CALLER PUSH20 0xFFFFFFFFFFFFFFFFFFFFFFFFFFFFFFFFFFFFFFFF AND PUSH20 0xFFFFFFFFFFFFFFFFFFFFFFFFFFFFFFFFFFFFFFFF AND DUP2 MSTORE PUSH1 0x20 ADD SWAP1 DUP2 MSTORE PUSH1 0x20 ADD PUSH0 KECCAK256 DUP2 SWAP1 SSTORE POP POP JUMP JUMPDEST PUSH0 PUSH0 REVERT JUMPDEST PUSH0 DUP2 SWAP1 POP SWAP2 SWAP1 POP JUMP JUMPDEST PUSH1 0x9A DUP2 PUSH1 0x8A JUMP JUMPDEST DUP2 EQ PUSH1 0xA3 JUMPI PUSH0 PUSH0 REVERT JUMPDEST POP JUMP JUMPDEST PUSH0 DUP2 CALLDATALOAD SWAP1 POP PUSH1 0xB2 DUP2 PUSH1 0x93 JUMP JUMPDEST SWAP3 SWAP2 POP POP JUMP JUMPDEST PUSH0 PUSH1 0x20 DUP3 DUP5 SUB SLT ISZERO PUSH1 0xCA JUMPI PUSH1 0xC9 PUSH1 0x86 JUMP JUMPDEST JUMPDEST PUSH0 PUSH1 0xD5 DUP5 DUP3 DUP6 ADD PUSH1 0xA6 JUMP JUMPDEST SWAP2 POP POP SWAP3 SWAP2 POP POP JUMP INVALID LOG2 PUSH5 0x6970667358 0x22 SLT KECCAK256 EXTCODESIZE XOR 0x24 DUP15 SWAP10 0xB8 SWAP2 CALLF 0xFA6E DUP16 MUL 0xD4 EXTCALL 0xA8 RETF PC PUSH27 0xDC01B92951234033A21909C2C5EF64736F6C634300081E0033A264 PUSH10 0x70667358221220E720D4 SWAP15 ADD EXTCALL RETURNCONTRACT 0xAA TLOAD PUSH25 0xD3D2B57C55A02287FA5A4BBBB4E9E0B6BD6A567FB71264736F PUSH13 0x634300081E0033000000000000 "
		},
		"gasEstimates": {
			"creation": {
				"codeDepositCost": "92400",
				"executionCost": "139",
				"totalCost": "92539"
			},
			"external": {
				"updatesBalance()": "infinite"
			}
		},
		"methodIdentifiers": {
			"updatesBalance()": "22a39bfc"
		}
	},
	"abi": [
		{
			"inputs": [],
			"name": "updatesBalance",
			"outputs": [],
			"stateMutability": "nonpayable",
			"type": "function"
		}
	]
}